:100000000C9455000C9474000C9474000C947400BF
:100010000C9474000C9474000C9474000C94740090
:100020000C9474000C9474000C9474000C94740080
:100030000C9474000C9416060C9474000C947400C8
:100040000C9474000C9474000C9474000C94740060
:100050000C942B020C9474000C9474000C94740097
:100060000C9474000C9474000C9474000C94740040
:100070000C9474000C9474000C9474000C94740030
:100080000C9474000C9474000C94740005A84CCD6E
:10009000B2D44EB93836A9020C50B9918688083CC2
:1000A000A6AAAA2ABE000000803F11241FBECFEFDF
:1000B000D0E4DEBFCDBF11E0A0E0B1E0EAE6F2E1BE
:1000C00000E00BBF02C007900D92A235B107D9F72F
:1000D00011E0A2E5B1E001C01D92A636B107E1F73B
:1000E0000E94F8040C9433090C94000017B8299A64
:1000F0002A9A000086B12A98089528980E947600CE
:1001000008959FEF97B929982A9A88B92A9887E97C
:100110009AE30197F1F700C00000089528980E9423
:1001200081000E947D0087FDFCCF0895289A0E94DF
:1001300081000E947D0087FDFCCF87EA91E6019750
:10014000F1F700C000000895289A0E9476000895F3
:10015000EF92FF92CF93DF93E82EE7017E01F92E15
:10016000E70102C00E94960089918823D9F787E9A8
:100170009AE30197F1F700C00000DF91CF91FF9063
:10018000EF9008956295660F660F607C680F862F6A
:1001900080680E948E00089581E00E948E0087E9A9
:1001A0009AE30197F1F700C00000089582E00E94F1
:1001B0008E0087E893E10197F1F700C000000895F1
:1001C0008FEF87B9229A209A219A8FEB94EDA1E0C4
:1001D00081509040A040E1F700C0000028982A9884
:1001E000299883E09FE32A9A98B92A98AFE4B3EC60
:1001F0001197F1F700C000008150A9F788E30E9431
:100200008E0088E00E948E0081E00E948E0086E0D1
:100210000E948E008CE00E948E000895CF92DF92A3
:10022000EF92FF920F931F93CF93DF930E94D6001C
:1002300080910601909107017C0197FF02C0EE2496
:10024000FF246C011816190614F4CC24DD24C0E137
:10025000D0E0C81BD90BC034D10514F0CFE3D0E0F7
:1002600000E010E005C080E20E9496000F5F1F4F83
:100270000E151F05C4F3002711270C191D0998E05E
:10028000E92E91E0F92EE00EF11E07C0F7018191F1
:100290007F010E9496000F5F1F4F0C171D07B4F3DC
:1002A00000E010E080E1E82EF12C05C080E20E9421
:1002B00096000F5F1F4F2091060130910701C70183
:1002C000821B930B8C1B9D0B081719077CF3C9012C
:1002D00001979093070180930601FFEF823C9F07EF
:1002E00034F48FE090E09093070180930601DF9152
:1002F000CF911F910F91FF90EF90DF90CF900895D5
:10030000CF93DF93EC019B0177FF02C08DE201C028
:1003100080E2888337FF03C0309521953F4FC901A4
:1003200068EE73E00E940C09EAE0F0E0CB01BF0147
:100330000E940C09805D8983C90164E670E00E9417
:100340000C09CB01BF010E940C09805D8A83C901A1
:10035000BF010E940C09282FCB01BF010E940C098C
:10036000805D8B83205D2C83DF91CF91089581B1D7
:100370008FEF81B980918400909185008053984FD0
:10038000909389008093880081E080938100EFE65C
:10039000F0E0808182608083089544E150E0649FB2
:1003A0009001659F300D749F300D1124F894E82F53
:1003B000F0E0EE0FFF1FEA5AFE4F3183208378945E
:1003C000089529E33EE843E251E40E943B080E947D
:1003D000440768587A4F80E00E94CD0108952CE1CF
:1003E00037EC41E151E40E943B080E944407605011
:1003F0007B4F80E00E94CD01089524EE38E34EE16A
:1004000051E40E943B080E9444076E5C7A4F81E0F1
:100410000E94CD01089524EE38E34EE151E40E949C
:100420003B080E9444076E5C7A4F82E00E94CD0137
:100430000895F8941092C50081E88093C400E0EC20
:10044000F0E08081808380E98093C10086E2809320
:10045000C200789408951F920F920FB60F92112444
:100460008F938091C600809348018F910F900FBEAB
:100470000F901F901895DF93CF93CDB7DEB7CF9134
:10048000DF910895DF93CF93CDB7DEB769857A8585
:100490008B859C850E94E1016D8D7E8D8F8D98A14D
:1004A0000E94EF0169A97AA98BA99CA90E94FD016C
:1004B000CF91DF910895DF93CF93CDB7DEB7CF9182
:1004C000DF910895DF93CF93CDB7DEB7CF91DF9162
:1004D00008952F923F924F925F926F927F928F92E8
:1004E0009F92AF92BF92CF92DF92EF92FF920F93C3
:1004F0001F93DF93CF93CDB7DEB762970FB6F89413
:10050000DEBF0FBECDBFFE01E559FF4F40815181D7
:10051000FE01E359FF4F6081718182819381FE0169
:10052000E959FF4FA080B180C280D380A982BA82EE
:10053000CB82DC8224E130E0429FF001439FF00D4A
:10054000529FF00D1124A7E2CA2ED12CCC0EDD1E35
:10055000EC0DFD1DE484F58406851785A088B1881F
:10056000C288D388AD82BE82CF82D88641505040A7
:10057000429F4001439F900C529F900C1124E7E250
:10058000F0E0EC0FFD1FE80DF91D2089318942894B
:10059000538929873A874B875C8728ED3FE049E4F8
:1005A00050E40E943B0820E030E044E353E40E9422
:1005B000DC065B016C01762F272F3B2D4C2D5D2D2A
:1005C000CA01B9010E94D9066F87788B898B9A8BF3
:1005D0006A2D7B2D8C2D9D2D0E949E085B016C0148
:1005E000A7966CAD7DAD8EAD9FADA797A801970185
:1005F0000E947406762E672E582E492E69817A81C4
:100600008B819C812D813E814F8158850E9474068B
:10061000362E272E8D879E87E7E2F0E0EC0FFD1F38
:10062000E80DF91DC801B701248535854685578534
:100630000E947406A60195010E943B087B018C0173
:100640006D817E818F81988529853A854B855C8572
:100650000E9474062F85388949895A890E943B086F
:100660009B01AC01C801B7010E94750629853A8536
:100670004B855C850E9475069B01AC0169817A817E
:100680008B819C810E9474066B01E82E192FA301B7
:100690009201652F742F832F922FD301F2012B2FFC
:1006A0003A2F4F2F5E2F0E943B084B015C01A101A6
:1006B0003D852E85652F742F832F922FD101F9014F
:1006C0002B2F3A2F4F2F5E2F0E943B089B01AC012E
:1006D000C501B4010E9475064B015C016C2D7D2D96
:1006E0008E2D912F2C2D3D2D4E2D512F0E943B08EC
:1006F0009B01AC01C501B4010E94740620E030E00A
:10070000A9010E94370887FF01C080E062960FB6FA
:10071000F894DEBF0FBECDBFCF91DF911F910F9137
:10072000FF90EF90DF90CF90BF90AF909F908F9011
:100730007F906F905F904F903F902F9008952F92F1
:100740003F924F925F926F927F928F929F92AF9261
:10075000BF92CF92DF92EF92FF920F931F93DF939E
:10076000CF93CDB7DEB762970FB6F894DEBF0FBE5A
:10077000CDBFFE01E559FF4F40815181FE01E35994
:10078000FF4F6081718182819381A7960CAD1DAD71
:100790002EAD3FADA79709831A832B833C8324E1B9
:1007A00030E0429FF001439FF00D529FF00D112465
:1007B000A7E2B0E0AC0FBD1FEA0FFB1FE484F58495
:1007C00006851785208831884288538841505040DB
:1007D000429F4001439F900C529F900C1124FD01B9
:1007E000E80DF91D24853585468557852D833E8383
:1007F0004F83588728ED3FE049E450E40E943B08CE
:1008000020E030E044E353E40E94DC065B016C012D
:10081000762F272F3B2D4C2D5D2DCA01B9010E944B
:10082000D9066B877C878D879E876A2D7B2D8C2DC3
:100830009D2D0E949E086F87788B898B9A8B69818A
:100840007A818B819C81A80197010E947406D62E23
:10085000C72EB82EA92EFE01E959FF4F6081718184
:1008600082819381A20191010E947406762E672EE7
:1008700089879A87C801B7012D813E814F815885AC
:100880000E9474062B853C854D855E850E943B0841
:100890007B018C01E7E2F0E0EC0FFD1FE80DF91D94
:1008A000C201B10120893189428953890E947406AD
:1008B0002F85388949895A890E943B089B01AC01E0
:1008C000C801B7010E9474062D813E814F81588571
:1008D0000E9475069B01AC0169817A818B819C81A4
:1008E0000E9474068B01E82E892EA6019501652FC2
:1008F000742F832F922FD601F5012B2F3A2F4F2FD4
:100900005E2F0E943B085B016C01A30139852A859B
:10091000652F742F832F922FD301F9012B2F3A2F9C
:100920004F2F5E2F0E943B089B01AC01C601B50111
:100930000E9475065B016C01602F712F8E2D982D22
:10094000202F312F4E2D582D0E943B089B01AC01CA
:10095000C601B5010E94740620E030E0A9010E94A2
:10096000370887FF01C080E062960FB6F894DEBFBB
:100970000FBECDBFCF91DF911F910F91FF90EF90F0
:10098000DF90CF90BF90AF909F908F907F906F90AF
:100990005F904F903F902F9008950F931F93DF9398
:1009A000CF9300D000D000D0CDB7DEB7BC01DE01C0
:1009B0001196E0E0F1E086E001900D928150E1F7C0
:1009C0008E010F5F1F4FC8010E94800180E061E02F
:1009D0000E94C200C8010E94A80026960FB6F89493
:1009E000DEBF0FBECDBFCF91DF911F910F91089554
:1009F0006F927F928F929F92AF92BF92CF92DF922F
:100A0000EF92FF920F931F93CF93DF938FEF98E0B6
:100A1000ADE381509040A040E1F700C000000E948B
:100A2000E0008FEF98E0ADE381509040A040E1F707
:100A300000C0000080E69DE6909357018093560128
:100A4000909359018093580190935B0180935A01D0
:100A500090935D0180935C0190935F0180935E01B0
:100A60009093610180936001909363018093620190
:100A700090936501809364010E94B70178940E946D
:100A800019028FEF98E0ADE381509040A040E1F76C
:100A900000C0000060E070E0CB010E94EF0160E068
:100AA00070E080EA90EC0E94FD0160E070E080E779
:100AB00091E40E940B028FEF9AE1A7EB81509040E6
:100AC000A040E1F700C0000080E090E00E94CD046B
:100AD00000E010E0EE24FF24CC24DD2488249924B7
:100AE0002AEA622E712CC2E0D0E09AE5A92EB12C40
:100AF00003C081E0882E912C8114910409F058C024
:100B000080914801873009F448C0883070F4833000
:100B100099F1843020F4823009F047C03CC0843021
:100B2000E1F0853009F041C009C08930C9F0893051
:100B300030F18A3031F08F30C1F534C0CC0EDD1E7B
:100B400002C0CC1ADD0AB601882777FD8095982F60
:100B50000E9472070E94EF0128C0EC0EFD1E02C029
:100B6000EC1AFD0AB701882777FD8095982F0E941F
:100B700072070E94FD0119C00C0F1D1F02C00C1B43
:100B80001D0BB801882777FD8095982F0E9472076A
:100B90000E940B020AC0219601C02197CE010E943B
:100BA000CD0403C0B1E08B2E912C10924801A4CF4C
:100BB000C501825B9F4F8D39910520F0709461943F
:100BC00071087394A60CB71CB501882777FD809532
:100BD000982F0E9472070E94EF01B5016550704086
:100BE000882777FD8095982F0E9472070E94FD014B
:100BF000B5016C5E7F4F882777FD8095982F0E9406
:100C000072070E940B028FEF98E0ADE38150904095
:100C1000A040E1F700C00000809148018F3009F04A
:100C200068CF109248018824992466CF1F920F92B2
:100C30000FB60F920BB60F9211242F933F934F9341
:100C40008F939F93AF93BF93EF93FF93209188006F
:100C50003091890090915301E92FF0E0DF01A75B0B
:100C6000BE4F8C91409151014423B1F092B1982B29
:100C700092B9EE0FFF1FEA5AFE4F80819181820FD9
:100C8000931F9093890080938800205B3C433093AE
:100C900055012093540114C022B18095822382B95A
:100CA000892F8F5F80935301883011F41092530184
:100CB0008091540190915501909389008093880010
:100CC00081E0842780935101FF91EF91BF91AF9113
:100CD0009F918F914F913F912F910F900BBE0F904D
:100CE0000FBE0F901F9018955058BB27AA270ED003
:100CF00073C13CD130F041D120F031F49F3F11F469
:100D00001EF431C10EF4E095E7FB27C1E92F86D12F
:100D100080F3BA17620773078407950718F071F418
:100D20009EF59EC10EF4E0950B2EBA2FA02D0B015F
:100D3000B90190010C01CA01A0011124FF27591B20
:100D400099F0593F50F4503E68F11A16F040A22F26
:100D5000232F342F4427585FF3CF46953795279597
:100D6000A795F0405395C9F77EF41F16BA0B620B96
:100D7000730B840BBAF09150A1F0FF0FBB1F661FDD
:100D8000771F881FC2F70EC0BA0F621F731F841F20
:100D900048F4879577956795B795F7959E3F08F046
:100DA000B3CF9395880F08F09927EE0F9795879505
:100DB0000895EBD0E39521C10CD00EC1DED040F0F8
:100DC000D5D030F021F45F3F19F0C7C0511149C1AF
:100DD000CAC024D198F39923C9F35523B1F3951BC5
:100DE000550BBB27AA2762177307840738F09F5F4C
:100DF0005F4F220F331F441FAA1FA9F333D00E2EBB
:100E00003AF0E0E830D091505040E695001CCAF727
:100E100029D0FE2F27D0660F771F881FBB1F2617EC
:100E200037074807AB07B0E809F0BB0B802DBF01BF
:100E3000FF2793585F4F2AF09E3F510568F08DC001
:100E400010C15F3FECF3983EDCF38695779567958C
:100E5000B795F7959F5FC9F7880F911D9695879570
:100E600097F90895E1E0660F771F881FBB1F62178F
:100E700073078407BA0720F0621B730B840BBA0B4D
:100E8000EE1F88F7E0950895D1D088F09F5790F035
:100E9000B92F9927B751A0F0D1F0660F771F881F9F
:100EA000991F1AF0BA95C9F712C0B13081F0D8D0A5
:100EB000B1E00895D5C0672F782F8827B85F39F043
:100EC000B93FCCF3869577956795B395D9F73EF4FE
:100ED00090958095709561957F4F8F4F9F4F0895A6
:100EE000E89409C097FB3EF49095809570956195C4
:100EF0007F4F8F4F9F4F9923A9F0F92F96E9BB277A
:100F00009395F695879577956795B795F111F8CFF5
:100F1000FAF4BB0F11F460FF1BC06F5F7F4F8F4F60
:100F20009F4F16C0882311F096E911C0772321F056
:100F30009EE8872F762F05C0662371F096E8862FEE
:100F400070E060E02AF09A95660F771F881FDAF745
:100F5000880F9695879597F9089597F99F6780E888
:100F600070E060E008959FEF80EC089500240A94FB
:100F70001616170618060906089500240A94121674
:100F80001306140605060895EECF50D0E8F3E89452
:100F9000E0E0BB279F57F0F02AED3FE049EC06C0A8
:100FA000EE0FBB0F661F771F881F28F0B23A62074B
:100FB0007307840728F0B25A620B730B840BE39516
:100FC0009A9572F7803830F49A95BB0F661F771F99
:100FD000881FD2F79048DEC0092E0394000C11F44C
:100FE000882352F0BB0F40F4BF2B11F460FF04C004
:100FF0006F5F7F4F8F4F9F4F0895EF93E0FF06C0C5
:10100000A2EA2AED3FE049EC5FEB80DEE5DF0F90DE
:10101000039401FC9058ECE8F0E0C8C057FD9058EC
:10102000440F551F59F05F3F71F04795880F97FBAC
:10103000991F61F09F3F79F0879508951216130666
:101040001406551FF2CF4695F1DF08C01616170695
:101050001806991FF1CF86957105610508940895CA
:10106000E894BB2766277727CB0197F908956CD0C2
:1010700008F48FEF08950BD0AFCF78DF28F07DDF35
:1010800018F0952309F069CF6ECF1124EACFC6DF9F
:10109000A0F3959FD1F3950F50E0551F629FF0018B
:1010A000729FBB27F00DB11D639FAA27F00DB11DE4
:1010B000AA1F649F6627B00DA11D661F829F22276D
:1010C000B00DA11D621F739FB00DA11D621F839FF4
:1010D000A00D611D221F749F3327A00D611D231FCA
:1010E000849F600D211D822F762F6A2F11249F5718
:1010F00050408AF0E1F088234AF0EE0FFF1FBB1F3B
:10110000661F771F881F91505040A9F79E3F5105D9
:1011100070F023CFA6CF5F3FECF3983EDCF38695CB
:1011200077956795B795F795E7959F5FC1F7FE2B84
:10113000880F911D9695879597F908959F9325DFC0
:101140000F9007FCEE5F59CF990F0008550FAA0BBF
:10115000E0E8FEEF16161706E807F907C0F01216CA
:101160001306E407F50798F0621B730B840B950BCD
:1011700039F40A2661F0232B242B252B21F4089522
:101180000A2609F4A140A6958FEF811D811D0895BF
:101190009F3F31F0915020F4879577956795B795EB
:1011A000880F911D9695879597F908959F938F9332
:1011B0007F936F93FF93EF939B01AC015CDFEF9103
:1011C000FF9105D02F913F914F915F9154CFDF93C5
:1011D000CF931F930F93FF92EF92DF927B018C01CD
:1011E000689405C0DA2EEF0152DFFE01E894A59164
:1011F0002591359145915591AEF3EF0187DDFE01C3
:101200009701A801DA9479F7DF90EF90FF900F91A2
:101210001F91CF91DF91089597FB092E07260AD0E1
:1012200077FD04D00CD006D000201AF4709561959B
:101230007F4F0895F6F7909581959F4F0895AA1BCB
:10124000BB1B51E107C0AA1FBB1FA617B70710F0B1
:10125000A61BB70B881F991F5A95A9F780959095E3
:0A126000BC01CD010895F894FFCF02
:10126A002B30303030000F00506177656C204A6FA8
:10127A006E69616B2C204D696368616C20427572DE
:10128A00646B612C20456D696C20426172637A79C6
:10129A006E736B692C2042617274656B2057697496
:1012AA006B6F77736B692E000301020408102040EC
:0212BA008001B1
:00000001FF
