Archive member included because of file (symbol)

d:/program files (x86)/gnu tools arm embedded/4.7 2012q4/bin/../lib/gcc/arm-none-eabi/4.7.3/armv7e-m\libgcc.a(_arm_addsubsf3.o)
                              ..\obj\utils.o (__aeabi_fsub)
d:/program files (x86)/gnu tools arm embedded/4.7 2012q4/bin/../lib/gcc/arm-none-eabi/4.7.3/armv7e-m\libgcc.a(_arm_muldivsf3.o)
                              ..\obj\utils.o (__aeabi_fmul)
d:/program files (x86)/gnu tools arm embedded/4.7 2012q4/bin/../lib/gcc/arm-none-eabi/4.7.3/armv7e-m\libgcc.a(_arm_cmpsf2.o)
                              ..\obj\utils.o (__aeabi_fcmplt)
d:/program files (x86)/gnu tools arm embedded/4.7 2012q4/bin/../lib/gcc/arm-none-eabi/4.7.3/armv7e-m\libgcc.a(_arm_fixunssfsi.o)
                              ..\obj\utils.o (__aeabi_f2uiz)
d:/program files (x86)/gnu tools arm embedded/4.7 2012q4/bin/../lib/gcc/arm-none-eabi/4.7.3/../../../../arm-none-eabi/lib/armv7e-m\libg.a(lib_a-init.o)
                              ..\obj\startup_stm32f4xx.o (__libc_init_array)
d:/program files (x86)/gnu tools arm embedded/4.7 2012q4/bin/../lib/gcc/arm-none-eabi/4.7.3/../../../../arm-none-eabi/lib/armv7e-m\libg.a(lib_a-memcpy.o)
                              ..\obj\mp3dec.o (memcpy)
d:/program files (x86)/gnu tools arm embedded/4.7 2012q4/bin/../lib/gcc/arm-none-eabi/4.7.3/../../../../arm-none-eabi/lib/armv7e-m\libg.a(lib_a-memmove.o)
                              ..\obj\mp3dec.o (memmove)
d:/program files (x86)/gnu tools arm embedded/4.7 2012q4/bin/../lib/gcc/arm-none-eabi/4.7.3/../../../../arm-none-eabi/lib/armv7e-m\libg.a(lib_a-sprintf.o)
                              ..\obj\utils.o (sprintf)
d:/program files (x86)/gnu tools arm embedded/4.7 2012q4/bin/../lib/gcc/arm-none-eabi/4.7.3/../../../../arm-none-eabi/lib/armv7e-m\libg.a(lib_a-svfprintf.o)
                              d:/program files (x86)/gnu tools arm embedded/4.7 2012q4/bin/../lib/gcc/arm-none-eabi/4.7.3/../../../../arm-none-eabi/lib/armv7e-m\libg.a(lib_a-sprintf.o) (_svfprintf_r)
d:/program files (x86)/gnu tools arm embedded/4.7 2012q4/bin/../lib/gcc/arm-none-eabi/4.7.3/../../../../arm-none-eabi/lib/armv7e-m\libg.a(lib_a-dtoa.o)
                              d:/program files (x86)/gnu tools arm embedded/4.7 2012q4/bin/../lib/gcc/arm-none-eabi/4.7.3/../../../../arm-none-eabi/lib/armv7e-m\libg.a(lib_a-svfprintf.o) (_dtoa_r)
d:/program files (x86)/gnu tools arm embedded/4.7 2012q4/bin/../lib/gcc/arm-none-eabi/4.7.3/../../../../arm-none-eabi/lib/armv7e-m\libg.a(lib_a-impure.o)
                              d:/program files (x86)/gnu tools arm embedded/4.7 2012q4/bin/../lib/gcc/arm-none-eabi/4.7.3/../../../../arm-none-eabi/lib/armv7e-m\libg.a(lib_a-sprintf.o) (_impure_ptr)
d:/program files (x86)/gnu tools arm embedded/4.7 2012q4/bin/../lib/gcc/arm-none-eabi/4.7.3/../../../../arm-none-eabi/lib/armv7e-m\libg.a(lib_a-locale.o)
                              d:/program files (x86)/gnu tools arm embedded/4.7 2012q4/bin/../lib/gcc/arm-none-eabi/4.7.3/../../../../arm-none-eabi/lib/armv7e-m\libg.a(lib_a-svfprintf.o) (_localeconv_r)
d:/program files (x86)/gnu tools arm embedded/4.7 2012q4/bin/../lib/gcc/arm-none-eabi/4.7.3/../../../../arm-none-eabi/lib/armv7e-m\libg.a(lib_a-mallocr.o)
                              d:/program files (x86)/gnu tools arm embedded/4.7 2012q4/bin/../lib/gcc/arm-none-eabi/4.7.3/../../../../arm-none-eabi/lib/armv7e-m\libg.a(lib_a-svfprintf.o) (_malloc_r)
d:/program files (x86)/gnu tools arm embedded/4.7 2012q4/bin/../lib/gcc/arm-none-eabi/4.7.3/../../../../arm-none-eabi/lib/armv7e-m\libg.a(lib_a-memchr.o)
                              d:/program files (x86)/gnu tools arm embedded/4.7 2012q4/bin/../lib/gcc/arm-none-eabi/4.7.3/../../../../arm-none-eabi/lib/armv7e-m\libg.a(lib_a-svfprintf.o) (memchr)
d:/program files (x86)/gnu tools arm embedded/4.7 2012q4/bin/../lib/gcc/arm-none-eabi/4.7.3/../../../../arm-none-eabi/lib/armv7e-m\libg.a(lib_a-mlock.o)
                              d:/program files (x86)/gnu tools arm embedded/4.7 2012q4/bin/../lib/gcc/arm-none-eabi/4.7.3/../../../../arm-none-eabi/lib/armv7e-m\libg.a(lib_a-mallocr.o) (__malloc_lock)
d:/program files (x86)/gnu tools arm embedded/4.7 2012q4/bin/../lib/gcc/arm-none-eabi/4.7.3/../../../../arm-none-eabi/lib/armv7e-m\libg.a(lib_a-mprec.o)
                              d:/program files (x86)/gnu tools arm embedded/4.7 2012q4/bin/../lib/gcc/arm-none-eabi/4.7.3/../../../../arm-none-eabi/lib/armv7e-m\libg.a(lib_a-dtoa.o) (_Balloc)
d:/program files (x86)/gnu tools arm embedded/4.7 2012q4/bin/../lib/gcc/arm-none-eabi/4.7.3/../../../../arm-none-eabi/lib/armv7e-m\libg.a(lib_a-s_fpclassify.o)
                              d:/program files (x86)/gnu tools arm embedded/4.7 2012q4/bin/../lib/gcc/arm-none-eabi/4.7.3/../../../../arm-none-eabi/lib/armv7e-m\libg.a(lib_a-svfprintf.o) (__fpclassifyd)
d:/program files (x86)/gnu tools arm embedded/4.7 2012q4/bin/../lib/gcc/arm-none-eabi/4.7.3/../../../../arm-none-eabi/lib/armv7e-m\libg.a(lib_a-sbrkr.o)
                              d:/program files (x86)/gnu tools arm embedded/4.7 2012q4/bin/../lib/gcc/arm-none-eabi/4.7.3/../../../../arm-none-eabi/lib/armv7e-m\libg.a(lib_a-mallocr.o) (_sbrk_r)
d:/program files (x86)/gnu tools arm embedded/4.7 2012q4/bin/../lib/gcc/arm-none-eabi/4.7.3/../../../../arm-none-eabi/lib/armv7e-m\libg.a(lib_a-strcmp.o)
                              d:/program files (x86)/gnu tools arm embedded/4.7 2012q4/bin/../lib/gcc/arm-none-eabi/4.7.3/../../../../arm-none-eabi/lib/armv7e-m\libg.a(lib_a-locale.o) (strcmp)
d:/program files (x86)/gnu tools arm embedded/4.7 2012q4/bin/../lib/gcc/arm-none-eabi/4.7.3/../../../../arm-none-eabi/lib/armv7e-m\libg.a(lib_a-strlen.o)
                              d:/program files (x86)/gnu tools arm embedded/4.7 2012q4/bin/../lib/gcc/arm-none-eabi/4.7.3/../../../../arm-none-eabi/lib/armv7e-m\libg.a(lib_a-svfprintf.o) (strlen)
d:/program files (x86)/gnu tools arm embedded/4.7 2012q4/bin/../lib/gcc/arm-none-eabi/4.7.3/../../../../arm-none-eabi/lib/armv7e-m\libg.a(lib_a-svfiprintf.o)
                              d:/program files (x86)/gnu tools arm embedded/4.7 2012q4/bin/../lib/gcc/arm-none-eabi/4.7.3/../../../../arm-none-eabi/lib/armv7e-m\libg.a(lib_a-svfprintf.o) (__ssprint_r)
d:/program files (x86)/gnu tools arm embedded/4.7 2012q4/bin/../lib/gcc/arm-none-eabi/4.7.3/../../../../arm-none-eabi/lib/armv7e-m\libg.a(lib_a-callocr.o)
                              d:/program files (x86)/gnu tools arm embedded/4.7 2012q4/bin/../lib/gcc/arm-none-eabi/4.7.3/../../../../arm-none-eabi/lib/armv7e-m\libg.a(lib_a-mprec.o) (_calloc_r)
d:/program files (x86)/gnu tools arm embedded/4.7 2012q4/bin/../lib/gcc/arm-none-eabi/4.7.3/../../../../arm-none-eabi/lib/armv7e-m\libg.a(lib_a-freer.o)
                              d:/program files (x86)/gnu tools arm embedded/4.7 2012q4/bin/../lib/gcc/arm-none-eabi/4.7.3/../../../../arm-none-eabi/lib/armv7e-m\libg.a(lib_a-mallocr.o) (_free_r)
d:/program files (x86)/gnu tools arm embedded/4.7 2012q4/bin/../lib/gcc/arm-none-eabi/4.7.3/../../../../arm-none-eabi/lib/armv7e-m\libg.a(lib_a-memset.o)
                              d:/program files (x86)/gnu tools arm embedded/4.7 2012q4/bin/../lib/gcc/arm-none-eabi/4.7.3/../../../../arm-none-eabi/lib/armv7e-m\libg.a(lib_a-callocr.o) (memset)
d:/program files (x86)/gnu tools arm embedded/4.7 2012q4/bin/../lib/gcc/arm-none-eabi/4.7.3/../../../../arm-none-eabi/lib/armv7e-m\libg.a(lib_a-reallocr.o)
                              d:/program files (x86)/gnu tools arm embedded/4.7 2012q4/bin/../lib/gcc/arm-none-eabi/4.7.3/../../../../arm-none-eabi/lib/armv7e-m\libg.a(lib_a-svfiprintf.o) (_realloc_r)
d:/program files (x86)/gnu tools arm embedded/4.7 2012q4/bin/../lib/gcc/arm-none-eabi/4.7.3/../../../../arm-none-eabi/lib/armv7e-m\libg.a(lib_a-reent.o)
                              d:/program files (x86)/gnu tools arm embedded/4.7 2012q4/bin/../lib/gcc/arm-none-eabi/4.7.3/../../../../arm-none-eabi/lib/armv7e-m\libg.a(lib_a-sbrkr.o) (errno)
d:/program files (x86)/gnu tools arm embedded/4.7 2012q4/bin/../lib/gcc/arm-none-eabi/4.7.3/armv7e-m\libgcc.a(_arm_addsubdf3.o)
                              d:/program files (x86)/gnu tools arm embedded/4.7 2012q4/bin/../lib/gcc/arm-none-eabi/4.7.3/../../../../arm-none-eabi/lib/armv7e-m\libg.a(lib_a-dtoa.o) (__aeabi_dsub)
d:/program files (x86)/gnu tools arm embedded/4.7 2012q4/bin/../lib/gcc/arm-none-eabi/4.7.3/armv7e-m\libgcc.a(_arm_muldivdf3.o)
                              d:/program files (x86)/gnu tools arm embedded/4.7 2012q4/bin/../lib/gcc/arm-none-eabi/4.7.3/../../../../arm-none-eabi/lib/armv7e-m\libg.a(lib_a-dtoa.o) (__aeabi_dmul)
d:/program files (x86)/gnu tools arm embedded/4.7 2012q4/bin/../lib/gcc/arm-none-eabi/4.7.3/armv7e-m\libgcc.a(_arm_cmpdf2.o)
                              d:/program files (x86)/gnu tools arm embedded/4.7 2012q4/bin/../lib/gcc/arm-none-eabi/4.7.3/../../../../arm-none-eabi/lib/armv7e-m\libg.a(lib_a-svfprintf.o) (__aeabi_dcmpeq)
d:/program files (x86)/gnu tools arm embedded/4.7 2012q4/bin/../lib/gcc/arm-none-eabi/4.7.3/armv7e-m\libgcc.a(_arm_fixdfsi.o)
                              d:/program files (x86)/gnu tools arm embedded/4.7 2012q4/bin/../lib/gcc/arm-none-eabi/4.7.3/../../../../arm-none-eabi/lib/armv7e-m\libg.a(lib_a-dtoa.o) (__aeabi_d2iz)
d:/program files (x86)/gnu tools arm embedded/4.7 2012q4/bin/../lib/gcc/arm-none-eabi/4.7.3/armv7e-m\libgcc.a(_aeabi_uldivmod.o)
                              d:/program files (x86)/gnu tools arm embedded/4.7 2012q4/bin/../lib/gcc/arm-none-eabi/4.7.3/../../../../arm-none-eabi/lib/armv7e-m\libg.a(lib_a-svfprintf.o) (__aeabi_uldivmod)
d:/program files (x86)/gnu tools arm embedded/4.7 2012q4/bin/../lib/gcc/arm-none-eabi/4.7.3/armv7e-m\libgcc.a(bpabi.o)
                              d:/program files (x86)/gnu tools arm embedded/4.7 2012q4/bin/../lib/gcc/arm-none-eabi/4.7.3/armv7e-m\libgcc.a(_aeabi_uldivmod.o) (__gnu_uldivmod_helper)
d:/program files (x86)/gnu tools arm embedded/4.7 2012q4/bin/../lib/gcc/arm-none-eabi/4.7.3/armv7e-m\libgcc.a(_dvmd_tls.o)
                              d:/program files (x86)/gnu tools arm embedded/4.7 2012q4/bin/../lib/gcc/arm-none-eabi/4.7.3/armv7e-m\libgcc.a(_aeabi_uldivmod.o) (__aeabi_ldiv0)
d:/program files (x86)/gnu tools arm embedded/4.7 2012q4/bin/../lib/gcc/arm-none-eabi/4.7.3/armv7e-m\libgcc.a(_divdi3.o)
                              d:/program files (x86)/gnu tools arm embedded/4.7 2012q4/bin/../lib/gcc/arm-none-eabi/4.7.3/armv7e-m\libgcc.a(bpabi.o) (__divdi3)
d:/program files (x86)/gnu tools arm embedded/4.7 2012q4/bin/../lib/gcc/arm-none-eabi/4.7.3/armv7e-m\libgcc.a(_udivdi3.o)
                              d:/program files (x86)/gnu tools arm embedded/4.7 2012q4/bin/../lib/gcc/arm-none-eabi/4.7.3/armv7e-m\libgcc.a(bpabi.o) (__udivdi3)

Allocating common symbols
Common symbol       size              file

errno               0x4               d:/program files (x86)/gnu tools arm embedded/4.7 2012q4/bin/../lib/gcc/arm-none-eabi/4.7.3/../../../../arm-none-eabi/lib/armv7e-m\libg.a(lib_a-reent.o)
time_var1           0x4               ..\obj\main.o
hMP3Decoder         0x4               ..\obj\main.o
time_var2           0x4               ..\obj\main.o
mp3FrameInfo        0x1c              ..\obj\main.o

Discarded input sections

 .text          0x00000000        0x0 ..\obj\stm32f4xx_syscfg.o
 .data          0x00000000        0x0 ..\obj\stm32f4xx_syscfg.o
 .bss           0x00000000        0x0 ..\obj\stm32f4xx_syscfg.o
 .text.SYSCFG_DeInit
                0x00000000       0x20 ..\obj\stm32f4xx_syscfg.o
 .text.SYSCFG_MemoryRemapConfig
                0x00000000       0x20 ..\obj\stm32f4xx_syscfg.o
 .text.SYSCFG_EXTILineConfig
                0x00000000       0xb0 ..\obj\stm32f4xx_syscfg.o
 .text.SYSCFG_ETH_MediaInterfaceConfig
                0x00000000       0x20 ..\obj\stm32f4xx_syscfg.o
 .text.SYSCFG_CompensationCellCmd
                0x00000000       0x20 ..\obj\stm32f4xx_syscfg.o
 .text.SYSCFG_GetCompensationCellStatus
                0x00000000       0x3c ..\obj\stm32f4xx_syscfg.o
 .debug_info    0x00000000      0x279 ..\obj\stm32f4xx_syscfg.o
 .debug_abbrev  0x00000000      0x133 ..\obj\stm32f4xx_syscfg.o
 .debug_loc     0x00000000      0x144 ..\obj\stm32f4xx_syscfg.o
Memory Configuration

Name             Origin             Length             Attributes
rom              0x08000000         0x00100000         xr
ram              0x20000000         0x00020000         xrw
ram1             0x10000000         0x00010000         xrw
*default*        0x00000000         0xffffffff

Linker script and memory map

                0x20020000                _eram = 0x20020000

.text           0x08000000    0xb5644
 *(.isr_vector)
 .isr_vector    0x08000000      0x188 ..\obj\startup_stm32f4xx.o
                0x08000000                g_pfnVectors
 *(.text*)
 .text.MULSHIFT32
                0x08000188       0x24 ..\obj\dqchan.o
 .text.CLZ      0x080001ac       0x20 ..\obj\dqchan.o
 .text.DequantBlock
                0x080001cc      0x2c0 ..\obj\dqchan.o
 .text.xmp3fixpt_DequantChannel
                0x0800048c      0x3dc ..\obj\dqchan.o
                0x0800048c                xmp3fixpt_DequantChannel
 .text.UnpackSFMPEG1
                0x08000868      0x348 ..\obj\scalfact.o
 .text.UnpackSFMPEG2
                0x08000bb0      0x5b8 ..\obj\scalfact.o
 .text.xmp3fixpt_UnpackScaleFactors
                0x08001168      0x1f8 ..\obj\scalfact.o
                0x08001168                xmp3fixpt_UnpackScaleFactors
 .text.xmp3fixpt_SetBitstreamPointer
                0x08001360       0x34 ..\obj\bitstream.o
                0x08001360                xmp3fixpt_SetBitstreamPointer
 .text.RefillBitstreamCache
                0x08001394      0x110 ..\obj\bitstream.o
 .text.xmp3fixpt_GetBits
                0x080014a4       0x9c ..\obj\bitstream.o
                0x080014a4                xmp3fixpt_GetBits
 .text.xmp3fixpt_CalcBitsUsed
                0x08001540       0x3c ..\obj\bitstream.o
                0x08001540                xmp3fixpt_CalcBitsUsed
 .text.xmp3fixpt_CheckPadBit
                0x0800157c       0x3c ..\obj\bitstream.o
                0x0800157c                xmp3fixpt_CheckPadBit
 .text.xmp3fixpt_UnpackFrameHeader
                0x080015b8      0x374 ..\obj\bitstream.o
                0x080015b8                xmp3fixpt_UnpackFrameHeader
 .text.xmp3fixpt_UnpackSideInfo
                0x0800192c      0x3ac ..\obj\bitstream.o
                0x0800192c                xmp3fixpt_UnpackSideInfo
 .text.CLZ      0x08001cd8       0x20 ..\obj\dequant.o
 .text.xmp3fixpt_Dequantize
                0x08001cf8      0x408 ..\obj\dequant.o
                0x08001cf8                xmp3fixpt_Dequantize
 .text.MULSHIFT32
                0x08002100       0x24 ..\obj\imdct.o
 .text.FASTABS  0x08002124       0x30 ..\obj\imdct.o
 .text.CLZ      0x08002154       0x20 ..\obj\imdct.o
 .text.AntiAlias
                0x08002174      0x3a8 ..\obj\imdct.o
 .text.WinPrevious
                0x0800251c      0x348 ..\obj\imdct.o
 .text.FreqInvertRescale
                0x08002864      0x3bc ..\obj\imdct.o
 .text.idct9    0x08002c20      0x344 ..\obj\imdct.o
 .text.IMDCT36  0x08002f64      0x504 ..\obj\imdct.o
 .text.imdct12  0x08003468      0x1dc ..\obj\imdct.o
 .text.IMDCT12x3
                0x08003644      0x4c0 ..\obj\imdct.o
 .text.HybridTransform
                0x08003b04      0x294 ..\obj\imdct.o
 .text.xmp3fixpt_IMDCT
                0x08003d98      0x32c ..\obj\imdct.o
                0x08003d98                xmp3fixpt_IMDCT
 .text.USART_Init
                0x080040c4      0x1ac ..\obj\stm32f4xx_usart.o
                0x080040c4                USART_Init
 .text.USART_Cmd
                0x08004270       0x40 ..\obj\stm32f4xx_usart.o
                0x08004270                USART_Cmd
 .text.xmp3fixpt_Subband
                0x080042b0      0x1cc ..\obj\subband.o
                0x080042b0                xmp3fixpt_Subband
 .text.Reset_Handler
                0x0800447c       0x50 ..\obj\startup_stm32f4xx.o
                0x0800447c                Reset_Handler
 .text.Default_Handler
                0x080044cc        0x4 ..\obj\startup_stm32f4xx.o
                0x080044cc                RTC_Alarm_IRQHandler
                0x080044cc                HASH_RNG_IRQHandler
                0x080044cc                EXTI2_IRQHandler
                0x080044cc                TIM8_CC_IRQHandler
                0x080044cc                TIM1_CC_IRQHandler
                0x080044cc                DMA2_Stream5_IRQHandler
                0x080044cc                DMA1_Stream5_IRQHandler
                0x080044cc                PVD_IRQHandler
                0x080044cc                SDIO_IRQHandler
                0x080044cc                TAMP_STAMP_IRQHandler
                0x080044cc                CAN2_RX1_IRQHandler
                0x080044cc                EXTI3_IRQHandler
                0x080044cc                TIM8_TRG_COM_TIM14_IRQHandler
                0x080044cc                TIM1_UP_TIM10_IRQHandler
                0x080044cc                TIM8_UP_TIM13_IRQHandler
                0x080044cc                I2C3_ER_IRQHandler
                0x080044cc                EXTI0_IRQHandler
                0x080044cc                I2C2_EV_IRQHandler
                0x080044cc                DMA1_Stream2_IRQHandler
                0x080044cc                CAN1_RX0_IRQHandler
                0x080044cc                FPU_IRQHandler
                0x080044cc                OTG_HS_WKUP_IRQHandler
                0x080044cc                CAN2_SCE_IRQHandler
                0x080044cc                DMA2_Stream2_IRQHandler
                0x080044cc                SPI1_IRQHandler
                0x080044cc                TIM6_DAC_IRQHandler
                0x080044cc                TIM1_BRK_TIM9_IRQHandler
                0x080044cc                DCMI_IRQHandler
                0x080044cc                CAN2_RX0_IRQHandler
                0x080044cc                DMA2_Stream3_IRQHandler
                0x080044cc                USART6_IRQHandler
                0x080044cc                USART3_IRQHandler
                0x080044cc                CRYP_IRQHandler
                0x080044cc                CAN1_RX1_IRQHandler
                0x080044cc                UART5_IRQHandler
                0x080044cc                DMA2_Stream0_IRQHandler
                0x080044cc                TIM4_IRQHandler
                0x080044cc                I2C1_EV_IRQHandler
                0x080044cc                DMA1_Stream6_IRQHandler
                0x080044cc                DMA1_Stream1_IRQHandler
                0x080044cc                UART4_IRQHandler
                0x080044cc                TIM3_IRQHandler
                0x080044cc                RCC_IRQHandler
                0x080044cc                TIM8_BRK_TIM12_IRQHandler
                0x080044cc                Default_Handler
                0x080044cc                EXTI15_10_IRQHandler
                0x080044cc                ADC_IRQHandler
                0x080044cc                TIM7_IRQHandler
                0x080044cc                CAN2_TX_IRQHandler
                0x080044cc                TIM5_IRQHandler
                0x080044cc                DMA2_Stream7_IRQHandler
                0x080044cc                I2C3_EV_IRQHandler
                0x080044cc                EXTI9_5_IRQHandler
                0x080044cc                RTC_WKUP_IRQHandler
                0x080044cc                ETH_WKUP_IRQHandler
                0x080044cc                SPI2_IRQHandler
                0x080044cc                OTG_HS_EP1_IN_IRQHandler
                0x080044cc                DMA1_Stream0_IRQHandler
                0x080044cc                CAN1_TX_IRQHandler
                0x080044cc                EXTI4_IRQHandler
                0x080044cc                FSMC_IRQHandler
                0x080044cc                ETH_IRQHandler
                0x080044cc                OTG_HS_EP1_OUT_IRQHandler
                0x080044cc                WWDG_IRQHandler
                0x080044cc                TIM2_IRQHandler
                0x080044cc                OTG_FS_WKUP_IRQHandler
                0x080044cc                TIM1_TRG_COM_TIM11_IRQHandler
                0x080044cc                OTG_HS_IRQHandler
                0x080044cc                EXTI1_IRQHandler
                0x080044cc                USART2_IRQHandler
                0x080044cc                I2C2_ER_IRQHandler
                0x080044cc                DMA2_Stream1_IRQHandler
                0x080044cc                CAN1_SCE_IRQHandler
                0x080044cc                FLASH_IRQHandler
                0x080044cc                DMA2_Stream4_IRQHandler
                0x080044cc                USART1_IRQHandler
                0x080044cc                OTG_FS_IRQHandler
                0x080044cc                SPI3_IRQHandler
                0x080044cc                DMA1_Stream4_IRQHandler
                0x080044cc                I2C1_ER_IRQHandler
                0x080044cc                DMA2_Stream6_IRQHandler
                0x080044cc                DMA1_Stream3_IRQHandler
 .text.MP3InitDecoder
                0x080044d0       0x18 ..\obj\mp3dec.o
                0x080044d0                MP3InitDecoder
 .text.MP3FindSyncWord
                0x080044e8       0x5c ..\obj\mp3dec.o
                0x080044e8                MP3FindSyncWord
 .text.MP3FindFreeSync
                0x08004544       0xbc ..\obj\mp3dec.o
 .text.MP3GetLastFrameInfo
                0x08004600       0xd8 ..\obj\mp3dec.o
                0x08004600                MP3GetLastFrameInfo
 .text.MP3ClearBadFrame
                0x080046d8       0x60 ..\obj\mp3dec.o
 .text.MP3Decode
                0x08004738      0x484 ..\obj\mp3dec.o
                0x08004738                MP3Decode
 .text.NVIC_SetPriority
                0x08004bbc       0x5c ..\obj\main.o
 .text.SysTick_Config
                0x08004c18       0x64 ..\obj\main.o
 .text.main     0x08004c7c       0xb8 ..\obj\main.o
                0x08004c7c                main
 .text.AudioCallback
                0x08004d34      0x19c ..\obj\main.o
 .text.init     0x08004ed0      0x128 ..\obj\main.o
                0x08004ed0                init
 .text.timing_handler
                0x08004ff8       0x48 ..\obj\main.o
                0x08004ff8                timing_handler
 .text.Delay    0x08005040       0x30 ..\obj\main.o
                0x08005040                Delay
 .text._init    0x08005070        0xc ..\obj\main.o
                0x08005070                _init
 .text.RCC_GetClocksFreq
                0x0800507c      0x1cc ..\obj\stm32f4xx_rcc.o
                0x0800507c                RCC_GetClocksFreq
 .text.RCC_AHB1PeriphClockCmd
                0x08005248       0x54 ..\obj\stm32f4xx_rcc.o
                0x08005248                RCC_AHB1PeriphClockCmd
 .text.RCC_APB1PeriphClockCmd
                0x0800529c       0x54 ..\obj\stm32f4xx_rcc.o
                0x0800529c                RCC_APB1PeriphClockCmd
 .text.RCC_APB1PeriphResetCmd
                0x080052f0       0x54 ..\obj\stm32f4xx_rcc.o
                0x080052f0                RCC_APB1PeriphResetCmd
 .text.NMI_Handler
                0x08005344        0xc ..\obj\stm32f4xx_it.o
                0x08005344                NMI_Handler
 .text.HardFault_Handler
                0x08005350        0x8 ..\obj\stm32f4xx_it.o
                0x08005350                HardFault_Handler
 .text.MemManage_Handler
                0x08005358        0x8 ..\obj\stm32f4xx_it.o
                0x08005358                MemManage_Handler
 .text.BusFault_Handler
                0x08005360        0x8 ..\obj\stm32f4xx_it.o
                0x08005360                BusFault_Handler
 .text.UsageFault_Handler
                0x08005368        0x8 ..\obj\stm32f4xx_it.o
                0x08005368                UsageFault_Handler
 .text.SVC_Handler
                0x08005370        0xc ..\obj\stm32f4xx_it.o
                0x08005370                SVC_Handler
 .text.DebugMon_Handler
                0x0800537c        0xc ..\obj\stm32f4xx_it.o
                0x0800537c                DebugMon_Handler
 .text.PendSV_Handler
                0x08005388        0xc ..\obj\stm32f4xx_it.o
                0x08005388                PendSV_Handler
 .text.SysTick_Handler
                0x08005394        0xc ..\obj\stm32f4xx_it.o
                0x08005394                SysTick_Handler
 .text.GPIO_Init
                0x080053a0      0x144 ..\obj\stm32f4xx_gpio.o
                0x080053a0                GPIO_Init
 .text.GPIO_SetBits
                0x080054e4       0x1c ..\obj\stm32f4xx_gpio.o
                0x080054e4                GPIO_SetBits
 .text.GPIO_ResetBits
                0x08005500       0x1c ..\obj\stm32f4xx_gpio.o
                0x08005500                GPIO_ResetBits
 .text.GPIO_PinAFConfig
                0x0800551c       0xa8 ..\obj\stm32f4xx_gpio.o
                0x0800551c                GPIO_PinAFConfig
 .text.SystemInit
                0x080055c4       0x94 ..\obj\system_stm32f4xx.o
                0x080055c4                SystemInit
 .text.SetSysClock
                0x08005658      0x188 ..\obj\system_stm32f4xx.o
 .text.MULSHIFT32
                0x080057e0       0x24 ..\obj\stproc.o
 .text.FASTABS  0x08005804       0x30 ..\obj\stproc.o
 .text.xmp3fixpt_MidSideProc
                0x08005834       0xc0 ..\obj\stproc.o
                0x08005834                xmp3fixpt_MidSideProc
 .text.xmp3fixpt_IntensityProcMPEG1
                0x080058f4      0x4e0 ..\obj\stproc.o
                0x080058f4                xmp3fixpt_IntensityProcMPEG1
 .text.xmp3fixpt_IntensityProcMPEG2
                0x08005dd4      0x578 ..\obj\stproc.o
                0x08005dd4                xmp3fixpt_IntensityProcMPEG2
 .text.DecodeHuffmanPairs
                0x0800634c      0x680 ..\obj\huffman.o
 .text.DecodeHuffmanQuads
                0x080069cc      0x2d4 ..\obj\huffman.o
 .text.xmp3fixpt_DecodeHuffman
                0x08006ca0      0x330 ..\obj\huffman.o
                0x08006ca0                xmp3fixpt_DecodeHuffman
 .text.ClearBuffer
                0x08006fd0       0x40 ..\obj\buffers.o
 .text.xmp3fixpt_AllocateBuffers
                0x08007010      0x108 ..\obj\buffers.o
                0x08007010                xmp3fixpt_AllocateBuffers
 .text.xmp3fixpt_FreeBuffers
                0x08007118       0x18 ..\obj\buffers.o
                0x08007118                xmp3fixpt_FreeBuffers
 .text.MULSHIFT32
                0x08007130       0x24 ..\obj\dct32.o
 .text.xmp3fixpt_FDCT32
                0x08007154     0x10b8 ..\obj\dct32.o
                0x08007154                xmp3fixpt_FDCT32
 .text.NVIC_EnableIRQ
                0x0800820c       0x38 ..\obj\Audio.o
 .text.NVIC_DisableIRQ
                0x08008244       0x3c ..\obj\Audio.o
 .text.NVIC_SetPriority
                0x08008280       0x5c ..\obj\Audio.o
 .text.InitializeAudio
                0x080082dc      0x408 ..\obj\Audio.o
                0x080082dc                InitializeAudio
 .text.SetAudioVolume
                0x080086e4       0x38 ..\obj\Audio.o
                0x080086e4                SetAudioVolume
 .text.PlayAudioWithCallback
                0x0800871c       0xa0 ..\obj\Audio.o
                0x0800871c                PlayAudioWithCallback
 .text.ProvideAudioBuffer
                0x080087bc       0x2c ..\obj\Audio.o
                0x080087bc                ProvideAudioBuffer
 .text.ProvideAudioBufferWithoutBlocking
                0x080087e8       0x70 ..\obj\Audio.o
                0x080087e8                ProvideAudioBufferWithoutBlocking
 .text.WriteRegister
                0x08008858       0xf4 ..\obj\Audio.o
 .text.StartAudioDMAAndRequestBuffers
                0x0800894c       0xe0 ..\obj\Audio.o
 .text.StopAudioDMA
                0x08008a2c       0x44 ..\obj\Audio.o
 .text.DMA1_Stream7_IRQHandler
                0x08008a70       0x40 ..\obj\Audio.o
                0x08008a70                DMA1_Stream7_IRQHandler
 .text.MADD64   0x08008ab0       0x38 ..\obj\polyphase.o
 .text.SAR64    0x08008ae8       0x50 ..\obj\polyphase.o
 .text.ClipToShort
                0x08008b38       0x48 ..\obj\polyphase.o
 .text.xmp3fixpt_PolyphaseMono
                0x08008b80      0x810 ..\obj\polyphase.o
                0x08008b80                xmp3fixpt_PolyphaseMono
 .text.xmp3fixpt_PolyphaseStereo
                0x08009390      0xdd0 ..\obj\polyphase.o
                0x08009390                xmp3fixpt_PolyphaseStereo
 .text.__libc_init_array
                0x0800a160       0x94 d:/program files (x86)/gnu tools arm embedded/4.7 2012q4/bin/../lib/gcc/arm-none-eabi/4.7.3/../../../../arm-none-eabi/lib/armv7e-m\libg.a(lib_a-init.o)
                0x0800a160                __libc_init_array
 .text.memcpy   0x0800a1f4      0x144 d:/program files (x86)/gnu tools arm embedded/4.7 2012q4/bin/../lib/gcc/arm-none-eabi/4.7.3/../../../../arm-none-eabi/lib/armv7e-m\libg.a(lib_a-memcpy.o)
                0x0800a1f4                memcpy
 .text.memmove  0x0800a338      0x198 d:/program files (x86)/gnu tools arm embedded/4.7 2012q4/bin/../lib/gcc/arm-none-eabi/4.7.3/../../../../arm-none-eabi/lib/armv7e-m\libg.a(lib_a-memmove.o)
                0x0800a338                memmove
 *(.init)
 *(.fini)
 *crtbegin.o(.ctors)
 *crtbegin?.o(.ctors)
 *(EXCLUDE_FILE(*crtend.o *crtend?.o) .ctors)
 *(SORT(.ctors.*))
 *(.ctors)
 *crtbegin.o(.dtors)
 *crtbegin?.o(.dtors)
 *(EXCLUDE_FILE(*crtend.o *crtend?.o) .dtors)
 *(SORT(.dtors.*))
 *(.dtors)
 *(.rodata*)
 .rodata        0x0800a4d0      0x250 ..\obj\dqchan.o
 .rodata        0x0800a720       0x68 ..\obj\scalfact.o
 .rodata        0x0800a788    0xa7cf4 ..\obj\mp3_data.o
                0x0800a788                mp3_data
 .rodata        0x080b247c     0x2304 ..\obj\hufftabs.o
                0x080b247c                xmp3fixpt_huffTable
                0x080b45a0                xmp3fixpt_huffTabOffset
                0x080b4620                xmp3fixpt_huffTabLookup
                0x080b4720                xmp3fixpt_quadTable
                0x080b4770                xmp3fixpt_quadTabOffset
                0x080b4778                xmp3fixpt_quadTabMaxBits
 .rodata        0x080b4780       0x90 ..\obj\imdct.o
 .rodata        0x080b4810      0x508 ..\obj\mp3tabs.o
                0x080b4810                xmp3fixpt_samplerateTab
                0x080b4834                xmp3fixpt_bitrateTab
                0x080b4944                xmp3fixpt_samplesPerFrameTab
                0x080b4958                xmp3fixpt_bitsPerSlotTab
                0x080b4960                xmp3fixpt_sideBytesTab
                0x080b496c                xmp3fixpt_slotTab
                0x080b4a7c                xmp3fixpt_sfBandTable
 .rodata        0x080b4d18      0x86c ..\obj\trigtabs_fixpt.o
                0x080b4d18                xmp3fixpt_imdctWin
                0x080b4f58                xmp3fixpt_ISFMpeg1
                0x080b4f90                xmp3fixpt_ISFMpeg2
                0x080b5090                xmp3fixpt_ISFIIP
                0x080b50a0                xmp3fixpt_uniqueIDTab
                0x080b50a8                xmp3fixpt_csa
                0x080b50e8                xmp3fixpt_coef32
                0x080b5164                xmp3fixpt_polyCoef
 .rodata        0x080b5584       0xc0 ..\obj\dct32.o
 *(.eh_fram e*)

.glue_7         0x080b5644        0x0
 .glue_7        0x00000000        0x0 linker stubs

.glue_7t        0x080b5644        0x0
 .glue_7t       0x00000000        0x0 linker stubs

.vfp11_veneer   0x080b5644        0x0
 .vfp11_veneer  0x00000000        0x0 linker stubs

.v4_bx          0x080b5644        0x0
 .v4_bx         0x00000000        0x0 linker stubs

.iplt           0x080b5644        0x0
 .iplt          0x00000000        0x0 ..\obj\stm32f4xx_syscfg.o

.rel.dyn        0x080b5644        0x0
 .rel.iplt      0x00000000        0x0 ..\obj\stm32f4xx_syscfg.o

.ARM.extab
 *(.ARM.extab* .gnu.linkonce.armextab.*)
                0x080b5644                __exidx_start = .

.ARM.exidx
 *(.ARM.exidx* .gnu.linkonce.armexidx.*)
                0x080b5644                __exidx_end = .
                0x080b5644                __etext = .
                0x080b5644                _sidata = __etext

.data           0x20000000       0x2c load address 0x080b5644
                0x20000000                __data_start__ = .
                0x20000000                _sdata = __data_start__
 *(vtable)
 *(.data*)
 .data          0x20000000        0x8 ..\obj\main.o
 .data          0x20000008       0x10 ..\obj\stm32f4xx_rcc.o
 .data          0x20000018       0x14 ..\obj\system_stm32f4xx.o
                0x20000018                SystemCoreClock
                0x2000001c                AHBPrescTable
                0x2000002c                . = ALIGN (0x4)
                0x2000002c                PROVIDE (__preinit_array_start, .)
 *(.preinit_array)
                0x2000002c                PROVIDE (__preinit_array_end, .)
                0x2000002c                . = ALIGN (0x4)
                0x2000002c                PROVIDE (__init_array_start, .)
 *(SORT(.init_array.*))
 *(.init_array)
                0x2000002c                PROVIDE (__init_array_end, .)
                0x2000002c                . = ALIGN (0x4)
                0x2000002c                PROVIDE (__fini_array_start, .)
 *(SORT(.fini_array.*))
 *(.fini_array)
                0x2000002c                PROVIDE (__fini_array_end, .)
 *(.jcr*)
                0x2000002c                . = ALIGN (0x4)
                0x2000002c                __data_end__ = .
                0x2000002c                _edata = __data_end__

.igot.plt       0x2000002c        0x0 load address 0x080b5670
 .igot.plt      0x00000000        0x0 ..\obj\stm32f4xx_syscfg.o

.bss            0x2000002c     0x9d48 load address 0x080b5670
                0x2000002c                . = ALIGN (0x4)
                0x2000002c                __bss_start__ = .
                0x2000002c                _sbss = __bss_start__
 *(.bss*)
 .bss           0x2000002c     0x4000 ..\obj\main.o
 .bss           0x2000402c     0x5d08 ..\obj\buffers.o
 .bss           0x20009d34       0x18 ..\obj\Audio.o
 *(COMMON)
 COMMON         0x20009d4c       0x28 ..\obj\main.o
                0x20009d4c                time_var1
                0x20009d50                hMP3Decoder
                0x20009d54                time_var2
                0x20009d58                mp3FrameInfo
                0x20009d74                . = ALIGN (0x4)
                0x20009d74                __bss_end__ = .
                0x20009d74                _ebss = __bss_end__

.heap           0x20009d74        0x0
                0x20009d74                __end__ = .
                0x20009d74                _end = __end__
                0x20009d74                end = __end__
 *(.heap*)
                0x20009d74                __HeapLimit = .

.co_stack       0x20009d74        0x4 load address 0x080bf3b8
                0x20009d78                . = ALIGN (0x8)
 *fill*         0x20009d74        0x4 00
 *(.co_stack .co_stack.*)
                0x20020000                __StackTop = (ORIGIN (ram) + 0x20000)
                0x2001fffc                __StackLimit = (__StackTop - SIZEOF (.co_stack))
                0x20020000                PROVIDE (__stack, __StackTop)
                0x00000001                ASSERT ((__StackLimit >= __HeapLimit), region ram  overflowed with stack)
LOAD ..\obj\stm32f4xx_syscfg.o
LOAD ..\obj\dqchan.o
LOAD ..\obj\scalfact.o
LOAD ..\obj\stm32f4xx_sdio.o
LOAD ..\obj\mp3_data.o
LOAD ..\obj\bitstream.o
LOAD ..\obj\dequant.o
LOAD ..\obj\hufftabs.o
LOAD ..\obj\stm32f4xx_hash.o
LOAD ..\obj\stm32f4xx_cryp_aes.o
LOAD ..\obj\imdct.o
LOAD ..\obj\stm32f4xx_hash_sha1.o
LOAD ..\obj\stm32f4xx_usart.o
LOAD ..\obj\stm32f4xx_pwr.o
LOAD ..\obj\stm32f4xx_can.o
LOAD ..\obj\mp3tabs.o
LOAD ..\obj\stm32f4xx_wwdg.o
LOAD ..\obj\stm32f4xx_hash_md5.o
LOAD ..\obj\stm32f4xx_dac.o
LOAD ..\obj\subband.o
LOAD ..\obj\startup_stm32f4xx.o
LOAD ..\obj\stm32f4xx_crc.o
LOAD ..\obj\stm32f4xx_iwdg.o
LOAD ..\obj\mp3dec.o
LOAD ..\obj\main.o
LOAD ..\obj\stm32f4xx_rcc.o
LOAD ..\obj\utils.o
LOAD ..\obj\stm32f4xx_it.o
LOAD ..\obj\stm32f4xx_adc.o
LOAD ..\obj\stm32f4xx_dcmi.o
LOAD ..\obj\stm32f4xx_cryp_des.o
LOAD ..\obj\stm32f4xx_cryp.o
LOAD ..\obj\stm32f4xx_fsmc.o
LOAD ..\obj\stm32f4xx_gpio.o
LOAD ..\obj\stm32f4xx_flash.o
LOAD ..\obj\system_stm32f4xx.o
LOAD ..\obj\syscalls.o
LOAD ..\obj\stm32f4xx_dma.o
LOAD ..\obj\stproc.o
LOAD ..\obj\huffman.o
LOAD ..\obj\trigtabs_fixpt.o
LOAD ..\obj\buffers.o
LOAD ..\obj\stm32f4xx_spi.o
LOAD ..\obj\dct32.o
LOAD ..\obj\stm32f4xx_i2c.o
LOAD ..\obj\stm32f4xx_rng.o
LOAD ..\obj\stm32f4xx_exti.o
LOAD ..\obj\misc.o
LOAD ..\obj\Audio.o
LOAD ..\obj\polyphase.o
LOAD ..\obj\stm32f4xx_rtc.o
LOAD ..\obj\stm32f4xx_cryp_tdes.o
LOAD ..\obj\stm32f4xx_tim.o
LOAD ..\obj\stm32f4xx_dbgmcu.o
START GROUP
LOAD d:/program files (x86)/gnu tools arm embedded/4.7 2012q4/bin/../lib/gcc/arm-none-eabi/4.7.3/armv7e-m\libgcc.a
LOAD d:/program files (x86)/gnu tools arm embedded/4.7 2012q4/bin/../lib/gcc/arm-none-eabi/4.7.3/../../../../arm-none-eabi/lib/armv7e-m\libg.a
LOAD d:/program files (x86)/gnu tools arm embedded/4.7 2012q4/bin/../lib/gcc/arm-none-eabi/4.7.3/../../../../arm-none-eabi/lib/armv7e-m\libc.a
END GROUP
OUTPUT(umcumc.elf elf32-littlearm)

.debug_info     0x00000000     0xab8d
 .debug_info    0x00000000      0x7a4 ..\obj\dqchan.o
 .debug_info    0x000007a4      0x94e ..\obj\scalfact.o
 .debug_info    0x000010f2       0x52 ..\obj\mp3_data.o
 .debug_info    0x00001144      0x8ae ..\obj\bitstream.o
 .debug_info    0x000019f2      0x808 ..\obj\dequant.o
 .debug_info    0x000021fa      0x1c4 ..\obj\hufftabs.o
 .debug_info    0x000023be     0x1332 ..\obj\imdct.o
 .debug_info    0x000036f0      0xa65 ..\obj\stm32f4xx_usart.o
 .debug_info    0x00004155      0x1dc ..\obj\mp3tabs.o
 .debug_info    0x00004331      0x41d ..\obj\subband.o
 .debug_info    0x0000474e       0x83 ..\obj\startup_stm32f4xx.o
 .debug_info    0x000047d1      0x663 ..\obj\mp3dec.o
 .debug_info    0x00004e34      0xce2 ..\obj\main.o
 .debug_info    0x00005b16      0xd49 ..\obj\stm32f4xx_rcc.o
 .debug_info    0x0000685f      0x157 ..\obj\stm32f4xx_it.o
 .debug_info    0x000069b6      0x643 ..\obj\stm32f4xx_gpio.o
 .debug_info    0x00006ff9      0x5f5 ..\obj\system_stm32f4xx.o
 .debug_info    0x000075ee      0x844 ..\obj\stproc.o
 .debug_info    0x00007e32      0xb36 ..\obj\huffman.o
 .debug_info    0x00008968      0x1cc ..\obj\trigtabs_fixpt.o
 .debug_info    0x00008b34      0x98a ..\obj\buffers.o
 .debug_info    0x000094be      0x2da ..\obj\dct32.o
 .debug_info    0x00009798     0x1070 ..\obj\Audio.o
 .debug_info    0x0000a808      0x385 ..\obj\polyphase.o

.debug_abbrev   0x00000000     0x1e71
 .debug_abbrev  0x00000000      0x16d ..\obj\dqchan.o
 .debug_abbrev  0x0000016d      0x167 ..\obj\scalfact.o
 .debug_abbrev  0x000002d4       0x43 ..\obj\mp3_data.o
 .debug_abbrev  0x00000317      0x1ca ..\obj\bitstream.o
 .debug_abbrev  0x000004e1      0x158 ..\obj\dequant.o
 .debug_abbrev  0x00000639       0xab ..\obj\hufftabs.o
 .debug_abbrev  0x000006e4      0x20c ..\obj\imdct.o
 .debug_abbrev  0x000008f0      0x157 ..\obj\stm32f4xx_usart.o
 .debug_abbrev  0x00000a47       0x79 ..\obj\mp3tabs.o
 .debug_abbrev  0x00000ac0      0x104 ..\obj\subband.o
 .debug_abbrev  0x00000bc4       0x12 ..\obj\startup_stm32f4xx.o
 .debug_abbrev  0x00000bd6      0x1e0 ..\obj\mp3dec.o
 .debug_abbrev  0x00000db6      0x236 ..\obj\main.o
 .debug_abbrev  0x00000fec      0x1e5 ..\obj\stm32f4xx_rcc.o
 .debug_abbrev  0x000011d1       0x7f ..\obj\stm32f4xx_it.o
 .debug_abbrev  0x00001250      0x1a5 ..\obj\stm32f4xx_gpio.o
 .debug_abbrev  0x000013f5      0x138 ..\obj\system_stm32f4xx.o
 .debug_abbrev  0x0000152d      0x151 ..\obj\stproc.o
 .debug_abbrev  0x0000167e      0x1a8 ..\obj\huffman.o
 .debug_abbrev  0x00001826       0x68 ..\obj\trigtabs_fixpt.o
 .debug_abbrev  0x0000188e      0x15d ..\obj\buffers.o
 .debug_abbrev  0x000019eb       0xee ..\obj\dct32.o
 .debug_abbrev  0x00001ad9      0x23d ..\obj\Audio.o
 .debug_abbrev  0x00001d16      0x15b ..\obj\polyphase.o

.debug_loc      0x00000000     0x2658
 .debug_loc     0x00000000       0xe4 ..\obj\dqchan.o
 .debug_loc     0x000000e4       0xac ..\obj\scalfact.o
 .debug_loc     0x00000190      0x18a ..\obj\bitstream.o
 .debug_loc     0x0000031a       0x72 ..\obj\dequant.o
 .debug_loc     0x0000038c      0x2ae ..\obj\imdct.o
 .debug_loc     0x0000063a      0x658 ..\obj\stm32f4xx_usart.o
 .debug_loc     0x00000c92       0x38 ..\obj\subband.o
 .debug_loc     0x00000cca      0x1c2 ..\obj\mp3dec.o
 .debug_loc     0x00000e8c      0x1a8 ..\obj\main.o
 .debug_loc     0x00001034      0x97c ..\obj\stm32f4xx_rcc.o
 .debug_loc     0x000019b0      0x18c ..\obj\stm32f4xx_it.o
 .debug_loc     0x00001b3c      0x310 ..\obj\stm32f4xx_gpio.o
 .debug_loc     0x00001e4c       0x9c ..\obj\system_stm32f4xx.o
 .debug_loc     0x00001ee8      0x11c ..\obj\stproc.o
 .debug_loc     0x00002004       0xae ..\obj\huffman.o
 .debug_loc     0x000020b2       0xa8 ..\obj\buffers.o
 .debug_loc     0x0000215a       0x72 ..\obj\dct32.o
 .debug_loc     0x000021cc      0x370 ..\obj\Audio.o
 .debug_loc     0x0000253c      0x11c ..\obj\polyphase.o

.debug_aranges  0x00000000      0x7e8
 .debug_aranges
                0x00000000       0x38 ..\obj\dqchan.o
 .debug_aranges
                0x00000038       0x30 ..\obj\scalfact.o
 .debug_aranges
                0x00000068       0x18 ..\obj\mp3_data.o
 .debug_aranges
                0x00000080       0x50 ..\obj\bitstream.o
 .debug_aranges
                0x000000d0       0x28 ..\obj\dequant.o
 .debug_aranges
                0x000000f8       0x18 ..\obj\hufftabs.o
 .debug_aranges
                0x00000110       0x78 ..\obj\imdct.o
 .debug_aranges
                0x00000188      0x100 ..\obj\stm32f4xx_usart.o
 .debug_aranges
                0x00000288       0x18 ..\obj\mp3tabs.o
 .debug_aranges
                0x000002a0       0x20 ..\obj\subband.o
 .debug_aranges
                0x000002c0       0x28 ..\obj\startup_stm32f4xx.o
 .debug_aranges
                0x000002e8       0x58 ..\obj\mp3dec.o
 .debug_aranges
                0x00000340       0x58 ..\obj\main.o
 .debug_aranges
                0x00000398      0x178 ..\obj\stm32f4xx_rcc.o
 .debug_aranges
                0x00000510       0x60 ..\obj\stm32f4xx_it.o
 .debug_aranges
                0x00000570       0x88 ..\obj\stm32f4xx_gpio.o
 .debug_aranges
                0x000005f8       0x30 ..\obj\system_stm32f4xx.o
 .debug_aranges
                0x00000628       0x40 ..\obj\stproc.o
 .debug_aranges
                0x00000668       0x30 ..\obj\huffman.o
 .debug_aranges
                0x00000698       0x18 ..\obj\trigtabs_fixpt.o
 .debug_aranges
                0x000006b0       0x30 ..\obj\buffers.o
 .debug_aranges
                0x000006e0       0x28 ..\obj\dct32.o
 .debug_aranges
                0x00000708       0xa0 ..\obj\Audio.o
 .debug_aranges
                0x000007a8       0x40 ..\obj\polyphase.o

.debug_ranges   0x00000000      0x650
 .debug_ranges  0x00000000       0x28 ..\obj\dqchan.o
 .debug_ranges  0x00000028       0x20 ..\obj\scalfact.o
 .debug_ranges  0x00000048       0x40 ..\obj\bitstream.o
 .debug_ranges  0x00000088       0x18 ..\obj\dequant.o
 .debug_ranges  0x000000a0       0x68 ..\obj\imdct.o
 .debug_ranges  0x00000108       0xf0 ..\obj\stm32f4xx_usart.o
 .debug_ranges  0x000001f8       0x10 ..\obj\subband.o
 .debug_ranges  0x00000208       0x20 ..\obj\startup_stm32f4xx.o
 .debug_ranges  0x00000228       0x48 ..\obj\mp3dec.o
 .debug_ranges  0x00000270       0x48 ..\obj\main.o
 .debug_ranges  0x000002b8      0x168 ..\obj\stm32f4xx_rcc.o
 .debug_ranges  0x00000420       0x50 ..\obj\stm32f4xx_it.o
 .debug_ranges  0x00000470       0x78 ..\obj\stm32f4xx_gpio.o
 .debug_ranges  0x000004e8       0x20 ..\obj\system_stm32f4xx.o
 .debug_ranges  0x00000508       0x30 ..\obj\stproc.o
 .debug_ranges  0x00000538       0x20 ..\obj\huffman.o
 .debug_ranges  0x00000558       0x20 ..\obj\buffers.o
 .debug_ranges  0x00000578       0x18 ..\obj\dct32.o
 .debug_ranges  0x00000590       0x90 ..\obj\Audio.o
 .debug_ranges  0x00000620       0x30 ..\obj\polyphase.o

.debug_line     0x00000000     0x37c9
 .debug_line    0x00000000      0x26a ..\obj\dqchan.o
 .debug_line    0x0000026a      0x2d5 ..\obj\scalfact.o
 .debug_line    0x0000053f       0x4a ..\obj\mp3_data.o
 .debug_line    0x00000589      0x323 ..\obj\bitstream.o
 .debug_line    0x000008ac      0x171 ..\obj\dequant.o
 .debug_line    0x00000a1d       0x5c ..\obj\hufftabs.o
 .debug_line    0x00000a79      0x650 ..\obj\imdct.o
 .debug_line    0x000010c9      0x44c ..\obj\stm32f4xx_usart.o
 .debug_line    0x00001515       0x7f ..\obj\mp3tabs.o
 .debug_line    0x00001594      0x110 ..\obj\subband.o
 .debug_line    0x000016a4       0x8f ..\obj\startup_stm32f4xx.o
 .debug_line    0x00001733      0x205 ..\obj\mp3dec.o
 .debug_line    0x00001938      0x2e2 ..\obj\main.o
 .debug_line    0x00001c1a      0x543 ..\obj\stm32f4xx_rcc.o
 .debug_line    0x0000215d      0x1b3 ..\obj\stm32f4xx_it.o
 .debug_line    0x00002310      0x2e7 ..\obj\stm32f4xx_gpio.o
 .debug_line    0x000025f7      0x1c5 ..\obj\system_stm32f4xx.o
 .debug_line    0x000027bc      0x2db ..\obj\stproc.o
 .debug_line    0x00002a97      0x2d5 ..\obj\huffman.o
 .debug_line    0x00002d6c       0x57 ..\obj\trigtabs_fixpt.o
 .debug_line    0x00002dc3      0x114 ..\obj\buffers.o
 .debug_line    0x00002ed7      0x2e0 ..\obj\dct32.o
 .debug_line    0x000031b7      0x3c7 ..\obj\Audio.o
 .debug_line    0x0000357e      0x24b ..\obj\polyphase.o

.debug_str      0x00000000     0x2b95
 .debug_str     0x00000000      0x383 ..\obj\dqchan.o
                                0x41d (size before relaxing)
 .debug_str     0x00000383      0x24c ..\obj\scalfact.o
                                0x531 (size before relaxing)
 .debug_str     0x000005cf       0x33 ..\obj\mp3_data.o
                                 0x8a (size before relaxing)
 .debug_str     0x00000602      0x17d ..\obj\bitstream.o
                                0x57a (size before relaxing)
 .debug_str     0x0000077f       0x6f ..\obj\dequant.o
                                0x4f3 (size before relaxing)
 .debug_str     0x000007ee      0x126 ..\obj\hufftabs.o
                                0x21b (size before relaxing)
 .debug_str     0x00000914      0x1fe ..\obj\imdct.o
                                0x5fe (size before relaxing)
 .debug_str     0x00000b12      0x525 ..\obj\stm32f4xx_usart.o
                                0x628 (size before relaxing)
 .debug_str     0x00001037       0x44 ..\obj\mp3tabs.o
                                0x1bc (size before relaxing)
 .debug_str     0x0000107b       0x75 ..\obj\subband.o
                                0x308 (size before relaxing)
 .debug_str     0x000010f0      0x2bc ..\obj\mp3dec.o
                                0x512 (size before relaxing)
 .debug_str     0x000013ac      0x891 ..\obj\main.o
                                0xc6b (size before relaxing)
 .debug_str     0x00001c3d      0x5d9 ..\obj\stm32f4xx_rcc.o
                                0x7e9 (size before relaxing)
 .debug_str     0x00002216       0xbe ..\obj\stm32f4xx_it.o
                                0x1a9 (size before relaxing)
 .debug_str     0x000022d4      0x199 ..\obj\stm32f4xx_gpio.o
                                0x43c (size before relaxing)
 .debug_str     0x0000246d       0xa0 ..\obj\system_stm32f4xx.o
                                0x339 (size before relaxing)
 .debug_str     0x0000250d       0xed ..\obj\stproc.o
                                0x368 (size before relaxing)
 .debug_str     0x000025fa       0xcc ..\obj\huffman.o
                                0x65e (size before relaxing)
 .debug_str     0x000026c6       0x5e ..\obj\trigtabs_fixpt.o
                                0x1a4 (size before relaxing)
 .debug_str     0x00002724       0xa3 ..\obj\buffers.o
                                0x5b0 (size before relaxing)
 .debug_str     0x000027c7       0x59 ..\obj\dct32.o
                                0x150 (size before relaxing)
 .debug_str     0x00002820      0x2ab ..\obj\Audio.o
                                0xc3b (size before relaxing)
 .debug_str     0x00002acb       0xca ..\obj\polyphase.o
                                0x1b4 (size before relaxing)

.comment        0x00000000       0x70
 .comment       0x00000000       0x70 ..\obj\dqchan.o
                                 0x71 (size before relaxing)
 .comment       0x00000000       0x71 ..\obj\scalfact.o
 .comment       0x00000000       0x71 ..\obj\mp3_data.o
 .comment       0x00000000       0x71 ..\obj\bitstream.o
 .comment       0x00000000       0x71 ..\obj\dequant.o
 .comment       0x00000000       0x71 ..\obj\hufftabs.o
 .comment       0x00000000       0x71 ..\obj\imdct.o
 .comment       0x00000000       0x71 ..\obj\stm32f4xx_usart.o
 .comment       0x00000000       0x71 ..\obj\mp3tabs.o
 .comment       0x00000000       0x71 ..\obj\subband.o
 .comment       0x00000000       0x71 ..\obj\mp3dec.o
 .comment       0x00000000       0x71 ..\obj\main.o
 .comment       0x00000000       0x71 ..\obj\stm32f4xx_rcc.o
 .comment       0x00000000       0x71 ..\obj\stm32f4xx_it.o
 .comment       0x00000000       0x71 ..\obj\stm32f4xx_gpio.o
 .comment       0x00000000       0x71 ..\obj\system_stm32f4xx.o
 .comment       0x00000000       0x71 ..\obj\stproc.o
 .comment       0x00000000       0x71 ..\obj\huffman.o
 .comment       0x00000000       0x71 ..\obj\trigtabs_fixpt.o
 .comment       0x00000000       0x71 ..\obj\buffers.o
 .comment       0x00000000       0x71 ..\obj\dct32.o
 .comment       0x00000000       0x71 ..\obj\Audio.o
 .comment       0x00000000       0x71 ..\obj\polyphase.o

.ARM.attributes
                0x00000000       0x31
 .ARM.attributes
                0x00000000       0x33 ..\obj\dqchan.o
 .ARM.attributes
                0x00000033       0x33 ..\obj\scalfact.o
 .ARM.attributes
                0x00000066       0x33 ..\obj\mp3_data.o
 .ARM.attributes
                0x00000099       0x33 ..\obj\bitstream.o
 .ARM.attributes
                0x000000cc       0x33 ..\obj\dequant.o
 .ARM.attributes
                0x000000ff       0x33 ..\obj\hufftabs.o
 .ARM.attributes
                0x00000132       0x33 ..\obj\imdct.o
 .ARM.attributes
                0x00000165       0x33 ..\obj\stm32f4xx_usart.o
 .ARM.attributes
                0x00000198       0x33 ..\obj\mp3tabs.o
 .ARM.attributes
                0x000001cb       0x33 ..\obj\subband.o
 .ARM.attributes
                0x000001fe       0x21 ..\obj\startup_stm32f4xx.o
 .ARM.attributes
                0x0000021f       0x33 ..\obj\mp3dec.o
 .ARM.attributes
                0x00000252       0x33 ..\obj\main.o
 .ARM.attributes
                0x00000285       0x33 ..\obj\stm32f4xx_rcc.o
 .ARM.attributes
                0x000002b8       0x33 ..\obj\stm32f4xx_it.o
 .ARM.attributes
                0x000002eb       0x33 ..\obj\stm32f4xx_gpio.o
 .ARM.attributes
                0x0000031e       0x33 ..\obj\system_stm32f4xx.o
 .ARM.attributes
                0x00000351       0x33 ..\obj\stproc.o
 .ARM.attributes
                0x00000384       0x33 ..\obj\huffman.o
 .ARM.attributes
                0x000003b7       0x33 ..\obj\trigtabs_fixpt.o
 .ARM.attributes
                0x000003ea       0x33 ..\obj\buffers.o
 .ARM.attributes
                0x0000041d       0x33 ..\obj\dct32.o
 .ARM.attributes
                0x00000450       0x33 ..\obj\Audio.o
 .ARM.attributes
                0x00000483       0x33 ..\obj\polyphase.o
 .ARM.attributes
                0x000004b6       0x2e d:/program files (x86)/gnu tools arm embedded/4.7 2012q4/bin/../lib/gcc/arm-none-eabi/4.7.3/../../../../arm-none-eabi/lib/armv7e-m\libg.a(lib_a-init.o)
 .ARM.attributes
                0x000004e4       0x2e d:/program files (x86)/gnu tools arm embedded/4.7 2012q4/bin/../lib/gcc/arm-none-eabi/4.7.3/../../../../arm-none-eabi/lib/armv7e-m\libg.a(lib_a-memcpy.o)
 .ARM.attributes
                0x00000512       0x2e d:/program files (x86)/gnu tools arm embedded/4.7 2012q4/bin/../lib/gcc/arm-none-eabi/4.7.3/../../../../arm-none-eabi/lib/armv7e-m\libg.a(lib_a-memmove.o)

.debug_frame    0x00000000     0x1614
 .debug_frame   0x00000000       0x90 ..\obj\dqchan.o
 .debug_frame   0x00000090       0x74 ..\obj\scalfact.o
 .debug_frame   0x00000104       0xe0 ..\obj\bitstream.o
 .debug_frame   0x000001e4       0x54 ..\obj\dequant.o
 .debug_frame   0x00000238      0x19c ..\obj\imdct.o
 .debug_frame   0x000003d4      0x344 ..\obj\stm32f4xx_usart.o
 .debug_frame   0x00000718       0x30 ..\obj\subband.o
 .debug_frame   0x00000748      0x108 ..\obj\mp3dec.o
 .debug_frame   0x00000850       0xf8 ..\obj\main.o
 .debug_frame   0x00000948      0x4d8 ..\obj\stm32f4xx_rcc.o
 .debug_frame   0x00000e20       0xec ..\obj\stm32f4xx_it.o
 .debug_frame   0x00000f0c      0x19c ..\obj\stm32f4xx_gpio.o
 .debug_frame   0x000010a8       0x64 ..\obj\system_stm32f4xx.o
 .debug_frame   0x0000110c       0xac ..\obj\stproc.o
 .debug_frame   0x000011b8       0x6c ..\obj\huffman.o
 .debug_frame   0x00001224       0x68 ..\obj\buffers.o
 .debug_frame   0x0000128c       0x50 ..\obj\dct32.o
 .debug_frame   0x000012dc      0x1fc ..\obj\Audio.o
 .debug_frame   0x000014d8       0xac ..\obj\polyphase.o
 .debug_frame   0x00001584       0x30 d:/program files (x86)/gnu tools arm embedded/4.7 2012q4/bin/../lib/gcc/arm-none-eabi/4.7.3/../../../../arm-none-eabi/lib/armv7e-m\libg.a(lib_a-init.o)
 .debug_frame   0x000015b4       0x30 d:/program files (x86)/gnu tools arm embedded/4.7 2012q4/bin/../lib/gcc/arm-none-eabi/4.7.3/../../../../arm-none-eabi/lib/armv7e-m\libg.a(lib_a-memcpy.o)
 .debug_frame   0x000015e4       0x30 d:/program files (x86)/gnu tools arm embedded/4.7 2012q4/bin/../lib/gcc/arm-none-eabi/4.7.3/../../../../arm-none-eabi/lib/armv7e-m\libg.a(lib_a-memmove.o)
