:020000040800F2
:100000008012002075050008E1050008E1050008E0
:10001000E1050008E1050008E10500080000000016
:10002000000000000000000000000000E1050008E2
:10003000E105000800000000E10500088D08000847
:10004000E1050008E1050008E1050008E1050008F8
:10005000E1050008E10500084D330008E10500084E
:10006000E1050008E1050008E1050008E1050008D8
:10007000E1050008E1050008E1050008E1050008C8
:10008000E1050008E1050008E1050008E1050008B8
:10009000E1050008E1050008E1050008E1050008A8
:1000A000E1050008E1050008E1050008E105000898
:1000B000E1050008E1050008E1050008E105000888
:1000C000E1050008E1050008E1050008E105000878
:1000D000E1050008E1050008AD3B0008E105000866
:1000E000E1050008E1050008E1050008E105000858
:1000F000E1050008E1050008E1050008E105000848
:10010000E1050008E1050008E1050008E105000837
:10011000E5460008E1050008E1050008BD390008D2
:10012000E1050008E1050008E1050008E105000817
:10013000E1050008E1050008E1050008E105000807
:10014000E1050008E1050008E1050008E1050008F7
:10015000E1050008E1050008E1050008E1050008E7
:10016000E1050008E1050008E1050008E1050008D7
:10017000E1050008E1050008E1050008E1050008C7
:10018000E1050008E105000890B484B000AF024624
:100190000B46FA71BB710023FB60BB7903F00303CC
:1001A0009B000F2202FA03F3FB60154BBA79920809
:1001B000D2B21349B8798008C0B2023051F8200099
:1001C000F968C9430140023243F822100C4BBA7956
:1001D0009208D2B20A49B8798008C0B2023051F808
:1001E0002000FC79B97901F00301890004FA01F1DA
:1001F0000143023243F822101037BD4690BC7047CD
:100200000038014080B58AB000AF786039600023C3
:100210007B6200233B620023FB610023BB617B68A0
:100220001B8A9BB27B627B6A23F440537B623B68F0
:10023000DB887A6A13437B627B6A9AB27B681A8294
:100240007B689B899BB27B627B6A23F4B05323F06B
:100250000C037B623B689A883B681B8913439AB204
:100260003B685B8913439BB27A6A13437B627B6A68
:100270009AB27B689A817B689B8A9BB27B627B6A1D
:1002800023F440737B623B689B897A6A13437B62E9
:100290007B6A9AB27B689A8207F10803184604F0D9
:1002A000BDFE7A68314B9A4203D07A68304B9A424D
:1002B00002D17B693B6201E03B693B627B689B89C1
:1002C0009BB29BB21BB2002B0CDA3A6A13469B001E
:1002D00013449A001A443B681B685B00B2FBF3F3BB
:1002E000FB610BE03A6A13469B0013449A001A44E0
:1002F0003B681B689B00B2FBF3F3FB61FA691D4B83
:10030000A3FB02135B091B017B627B6A1B0964224E
:1003100002FB03F3FA69D31ABB617B689B899BB22A
:100320009BB21BB2002B0DDABB69DB0003F132027A
:10033000104BA3FB02135B0903F007037A6A134314
:100340007B620CE0BB691B0103F13202094BA3FB8A
:1003500002135B0903F00F037A6A13437B627B6A23
:100360009AB27B681A812837BD4680BD00100140D3
:10037000001401401F85EB5180B483B000AF78605A
:100380000B46FB70FB78002B08D07B689B899BB2E7
:1003900043F400539AB27B689A8107E07B689B899B
:1003A0009BB223F400539AB27B689A810C37BD4606
:1003B0005DF8047B704700BF80B483B000AF786005
:1003C0000B467B807B88C3F308039AB27B689A80D4
:1003D0000C37BD465DF8047B704700BF80B483B026
:1003E00000AF78607B689B889BB2C3F308039BB225
:1003F00018460C37BD465DF8047B704780B487B063
:1004000000AF786013460A467A807B7000233B6118
:100410000023FB600023BB6000237B617B687B6162
:100420007B88DBB25B09DBB23B617B8803F01F0397
:10043000FB60FB68012202FA03F3BB603B69012BFE
:1004400003D17B690C337B6109E03B69022B03D14B
:100450007B6910337B6102E07B6914337B617B78BD
:10046000002B06D07B697A691168BA680A431A6062
:1004700006E07B697A691168BA68D2430A401A605B
:100480001C37BD465DF8047B704700BF80B485B063
:1004900000AF78600B467B800023FB737B681B8872
:1004A0009AB27B8813409BB2002B02D00123FB73CE
:1004B00001E00023FB73FB7B18461437BD465DF853
:1004C000047B704780B487B000AF78600B467B80B8
:1004D0000023FB6000237B610023BB600023FB74CF
:1004E0007B88DBB25B09DBB2BB607B8803F01F0358
:1004F0007B617B69012202FA03F37B61BB68012BFC
:1005000006D17B689B899BB27A6913407B610FE0BF
:10051000BB68022B06D17B681B8A9BB27A691340A9
:100520007B6105E07B689B8A9BB27A6913407B61A3
:100530007B881B0A9BB2FB60FB68012202FA03F373
:10054000FB607B681B889BB2FA681340FB607B6989
:10055000002B05D0FB68002B02D00123FB7401E0C7
:100560000023FB74FB7C18461C37BD465DF8047BFA
:10057000704700BF80B582B000AF134B7B60134B58
:100580003B6007E03B681A1D3A607A68111D79608C
:1005900012681A603A680E4B9A42F3D30D480E491E
:1005A0004FF000028842B8BF40F8042BFFF6FAAFC4
:1005B000DFF82800016841F47001016004F094FB49
:1005C0000837BD4680BD00BF6CA6000800000020B3
:1005D000DC080020DC0800207C0A002088ED00E018
:1005E00080B400AFFEE700BF80B483B000AF034625
:1005F0003960FB7197F90730002B0BDA0D49FB7955
:1006000003F00F03043B3A68D2B21201D2B20B449A
:100610001A7609E0084997F907303A68D2B2120110
:10062000D2B20B4483F800230C37BD465DF8047B3F
:10063000704700BF00ED00E000E100E080B584B04D
:1006400000AF786039603B68B3F1807F01D301234C
:100650001FE0124B3A6822F07F42013A5A604FF095
:10066000FF300021FFF7C0FF0C4B00229A600323EC
:10067000FB607B68042B04D1FB6843F00403FB6040
:1006800003E0FB6863F00403FB60044BFA681A6044
:10069000002318461037BD4680BD00BF10E000E0C3
:1006A00080B582B000AF0420012104F061FD002379
:1006B0003B710023BB7120233B600223FB710323AA
:1006C0007B713B460848194605F07AFB6FF0040041
:1006D0004FF42871FFF7B2FF0346002B00D0FEE76E
:1006E0000837BD4680BD00BF0008024080B584B019
:1006F00000AF634B00221A80624B00221A8013E085
:100700005F4B1B889BB20F2B04D94FF0FF33BB60AC
:10071000BB68B0E05C48202105F0E0FB0346002BFD
:1007200002D1584B00221A80564B1B889BB26D2B6E
:10073000E6D909E0524B1B889BB20F2B04D96FF00E
:100740000103BB60BB6896E04F48202105F0C6FB63
:100750000346002BEED14B4B00221A8009E0494B97
:100760001B889BB2222B04D96FF00203BB60BB68CD
:1007700081E04548202105F0B1FB0346002BEED077
:10078000404B1B889BB2FB713E4B00221A80FB79C9
:100790005B08DAB2FB791344BB71FB795B00DAB218
:1007A000FB795B08DBB213447B710BE0BB799AB237
:1007B000344B1B889BB29A4204D26FF00303BB6098
:1007C000BB6858E03048202105F088FB0346002B29
:1007D000ECD12C4B00221A800023FB730023BB605A
:1007E00045E000BFBB799AB2264B1B889BB29A4268
:1007F000F8D82548202105F071FB0346002B17D1BE
:10080000BB685B00BB600BE07B799AB21D4B1B8819
:100810009BB29A4204D26FF00403BB60BB682AE02B
:100820001948202105F05AFB0346002BECD018E0B4
:10083000BB685B0043F00103BB600BE07B799AB2BD
:10084000104B1B889BB29A4204D26FF00503BB6029
:10085000BB6810E00C48202105F040FB0346002B4C
:10086000ECD1084B00221A80FB7B0133FB73FB7B2E
:100870000B2BB6D9BB6818461037BD4680BD00BFEC
:10088000DE080020DC0800200008024080B400AF31
:100890000E4B1B889BB201339AB20C4B1A800C4B47
:1008A0001B78DBB20133DAB2094B1A70084B1B78A4
:1008B000DBB2002B06D1074B1B889BB201339AB2E7
:1008C000044B1A80BD465DF8047B7047DC080020AD
:1008D00004090020DE080020B0B594B000AF5E4BE4
:1008E0003C1D1D460FCD0FC40FCD0FC495E80F0062
:1008F00084E80F000C23BB630023FB640023BB646C
:1009000003237B6405F050F800233B641DE03B6C3F
:10091000DBB20020194604F0A3FF3A6CBB6C1A440A
:10092000FB6C9A4202D14D4804F086FFBA6C3B6CD6
:1009300013449B0007F15002134453F84C3C1846F3
:1009400004F07AFF3B6C01333B643B6C032BDEDD30
:1009500000BFFFF7CBFE03467B637B6B002BF8DB0E
:100960007B6B23F400637B637B6B0C2B02D14FF01A
:10097000FF336CE07B6B3B2B01D1FB6C67E07B6B47
:10098000012B06DD7A6BBB6B9A4202DC7B6B013B71
:100990005DE07B6B212B17D1FB6C0133FB64FA6CA0
:1009A000BB6B9A4205DB0023FB640023BB6403237B
:1009B0007B64FA6C7B6C9A4222DD7B6C01337B6436
:1009C000BB6C0133BB641BE07B6B202B18D1FB6C31
:1009D000013BFB64FB6C002B08DABB6B013BFB6447
:1009E000BB6B043BBB64BB6B013B7B64FA6CBB6CB5
:1009F0009A4205DABB6C013BBB647B6C01337B64C0
:100A000004F0D2FF0023FB631DE0FB6BDBB2002090
:100A1000194604F025FFFA6BBB6C1A44FB6C9A4232
:100A200002D10E4804F008FFBA6CFB6B13449B0024
:100A300007F15002134453F84C3C184604F0FCFEF6
:100A4000FB6B0133FB63FB6B032BDEDD80E718469A
:100A50005037BD46B0BD00BFD49F0008749F00084A
:100A600080B483B000AF87ED010A084B97ED017A9F
:100A7000DFED077A67EE277AFDEEE77A17EE902A28
:100A80001A640C37BD465DF8047B704700040040D3
:100A900000401C4680B483B000AF0346FB80044B8B
:100AA000FA881A640C37BD465DF8047B704700BFB6
:100AB0000004004080B483B000AF0346FB80054BC8
:100AC000044A116CFA880A441A640C37BD465DF872
:100AD000047B70470004004080B58AB000AF02205C
:100AE000012104F063FB0220012104F041FB0223F9
:100AF0003B62022387F82430032387F82530002344
:100B000087F82630012387F8273007F12003204893
:100B1000194605F055F90023BB830023FB8242F2FE
:100B20001073BB6140F24F13BB820023BB7707F108
:100B300014031848194605F0C1FB60233B800023CD
:100B4000BB6001237B800023BB810023FB814FF42A
:100B500080733B8200237B823B460E48194605F09A
:100B6000BFFD0C48082105F077FE0948012102224B
:100B700005F014FA0748012105F00AFC0548012197
:100B800005F088FE0020FFF785FF2837BD4680BDB1
:100B9000000402400004004090B583B000AF03465B
:100BA00087ED000AFB71FB79062B00F2AD8001A2F4
:100BB00052F823F0D10B0008FD0B0008290C0008A7
:100BC000550C0008810C0008AD0C0008DB0C000877
:100BD0004F4C386808F0D2F902460B4610461946C9
:100BE0004FF000024B4B08F01DFA02460B46104630
:100BF000194608F0D9FC0346636386E0444C386824
:100C000008F0BCF902460B46104619464FF00002A8
:100C1000404B08F007FA02460B461046194608F00A
:100C2000C3FC0346A36370E0394C386808F0A6F9AA
:100C300002460B46104619464FF00002354B08F0AD
:100C4000F1F902460B461046194608F0ADFC034682
:100C5000E3635AE0304C386808F090F902460B46DE
:100C6000104619464FF000022A4B08F0DBF9024605
:100C70000B461046194608F097FC0346A36344E070
:100C8000264C386808F07AF902460B461046194699
:100C90004FF000021F4B08F0C5F902460B46104604
:100CA000194608F081FC034663632EE04FF0804450
:100CB000386808F063F902460B46104619464FF0B3
:100CC0000002144B08F0AEF902460B4610461946D6
:100CD00008F06AFC0346236417E04FF0804438684C
:100CE00008F04CF902460B46104619464FF0000238
:100CF000084B08F097F902460B461046194608F0D3
:100D000053FC0346E36300E000BF0C37BD4690BDD3
:100D1000000400400000E03F0000014000180040D7
:100D200080B584B000AF87ED010A0A4BFB6097EDF8
:100D3000017AD7ED037A27EE277ADFED077A77EE8F
:100D4000277A0020B0EE670AFFF726FF1037BD466E
:100D500080BD00BF8EE3F84000C0A34480B584B0DE
:100D600000AF87ED010A0A4BFB6097ED017AD7EDE2
:100D7000037A27EE277ADFED077A77EE277A0120CC
:100D8000B0EE670AFFF708FF1037BD4680BD00BF11
:100D9000398E23410040C94480B584B000AF87ED4F
:100DA000010A0A4BFB6097ED017AD7ED037A27EE33
:100DB000277ADFED077A77EE277A0220B0EE670A0E
:100DC000FFF7EAFE1037BD4680BD00BF55552D41E7
:100DD0000080C54480B584B000AF87ED010A0A4B9E
:100DE000FB6097ED017AD7ED037A27EE277ADFEDE6
:100DF000077A77EE277A0320B0EE670AFFF7CCFE7A
:100E00001037BD4680BD00BFABAA324100C0D04400
:100E100080B584B000AF87ED010A0A4BFB6097ED07
:100E2000017AD7ED037A27EE277ADFED077A77EE9E
:100E3000277A0420B0EE670AFFF7AEFE1037BD46F2
:100E400080BD00BF555535410080D44480B584B085
:100E500000AF87ED010A0A4BFB6097ED017AD7EDF1
:100E6000037A27EE277ADFED077A77EE277A0520D7
:100E7000B0EE670AFFF790FE1037BD4680BD00BF99
:100E8000ABAACA4000808E4480B483B000AF7860C3
:100E90000B467B807B685B6C5A1C154B1340002B08
:100EA00003DA013B63F0070301331A467B681B6CCE
:100EB0009A4217D07B685A6C7B68798823F81210A5
:100EC0007B685B6C5A1C7B685A647B685A6C094B64
:100ED0001340002B03DA013B63F01F0301331A4672
:100EE0007B685A640C37BD465DF8047B704700BFD1
:100EF000070000801F00008080B485B000AF7860DC
:100F00007B685A6C7B681B6C9A4219D07B681A6CA0
:100F10007B6833F81230FB737B681B6C5A1C7B6850
:100F20001A647B681A6C0A4B1340002B03DA013BEE
:100F300063F01F0301331A467B681A64FB7B00E0F1
:100F400000235BB218461437BD465DF8047B70473A
:100F50001F00008080B483B000AF78607B685A6C5B
:100F60007B681B6C9A4214BF00230123DBB2184636
:100F70000C37BD465DF8047B704700BF80B586B076
:100F800000AFF860B9607A603B601C2008F082FB1B
:100F900003467B617B69FA681A607B69BA685A60AC
:100FA0007B697A689A607B693A68DA607B693A6A39
:100FB0001A617B697A6A5A617B69BA6A9A617B694C
:100FC00018461837BD4680BD80B586B004AF78603E
:100FD0007B6807221A60002300936FF036030193A9
:100FE000002302933C48002100220023FFF7C6FFA4
:100FF00002467B685A606FF0510300936FF036032E
:101000000193002302933548002143226FF05A03D5
:10101000FFF7B4FF02467B689A606FF047030093C6
:101020006FF036030193002302932D486FF02C01DB
:101030006FF02F020023FFF7A1FF02467B68DA6002
:101040006FF0450300930D2301930023029325487D
:101050006FF032016FF060026FF05103FFF78EFF07
:1010600002467B681A616FF04C0300936FF0360301
:101070000193002302931C486FF03B016FF056026E
:101080006623FFF77BFF02467B685A6100230093CB
:101090006FF03603019300230293144817210022B6
:1010A0006FF05503FFF76AFF02467B689A616FF0A5
:1010B0004A0300936FF036030193002302930C4818
:1010C00013216FF063024F23FFF758FF02467B683E
:1010D000DA610837BD4680BD04A000080CA00008F6
:1010E00018A000081CA0000820A0000824A00008E8
:1010F00028A0000880B400AFBD465DF8047B7047AF
:1011000080B485B000AF78600023FB6002E0FB682C
:101110000133FB607B6841F2883202FB03F2FB681B
:101120009A42F4DC1437BD465DF8047B704700BF7B
:1011300090B52DED028B85B000AF78607B685A6862
:101140007B689A600023FB6097E0FB685A1C786814
:10115000F9680B469B000B449B000344083393ED56
:10116000007AFB68591C78680B469B000B449B0077
:101170000344D3ED017A77EE277A796813469B0012
:1011800013449B000B440833C3ED007AFB685C1CDE
:101190007968FA6813469B0013449B000B4408339C
:1011A00093ED018A7968FA6813469B0013449B000B
:1011B0000B44D3ED008A7968FA6813469B00134408
:1011C0009B000B44083393ED007ADFED4E7A27EE57
:1011D000277ADFED4D7AC7EE277AB0EE670A05F081
:1011E0008BFCF0EE407A68EEA77A78EE277A7A6880
:1011F00023469B0023449B0013440833C3ED017A2C
:10120000FB685C1C7968FA6813469B0013449B00DA
:101210000B44103393ED008A7968FA6813469B00FB
:1012200013449B000B44D3ED008A7968FA68134697
:101230009B0013449B000B44083393ED007ADFEDD1
:10124000317A27EE277ADFED307AC7EE277AB0EED3
:10125000670A05F08DFCF0EE407A68EEA77A78EE2A
:10126000277A7A6823469B0023449B00134410335B
:10127000C3ED007AFB680133FB60FB68042B7FF74A
:1012800064AF7B6893ED1C8A7B68D3ED198A7B6819
:1012900093ED1B7ADFED1B7A27EE277ADFED1A7AC2
:1012A000C7EE277AB0EE670A05F026FCF0EE407A2A
:1012B00068EEA77A78EE277A7B68C3ED1E7A7B68A2
:1012C00093ED1D8A7B68D3ED198A7B6893ED1B7AB9
:1012D000DFED0C7A27EE277ADFED0B7AC7EE277A5F
:1012E000B0EE670A05F044FCF0EE407A68EEA77AAB
:1012F00078EE277A7B68C3ED1F7A1437BD46BDECC4
:10130000028B90BDD80F49400000344384B080B5B3
:1013100000AF07F1080C8CE80F00D7ED037AB0EEB0
:10132000670AFFF7FDFCD7ED087AB0EE670AFFF712
:1013300015FDD7ED0D7AB0EE670AFFF72DFDD7ED5D
:10134000127AB0EE670AFFF745FDD7ED177AB0EED7
:10135000670AFFF75DFDD7ED1C7AB0EE670AFFF76D
:1013600075FDBD46BDE8804004B0704790B5AFB094
:101370001EAFF86187ED060AC7ED050A87ED041A6E
:10138000C7ED031A87ED022AC7ED012A39604FF035
:101390000003BB634FF000037B634FF000033B632C
:1013A0004FF00003FB624FF00003BB624FF00003FD
:1013B0007B623B687C4A82FB03121211DB17D31A53
:1013C0003B6297ED067ADFED797AB4EEE77AF1EEDB
:1013D00010FA0FD5FB69D3ED017A97ED067A37EE57
:1013E000677A3B6A06EE903AF8EEE67AC7EE277A1D
:1013F000C7ED0E7A97ED057ADFED6C7AB4EEE77AF9
:10140000F1EE10FA0FD5FB69D3ED067A97ED057A68
:1014100037EE677A3B6A06EE903AF8EEE67AC7EE68
:10142000277AC7ED0D7A97ED047ADFED607AB4EE96
:10143000E77AF1EE10FA0FD5FB69D3ED0B7A97ED51
:10144000047A37EE677A3B6A06EE903AF8EEE67A6F
:10145000C7EE277AC7ED0C7A97ED037ADFED537A62
:10146000B4EEE77AF1EE10FA0FD5FB69D3ED107AFE
:1014700097ED037A37EE677A3B6A06EE903AF8EE1C
:10148000E67AC7EE277AC7ED0B7A97ED027ADFEDA1
:10149000477AB4EEE77AF1EE10FA0FD5FB69D3ED97
:1014A000157A97ED027A37EE677A3B6A06EE903A44
:1014B000F8EEE67AC7EE277AC7ED0A7A97ED017A59
:1014C000DFED3A7AB4EEE77AF1EE10FA0FD5FB6968
:1014D000D3ED1A7A97ED017A37EE677A3B6A06EE1A
:1014E000903AF8EEE67AC7EE277AC7ED097A00233C
:1014F000FB6352E0FB6993ED017AD7ED0E7A77EE4C
:10150000277AFB69C3ED017AFB6993ED067AD7ED83
:101510000D7A77EE277AFB69C3ED067AFB6993EDC6
:101520000B7AD7ED0C7A77EE277AFB69C3ED0B7A4D
:10153000FB6993ED107AD7ED0B7A77EE277AFB698A
:10154000C3ED107AFB6993ED157AD7ED0A7A77EE41
:10155000277AFB69C3ED157AFB6993ED1A7AD7ED0B
:10156000097A77EE277AFB69C3ED1A7AF869FFF7F3
:10157000DFFDFC69694604F1100274230846114638
:101580001A4608F02BFB94E80F00FFF7BFFE32204D
:10159000FFF7B6FDFB6B0133FB63FA6B3B6A9A42C4
:1015A000A8DB4437BD4690BD1F85EB5100001643B4
:1015B00090B5A7B01EAFF860B96087ED010A3A6038
:1015C0004FF00003BB613B68294A82FB03121211F2
:1015D000DB17D31A7B61F968BA6813469B00134482
:1015E0009B000B44D3ED017A97ED017A37EE677AD1
:1015F0007B6906EE903AF8EEE67AC7EE277AC7EDF9
:10160000067A0023FB612CE0F968BA6813469B0058
:1016100013449B000B4493ED017AD7ED067A77EEE5
:10162000277AF968BA6813469B0013449B000B4461
:10163000C3ED017AF868FFF77BFDFC68694604F1A9
:1016400010027423084611461A4608F0C7FA94E8B7
:101650000F00FFF75BFE3220FFF752FDFB690133FD
:10166000FB61FA697B699A42CEDB2437BD4690BDA7
:101670001F85EB5180B582B000AF78607B68254A4A
:101680001A607B684FF000025A607B684FF00002DE
:101690009A607B68204A5A617B684FF000029A6129
:1016A0007B684FF00002DA617B681C4A9A627B68B3
:1016B0004FF00002DA627B684FF000021A637B6829
:1016C000174ADA637B684FF000021A647B684FF0B8
:1016D00000025A647B68124A1A657B684FF0000268
:1016E0005A657B684FF000029A657B680C4A1A6560
:1016F0007B680C4A5A657B684FF000029A657B68EC
:101700000022C3F880207868FFF712FD0837BD4635
:1017100080BD00BF0000404100004841000058412A
:1017200033331B4100005CC280B58AB000AF0A2091
:10173000012103F01DFD0420012103F037FDC0232A
:101740003B62012387F82430002387F826300123E9
:1017500087F82730032387F8253007F12003344822
:10176000194604F02DFBA0233B6207F1200331480A
:10177000194604F025FB4FF440733B62022387F8BF
:101780002430032387F82530002387F826300123EF
:1017900087F8273007F120032648194604F010FB8C
:1017A00024480821022204F0F9FB224809210222E0
:1017B00004F0F4FB0023BB830023FB8242F210738E
:1017C000BB612223BB820023BB7707F114031A48B5
:1017D000194604F073FD60233B800023BB600123A6
:1017E0007B800023BB810023FB814FF480733B820D
:1017F00000237B823B461048194604F071FF0E48D7
:10180000082105F029F83B460B48194604F0E2FE92
:101810000948082105F004F80748012104F0B8FD43
:101820000548012105F036F82837BD4680BD00BFC8
:10183000000C0240000402400008004080B582B065
:1018400000AF786039607B68002B10DB7A6842F269
:1018500010739A4202DD42F210737B6023488021AC
:1018600004F056FB2248202104F060FB0DE07A686A
:10187000204B9A4201DA1F4B7B601C48802104F008
:1018800055FB1B48202104F043FB3B68002B10DB79
:101890003A6842F210739A4202DD42F210733B60E2
:1018A0001248402104F034FB1148802104F03EFB33
:1018B0000DE03A680F4B9A4201DA0E4B3B600B4841
:1018C000402104F033FB0A48802104F021FB0A4B3D
:1018D0007A68002AB8BF5242DA63074B3A68002A96
:1018E000B8BF52421A640837BD4680BD000C0240A2
:1018F00000040240F0D8FFFF0008004080B586B029
:1019000000AF87ED010AC7ED000A97ED017ADFED20
:10191000387A27EE277A374B1B6806EE903AF8EEB6
:10192000E67A37EE677A344B1B6806EE903AF8EEAB
:10193000E67AC7EE277AFDEEE77A17EE903A3B613A
:1019400097ED007ADFED2A7A27EE277A2B4B1B687A
:1019500006EE903AF8EEE67A37EE677A264B1B6889
:1019600006EE903AF8EEE67AC7EE277AFDEEE77AD1
:1019700017EE903AFB6000237B6119E01D4B1A685B
:101980003B691A441B4B1A601C4B1A68FB681A44CB
:101990001A4B1A60174B1A68184B1B6810461946E9
:1019A000FFF74CFF1420FFF7ABFB7B6901337B6132
:1019B000114B1B687A699A42E0DB97ED017ADFED03
:1019C0000C7A67EE277AFDEEE77A17EE902A094B3C
:1019D0001A6097ED007ADFED067A67EE277AFDEE62
:1019E000E77A17EE902A054B1A601837BD4680BD7E
:1019F00000401C46E008002000000020E408002011
:101A000080B582B000AF03F0CFFFFFE700BFFEF765
:101A10006DFE03467B607B68002BF8DB7B68002B48
:101A200054DD7B6823F400637B607B680C2B04D15E
:101A300000200021FFF702FF49E07B68112B05D150
:101A40009FED240ADFED240AFFF758FF7B68102B77
:101A500005D19FED210ADFED1F0AFFF74FFF7B68DD
:101A6000202B05D19FED1D0ADFED1C0AFFF746FF75
:101A70007B68212B05D19FED1A0ADFED190AFFF7CC
:101A80003DFF7B68012B05D19FED150ADFED150A9F
:101A9000FFF734FF7B68022B05D19FED120ADFEDC3
:101AA000100AFFF72BFF7B68032B05D19FED0B0A74
:101AB000DFED0C0AFFF722FF7B68042B06D19FEDB8
:101AC000090ADFED060AFFF719FF9FE79EE70837CF
:101AD000BD4680BD6666663FCDCCCCBDCDCC4C3F0F
:101AE000CDCC4CBF0000000080B584B000AFF860E2
:101AF000B9607A60BB687A6802FB03F39B00184602
:101B000007F0C8FD03461A46FB681A60FB68BA680E
:101B10005A60FB687A689A601037BD4680BD00BF86
:101B200080B485B000AF786039600023FB600EE0C0
:101B30003B681A68FB689B0013447A681168FA686E
:101B400092000A4412681A60FB680133FB607B68EC
:101B50009B687A68526802FB03F2FB689A42E7DCF2
:101B60001437BD465DF8047B704700BF80B487B072
:101B700000AFF860B9607A6000237B6119E07B6890
:101B80001A687B699B001344FA6811687A699200AD
:101B90000A4492ED007ABA6811687A6992000A44A0
:101BA000D2ED007A77EE277AC3ED007A7B690133B4
:101BB0007B61FB685B68FA68926802FB03F27B69F1
:101BC0009A42DCDC1C37BD465DF8047B704700BFE1
:101BD00080B487B000AFF860B9607A6000237B61A1
:101BE00019E07B681A687B699B001344FA681168E6
:101BF0007A6992000A4492ED007ABA6811687A69AB
:101C000092000A44D2ED007A77EE677AC3ED007A4B
:101C10007B6901337B61FB685B68FA68926802FB51
:101C200003F27B699A42DCDC1C37BD465DF8047B1D
:101C3000704700BF80B485B000AF786087ED000AC0
:101C40000023FB6014E07B681A68FB689B00134468
:101C50007A681168FA6892000A4492ED007AD7ED2A
:101C6000007A67EE277AC3ED007AFB680133FB60E8
:101C70007B685B687A68926802FB03F2FB689A42B1
:101C8000E1DC1437BD465DF8047B704780B489B051
:101C900000AFF860B9607A600023FB614AE000237E
:101CA000BB613FE04FF000037B6100233B6124E018
:101CB000FB681A68FB689B68F96901FB03F13B69E3
:101CC0000B449B00134493ED007ABB681A68BB6811
:101CD0009B68396901FB03F1BB690B449B0013440A
:101CE000D3ED007A67EE277A97ED057A77EE277ABB
:101CF000C7ED057A3B6901333B61FB689A683B6934
:101D00009A42D5DC7B681A687B689B68F96901FB9D
:101D100003F1BB690B449B0013447A691A60BB69E9
:101D20000133BB61BB689A68BB699A42BADCFB6944
:101D30000133FB61FB685A68FB699A42AFDC2437C8
:101D4000BD465DF8047B704780B485B000AF786015
:101D500039600023FB6025E00023BB601AE03B688C
:101D60001A683B689B68B96801FB03F1FB680B4488
:101D70009B0013447A6811687A689268F86800FBDF
:101D800002F0BA68024492000A4412681A60BB6802
:101D90000133BB607B689A68BB689A42DFDCFB68F2
:101DA0000133FB607B685A68FB689A42D4DC1437C5
:101DB000BD465DF8047B704780B584B000AF7860A5
:101DC0004FF00003FB600023BB6018E07B681A68DB
:101DD000BB689B00134493ED007A7B681A68BB686C
:101DE0009B001344D3ED007A67EE277A97ED037AD0
:101DF00077EE277AC7ED037ABB680133BB607B6857
:101E00005B687A68926802FB03F2BB689A42DDDC89
:101E1000F86807F0B3F802460B4643EC102B04F0C9
:101E2000E5FE53EC102B1046194607F0DDFB034688
:101E300007EE903AB0EE670A1037BD4680BD00BF8E
:101E400080B487B000AFF860B9607A6000237B612E
:101E500034E0FB681A68FB689B68B96801FB03F112
:101E60007B690B449B0013441B683B61FB681A6849
:101E7000FB689B68B96801FB03F17B690B449B001D
:101E80001344FA681168FA689268786800FB02F0F7
:101E90007A69024492000A4412681A60FB681A6860
:101EA000FB689B68796801FB03F17B690B449B002D
:101EB00013443A691A607B6901337B61FB689A6855
:101EC0007B699A42C5DC1C37BD465DF8047B7047D0
:101ED00080B487B000AFF860B96087ED010A0023D5
:101EE0007B6120E0FB681A68FB689B68B96801FBAE
:101EF00003F17B690B449B001344FA681168FA688C
:101F00009268B86800FB02F07A69024492000A44C1
:101F100092ED007AD7ED017A67EE277AC3ED007A69
:101F20007B6901337B61FB689A687B699A42D9DCE3
:101F30001C37BD465DF8047B704700BF80B487B096
:101F400000AFF860B9607A6087ED000A00237B611A
:101F50002FE0FB681A68FB689B68B96801FB03F116
:101F60007B690B449B001344FA681168FA68926815
:101F7000B86800FB02F07A69024492000A4492EDCC
:101F8000007AFA681168FA689268786800FB02F0D3
:101F90007A69024492000A44D2ED006AD7ED007AD1
:101FA00066EEA77A77EE277AC3ED007A7B69013374
:101FB0007B61FB689A687B699A42CADC1C37BD4624
:101FC0005DF8047B704700BF80B588B000AF7860D3
:101FD000396078683968FFF7A3FD4FF07E53FB61E5
:101FE0000023BB6170E03B681A687B689B68013323
:101FF000B96901FB03F39B0013441B68184606F004
:10200000BDFF02460B461046194645A3D3E90023FF
:1020100007F07AFA0346002B23D0BB6901337B61BA
:102020001AE03B681A687B689B68B96901FB03F199
:102030007B690B449B001344D3ED007AF5EEC07A24
:10204000F1EE10FA05DD3868B9697A69FFF7F8FE34
:1020500007E07B6901337B617B685A687B699A4240
:10206000DFDCBB6901333B6126E03B681A687B68B3
:102070009B68396901FB03F1BB690B449B00134466
:10208000D3ED007AB1EE677A3B681A687B689B688B
:102090000133B96901FB03F39B001344D3ED007ACC
:1020A000C7EE277A38683969BA69B0EE670AFFF770
:1020B00045FF3B6901333B617B685A683B699A4243
:1020C000D3DCBB690133BB617B689A68BB699A4208
:1020D00089DC0023FB6014E03B681A687B689B681E
:1020E0000133F96801FB03F39B001344D3ED007A3D
:1020F00097ED077A67EE277AC7ED077AFB68013319
:10210000FB607B689A68FB689A42E5DCFB6907EE36
:10211000903AB0EE670A2037BD4680BDAFF300802D
:10212000FCA9F1D24D62503F80B592B000AFF8608B
:10213000B9607A60FB689B687B617B695B003B618F
:1021400000237B6423E000233B6419E07B681A686A
:102150007B6C5B00796901FB03F13B6C0B449B00DA
:102160001344FA6811687A6C786900FB02F03A6CE3
:10217000024492000A4412681A603B6C01333B64CB
:102180003A6C7B699A42E1DB7B6C01337B647A6C4D
:102190007B699A42D7DB0023FB6324E07B69BB6346
:1021A00019E07B681A68FB6B5B00796901FB03F13E
:1021B000BB6B0B449B001A44B96B7B69C91AFB6B60
:1021C000994202D14FF07E5301E04FF000031360BB
:1021D000BB6B0133BB637B695A00BB6B9A42E0DC8B
:1021E000FB6B0133FB63FA6B7B699A42D6DB0023FE
:1021F0007B636DE07B681A687B6B5B00796901FB30
:1022000003F17B6B0B449B0013441B68184606F0DC
:10221000B5FE02460B461046194671A3D3E90023CA
:1022200007F072F90346002B22D07B6B01333B632E
:102230001AE07B681A687B6B5B00796901FB03F12C
:102240003B6B0B449B001344D3ED007AF5EEC07A50
:10225000F1EE10FA05DD7868796B3A6BFFF7F0FD67
:1022600006E03B6B01333B633A6B7B699A42E0DBF0
:102270007B6B0133FB6224E07B681A68FB6A396977
:1022800001FB03F17B6B0B449B001344D3ED007AFD
:10229000B1EE677A7B681A683B690133796B01FBA1
:1022A00003F39B001344D3ED007AC7EE277A7868D6
:1022B000F96A7A6BB0EE670AFFF740FEFB6A0133FA
:1022C000FB62FA6A7B699A42D6DB7B6B01337B63E4
:1022D0007A6B7B699A428DDB7B69013BBB622EE0A6
:1022E000BB6A013B7B6224E07B681A687B6A3969C0
:1022F00001FB03F1BB6A0B449B001344D3ED007A4E
:10230000B1EE677A7B681A683B690133B96A01FBF1
:1023100003F39B001344D3ED007AC7EE277A786865
:10232000796ABA6AB0EE670AFFF708FE7B6A013B7A
:102330007B627B6A002BD7DABB6A013BBB62BB6A5C
:10234000002BCDDA00233B6217E07B681A683B69FB
:102350000133396A01FB03F39B001344D3ED007A88
:10236000B7EE007AC7EE277A7868396AB0EE670A66
:10237000FFF7AEFD3B6A01333B623A6A7B699A42E2
:10238000E3DB0023FB6124E07B69BB611AE0BB68EF
:102390001A68FB69796901FB03F1BB6919447B6920
:1023A000CB1A9B0013447A681168FA69386900FBFC
:1023B00002F0BA69024492000A4412681A60BB69CA
:1023C0000133BB61BA693B699A42E0DBFB690133C7
:1023D000FB61FA697B699A42D6DB4837BD4680BD0E
:1023E000FCA9F1D24D62503F80B485B000AFF860D7
:1023F000B9607A60FB681A68FB689B68B96801FB82
:1024000003F17B680B449B0013441B6807EE903A72
:10241000B0EE670A1437BD465DF8047B704700BF15
:1024200080B485B000AFF860B9607A6087ED000ACB
:10243000FB681A68FB689B68B96801FB03F17B685D
:102440000B449B0013443A681A601437BD465DF88C
:10245000047B70472DE9B04F2DED028BA4B000AF87
:10246000F860B960AB4B1B68184606F087FD024662
:102470000B46C7E92223A74B5B68184606F07EFD92
:1024800002460B46C7E92023A24B9B68184606F07C
:1024900075FD02460B46C7E91E239E4BDB681846B6
:1024A00006F06CFD02460B46C7E91C23F8680021C4
:1024B0000022FFF799FF10EE103A184606F05EFD75
:1024C00002460B46C7E91A23F86801210022FFF7EC
:1024D0008BFF10EE103A184606F050FD02460B46F0
:1024E00010461946D7E91A2306F0EAFB02460B46C6
:1024F000C7E91823F86802210022FFF775FF10EEE4
:10250000103A184606F03AFD02460B4610461946A8
:10251000D7E9182306F0D4FB02460B46C7E9162379
:10252000F86803210022FFF75FFF10EE103A18460B
:1025300006F024FD02460B4610461946D7E916233D
:1025400006F0BEFB02460B46C7E9142397ED1A0BB3
:1025500004F026FA87ED120B97ED180B04F020FA21
:1025600087ED100B97ED160B04F01AFA87ED0E0BA2
:1025700097ED140B04F014FA87ED0C0B97ED1A0B82
:1025800004F062FA87ED0A0B97ED180B04F05CFA81
:1025900087ED080B97ED160B04F056FA87ED060B46
:1025A00097ED140B04F050FA87ED040BD7F8883040
:1025B0003B60D7F88C3083F000437B60D7E90001A3
:1025C000D7E90A2306F02EFD02460B4643EC182BF2
:1025D000D7E92001D7E9082306F024FD02460B467F
:1025E00051EC180B06F06AFB02460B4643EC182B25
:1025F000D7E91E01D7E9062306F014FD02460B4673
:1026000051EC180B06F05AFB02460B4643EC182B14
:10261000D7E91C01D7E9042306F004FD02460B4666
:1026200051EC180B06F04AFB02460B4610461946C1
:1026300006F0DAFF0346B8680021002200EE103AE7
:10264000FFF7EEFED7F880A0D7F8843083F0004B78
:1026500050465946D7E9082306F0E4FC02460B46EB
:1026600092469B46D7E91E01D7E9062306F0DAFC1D
:1026700002460B465046594606F020FB02460B46E2
:1026800092469B46D7E91C01D7E9042306F0CAFC11
:1026900002460B465046594606F010FB02460B46D2
:1026A0001046194606F0A0FF0346B8680021012233
:1026B00000EE103AFFF7B4FED7F87880FB6F83F096
:1026C000004940464946D7E9062306F0ABFC0246DE
:1026D0000B4690469946D7E91C01D7E9042306F03A
:1026E000A1FC02460B464046494606F0E7FA024680
:1026F0000B461046194606F077FF0346B8680021DE
:10270000022200EE103AFFF78BFE3C6F7B6F83F0E6
:10271000004501E00400002020462946D7E90423B3
:1027200006F080FC02460B461046194606F05CFF98
:102730000346B8680021032200EE103AFFF770FE4E
:10274000D7E92201D7E9122306F06CFC02460B46BA
:1027500014461D46D7E92001D7E9102306F062FC94
:1027600002460B462046294606F0AAFA02460B46C8
:1027700014461D46D7E91E01D7E90E2306F052FC88
:1027800002460B462046294606F09AFA02460B46B8
:1027900014461D46D7E91C01D7E90C2306F042FC7C
:1027A00002460B462046294606F08AFA02460B46A8
:1027B0001046194606F018FF0346B86801210022AA
:1027C00000EE103AFFF72CFED7E92001D7E91023DD
:1027D00006F028FC02460B4614461D46D7E91E01AA
:1027E000D7E90E2306F01EFC02460B46204629467A
:1027F00006F066FA02460B4614461D46D7E91C0150
:10280000D7E90C2306F00EFC02460B46204629466B
:1028100006F056FA02460B461046194606F0E4FE4C
:102820000346B8680121012200EE103AFFF7F8FDD7
:10283000D7E91E01D7E90E2306F0F4FB02460B464A
:1028400014461D46D7E91C01D7E90C2306F0EAFB24
:1028500002460B462046294606F032FA02460B464F
:102860001046194606F0C0FE0346B8680121022250
:1028700000EE103AFFF7D4FDD7E91C01D7E90C238D
:1028800006F0D0FB02460B461046194606F0ACFE99
:102890000346B8680121032200EE103AFFF7C0FD9D
:1028A000B86802210022B7EE000AFFF7B9FDB86848
:1028B00002210122B7EE000AFFF7B2FDB86802213B
:1028C0000222B7EE000AFFF7ABFDB868022103222F
:1028D000B7EE000AFFF7A4FD9037BD46BDEC028BB2
:1028E000BDE8B08FB0B58AB000AF786039604FF006
:1028F00000024FF00003C7E908234FF000024FF039
:102900000003C7E906234FF000024FF00003C7E9B8
:1029100004230023FB6052E07868F9680022FFF787
:1029200063FD10EE103A184606F028FB02460B46EF
:10293000D7E9040106F0C4F902460B46C7E90423AF
:10294000354AFB689B0013441B68184606F016FBCB
:1029500004460D4697ED040B04F022F853EC102BBF
:102960002046294606F05EFB02460B46D7E90801E1
:1029700006F0A6F902460B46C7E90823264AFB687B
:102980009B0013441B68184606F0F8FA04460D46EF
:1029900097ED040B04F058F853EC102B2046294611
:1029A00006F040FB02460B46D7E9060106F088F91F
:1029B00002460B46C7E90623FB680133FB607B68D0
:1029C0005A68FB689A42A7DCD7E9080106F00CFEBA
:1029D000034638680021002200EE103AFFF720FD80
:1029E000D7E9060106F000FE0346386801210022FF
:1029F00000EE103AFFF714FDD7E9040106F0F4FDEC
:102A0000034638680221002200EE103AFFF708FD65
:102A10002837BD46B0BD00BF040000200000000004
:102A200080B584B000AF6E4B1B68FB606D4B1A68BD
:102A30006D4B1B6810461946FFF772F86A4B1A680F
:102A40006A4B1B6810461946FFF74CFF674B196825
:102A5000674B1A68674B1B68084611461A46FFF712
:102A6000B7F8644B1B681846FFF7A6F987ED020A12
:102A70005D4B1A685D4B1B6810461946FFF732FF25
:102A80005A4B19685A4B1A685A4B1B68084611462C
:102A90001A46FFF79DF8574B1B681846FFF78CF94D
:102AA00087ED010A97ED027AF1EE047A27EE277A94
:102AB000D7ED017AB4EEE77AF1EE10FA00D586E0B0
:102AC0004D4BD3ED007A97ED017AB4EEE77AF1EE53
:102AD00010FA00D57BE0444B1A68484B1B6810463F
:102AE0001946FFF7B7FC454B1A68454B1B68104663
:102AF0001946FFF729F9414B1968414B1A68414BB8
:102B00001B68084611461A46FFF7C0F83D4B1A6885
:102B10003D4B1B6810461946FFF756FA10EE103A67
:102B2000184606F02BFA02460B46104619462AA311
:102B3000D3E9002306F0E8FC0346002B0AD0314B12
:102B40001968324B1A682F4B1B68084611461A4603
:102B5000FFF70CF82B4B19682D4B1A682D4B1B688F
:102B6000084611461A46FFF7DFFA254B1968284B2D
:102B70001A68294B1B68084611461A46FFF786F863
:102B8000254B19681B4B1A68244B1B6808461146D5
:102B90001A46FFF77BF8214B1B68214AD2ED007AD9
:102BA0001846B0EE670AFFF745F80F4B19681B4B44
:102BB0001A680D4B1B68084611461A46FFF708F8BD
:102BC000FB685A1EFA60002B00DC00E050E710376B
:102BD000BD4680BDAFF300807B14AE47E17A843FF1
:102BE0001400002054090020B4090020380A0020F5
:102BF000DC090020580900201C0000205C0900208E
:102C00003C0A0020C0090020680A0020B809002002
:102C1000BC0900206C0A0020400A0020040A0020A1
:102C200018000020AFF3008080B483B000AF87EDC0
:102C3000010A97ED017ADFED0F7AB4EEE77AF1EE53
:102C400010FA01DD0C4B0BE097ED017ADFED0B7A0A
:102C5000B4EEE77AF1EE10FA01D5094B00E07B689B
:102C600007EE903AB0EE670A0C37BD465DF8047B7C
:102C7000704700BFDA0F4940DA0F4940DA0FC9BF89
:102C8000DA0FC9BF00000000B0B58EB000AF87ED0D
:102C9000050AC7ED040A87ED031AC7ED021A78602A
:102CA00097ED057AD7ED037A77EE277AC7ED0C7AA0
:102CB00097ED047AD7ED027A77EE277AC7ED0B7A93
:102CC0008F4B1B68BB628E4B5B687B628C4B9B6837
:102CD0003B628B4BDB68FB61D7ED077AB1EE677A1D
:102CE000D7ED0C7A37EE677AD7ED077AF1EE676A9F
:102CF000D7ED0C7A76EEE77A27EE277AD7ED0B6AD6
:102D0000D7ED0B7A66EEA77A77EE277A17EE900A60
:102D100006F034F902460B4643EC102B03F066FF35
:102D200053EC102B1046194606F05EFC0346BB61BF
:102D3000B86906F023F904460D4697ED0A7AD7EDF7
:102D4000097A37EE277AD7ED087A77EE277A17EEE9
:102D5000900A06F013F902460B461046194664A382
:102D6000D3E9002306F05EF902460B4620462946C9
:102D700006F0E8FB0346002B02D04FF0FF33B3E030
:102D8000B86906F0FBF804460D46B86A06F0F6F896
:102D900002460B461046194657A3D3E9002306F016
:102DA00041F902460B462046294606F0ADFB034694
:102DB000002B02D06FF0010396E0D7ED0A7AB1EE56
:102DC000677AD7ED0C7AB4EEE77AF1EE10FA02D515
:102DD0006FF0020388E097ED087ADFED4A7A27EE7C
:102DE000277AD7ED0B7AB4EEE77AF1EE10FA02DD2E
:102DF0006FF0030378E097ED0A7ADFED437A27EE70
:102E0000277AD7ED0B7AB4EEE77AF1EE10FA17DDF8
:102E10003E4B1B681B683E4A1A603C4B1B681B6894
:102E200004333C4A1A60394B1B681B680833394A23
:102E30001A60364B1B681B680C33374A1A6016E061
:102E4000324B1B681B68354A1A60304B1B681B6885
:102E50000433334A1A602D4B1B681B680833304A11
:102E60001A602A4B1B681B680C332D4A1A602D4BC5
:102E70001B681B6897ED057AD7ED037A77EE277A02
:102E8000C3ED007A274B1B681B68043397ED047A67
:102E9000D7ED027A77EE277AC3ED007A214B1B68D3
:102EA0001B680833204A1A60FFF7BAFD00237B63D2
:102EB00016E07B6B9B007A68D4181C4B1B681A6861
:102EC0007B6B9B001344D3ED007AB0EE670AFFF7EB
:102ED000ABFEF0EE407AC4ED007A7B6B01337B638E
:102EE0007B6B032BE5DD002318463837BD46B0BDAC
:102EF000666666666666EE3F9A9999999999F13F7A
:102F0000040000209A9999BECDCC4C3F5409002072
:102F1000A9CA1640370E493F370E49BF370EC93F81
:102F20007A09063FDC090020DB0F4940B409002084
:102F300080B586B000AF87ED030AC7ED020A78605E
:102F4000334B1B681B687A6892ED007ADFED317AAB
:102F500027EE277ADFED307AC7EE277AC3ED007AC5
:102F60002B4B1B681B6804337A68043292ED007A9D
:102F7000DFED287A27EE277ADFED277AC7EE277A6A
:102F8000C3ED007A224B1B681B6808337A6808324D
:102F900092ED007ADFED1F7A27EE277ADFED1E7AB9
:102FA000C7EE277AC3ED007A194B1B681B680C33F8
:102FB0007A680C3292ED007ADFED167A27EE277AE6
:102FC000DFED157AC7EE277AC3ED007A104B1A6849
:102FD000124B1B6810461946FFF784FC0F4B1B6809
:102FE0001B681B687B610D4B1B681B685B683B6142
:102FF00097ED050AD7ED040A97ED031AD7ED021AEB
:103000007868FFF741FE034618461837BD4680BD75
:1030100054090020370E494000003443380A00208C
:1030200080B500AF6A4B6B4A1A60694B1B68184643
:1030300004210122FEF758FD674B684A1A60664B6F
:103040001B68184603210122FEF74EFD644B654ABA
:103050001A60634B1B68184604210122FEF744FDE9
:10306000614B624A1A60604B1B68184603210122BB
:10307000FEF73AFD5E4B5F4A1A605D4B1B681846CF
:1030800003210122FEF730FD5B4B5C4A1A605A4B6C
:103090001B68184603210422FEF726FD584B594AA7
:1030A0001A60574B1B68184604210322FEF71CFDCB
:1030B000554B564A1A60544B1B681846032103228D
:1030C000FEF712FD524B534A1A60514B1B681846CB
:1030D00003210322FEF708FD4F4B504A1A604E4B66
:1030E0001B68184604210322FEF7FEFC4C4B4D4A98
:1030F0001A604B4B1B68184604210122FEF7F4FCB2
:10310000494B4A4A1A60484B1B6818460321032260
:10311000FEF7EAFC464B474A1A60454B1B681846C7
:1031200003210322FEF7E0FC434B444A1A60424B62
:103130001B68184603210622FEF7D6FC3A4B1B6893
:103140001B684FF07E521A60374B1B681B680433B4
:103150004FF000021A60344B1B681B6808334FF0B5
:1031600000021A60304B1B681B680C334FF00002E2
:103170001A602D4B1B681B6810334FF07E521A608B
:10318000294B1B681B6814334FF000021A60264B52
:103190001B681B6818334FF000021A60224B1B6833
:1031A0001B681C334FF000021A601F4B1B681B6822
:1031B00020334FF07E521A601B4B1B68204AD2ED21
:1031C000007A1846B0EE670AFEF734FD80BD00BFF6
:1031D00054090020200A0020DC090020440A0020B5
:1031E000B4090020080A0020380A0020F80900204D
:1031F00058090020A80900205C0900205C0A002072
:103200003C0A0020500A0020C0090020C409002008
:10321000BC0900202C0A0020400A0020EC090020F4
:10322000040A002048090020B8090020140A0020E0
:10323000680A0020D00900206C0A0020E009002064
:103240002000002080B483B000AF87ED010A97ED25
:10325000017ADFED077A27EE277ADFED067AC7EEEF
:10326000277AB0EE670A0C37BD465DF8047B7047DD
:1032700000003443DB0F494080B52DED048B8AB04C
:1032800000AFF86087ED020AC7ED010AFB6893ED15
:10329000017ADFED2C7A77EE277AC7ED057AFB68A5
:1032A0009B69BB61FB68DB6AFB61FB681B6C3B6273
:1032B00007F1140397ED020AD7ED010A1846FFF74C
:1032C00037FE78627B6A002B34D1D7ED057AB0EEF9
:1032D000670AFFF7B7FFB0EE407ADFED1A7A37EEF4
:1032E000679AD7ED067AB0EE670AFFF7ABFFF0EE0C
:1032F000408AD7ED077AB0EE670AFFF7A3FFB0EE7A
:10330000408AD7ED087AB0EE670AFFF79BFFF0EE30
:10331000407AF868B0EE490AF0EE680AB0EE481A52
:10332000F0EE671A9FED082ADFED072A4FF4967139
:10333000FEF71CF87B6A18462837BD46BDEC048BA7
:1033400080BD00BF0000B4420000174380B500AF4D
:10335000012002F023FF0346002B05D0034B01227E
:103360001A60012002F03EFF80BD00BFEC08002083
:1033700080B592B000AF884B884A1A6005200121C1
:1033800001F0F6FE012387F84430002387F8463029
:103390004FF4C0633B64012387F84730032387F869
:1033A000453007F140037E48194602F009FD4FF40D
:1033B00040633B6407F140037A48194602F000FD80
:1033C0000120012101F010FF0220012101F00CFF7A
:1033D0004FF400733B64022387F84430032387F8DB
:1033E0004530002387F84630012387F8473007F13E
:1033F00040036C48194602F0E3FC4FF480733B64D1
:10340000022387F84430032387F84530002387F8E8
:103410004630012387F8473007F1400360481946DA
:1034200002F0CEFC5F480921032202F0B7FD5C48A0
:103430000821012202F0B2FD0023BB870023FB8696
:1034400042F21073BB6340F24F13BB86002387F830
:103450003E3007F134035448194602F02FFF07F1BC
:1034600034035248194602F029FF60233B8442F29C
:103470002833BB6201237B840023BB850023FB85AB
:103480004FF480733B8600237B8607F12003474877
:10349000194603F025F94548082103F0DDF907F145
:1034A00020034148194602F093FF3F48082103F0EA
:1034B0007DF93D48012102F06BFF3C48012102F0FB
:1034C00067FF3948012103F0E5F93848012103F08D
:1034D000E1F92020012101F069FE4FF47A73BB82EB
:1034E0000023FB822123BB610023BB830023BB7726
:1034F00007F114032E48194602F0E0FE2C48012182
:1035000002F046FF2A480121012203F0E9F937239E
:103510003B7400237B740123BB740123FB7407F10C
:103520001003184602F06CFE0220012101F020FE7B
:103530004FF48040012101F057FE002387F844300A
:10354000002387F8473001233B6407F14003194803
:10355000194602F035FC01200021FCF715FE01237D
:10356000BB6000233B7308237B730123BB7307F10C
:103570000803184602F0A4FD06233B7100237B716B
:103580000023BB710123FB713B1D184602F038FE7E
:103590004837BD4680BD00BF44090020FDAD003D59
:1035A0000000024000080240000001400004014009
:1035B000001400400004024080B582B000AF786083
:1035C0007B68002B1DD0754B1B685A1C734B1A600F
:1035D000734B1B685A1C724B1A60704B1B68322B62
:1035E0002ED1704B1B685A1C6E4B1A606B4B00221D
:1035F0001A606C4B1B68042B22D16A4B00221A60A4
:103600001EE0664B1B685A1E644B1A60644B1B68B5
:103610005A1E634B1A60614B1B68B3F1FF3F0FD119
:10362000604B1B685A1E5F4B1A605C4B31221A605C
:103630005C4B1B68B3F1FF3F02D15A4B03221A6067
:10364000584B1B68002B26D157484FF4007102F0ED
:103650005FFC55484FF4806102F068FC53484FF41A
:10366000806102F063FC51484FF4006102F050FCAD
:103670004F4B4A4A11684F4A32F8112012B21A646D
:103680004D4B464A1268C2F131014A4A32F81120C4
:1036900012B25A637FE0434B1B68012B26D142488C
:1036A0004FF4007102F034FC3F484FF4806102F0A7
:1036B0003DFC3E484FF4806102F02AFC3B484FF449
:1036C000006102F033FC3A4B344A1268C2F1310116
:1036D000384A32F8112012B21A64374B2F4A116857
:1036E000344A32F8112012B25A6354E02D4B1B6851
:1036F000022B26D12C484FF4007102F017FC2A4807
:103700004FF4806102F004FC28484FF4806102F01D
:10371000FFFB26484FF4006102F008FC244B1F4ACF
:103720001168244A32F8112012B21A64224B1B4A43
:103730001268C2F131011F4A32F8112012B25A63E5
:1037400029E0184B1B68032B25D117484FF4007153
:1037500002F0ECFB14484FF4806102F0D9FB1348EF
:103760004FF4806102F0E2FB10484FF4006102F078
:10377000CFFB0F4B094A1268C2F131010D4A32F8F2
:10378000112012B21A640C4B044A1168094A32F82B
:10379000112012B25A630837BD4680BDF0080020E0
:1037A000F4080020F8080020000002400008024051
:1037B00000040140280000200000014080B584B0D2
:1037C00000AF78607B68002B08D0654B1B889BB2EC
:1037D0009BB201339AB2624B1A8007E0604B1B88A0
:1037E0009BB29BB2013B9AB25D4B1A805C4B1B882B
:1037F0009BB21BB207EE903AB8EEE77A594BD3ED85
:10380000007A67EE277A17EE900A05F0B7FB0246BA
:103810000B4643EC102B03F017F953EC102B10461A
:10382000194605F0E1FE0346FB604D4B1B889BB239
:103830001BB207EE903AB8EEE77A4A4BD3ED007A26
:1038400067EE277A17EE900A05F098FB02460B46C2
:1038500043EC102B03F0A4F853EC102B1046194640
:1038600005F0C2FE0346BB60D7ED037AF5EEC07AE1
:10387000F1EE10FA0ADD3C484FF4007102F048FB0B
:1038800039484FF4806102F051FB09E036484FF4AB
:10389000007102F04BFB34484FF4806102F038FBBA
:1038A000D7ED037AF5EEC07AF1EE10FA02DDD7ED2E
:1038B000037A03E0D7ED037AF1EE677AC7ED037A76
:1038C00097ED037ADFED297A67EE277AC7ED037A61
:1038D000274BD7ED037AFDEEE77A17EE902A1A64AC
:1038E000D7ED027AF5EEC07AF1EE10FA0ADD214842
:1038F0004FF4806102F00CFB1E484FF4006102F0AF
:1039000015FB09E01B484FF4806102F00FFB1948DA
:103910004FF4006102F0FCFAD7ED027AF5EEC07ABE
:10392000F1EE10FA02DDD7ED027A03E0D7ED027A6C
:10393000F1EE677AC7ED027A97ED027ADFED0B7A46
:1039400067EE277AC7ED027A0B4BD7ED027AFDEED0
:10395000E77A17EE902A5A631037BD4680BD00BF44
:1039600024000020440900200000024000401C46C2
:1039700000040140000802400000014080B500AF93
:103980000B4B1B685A1C0A4B1A600A4B1B68002B16
:103990000DD0074B1A68074B1B689A4207DD044B92
:1039A00000221A60044B1B681846FFF705FE80BD15
:1039B00008090020FC0800200009002080B500AFA5
:1039C0000648012102F0B0FF0346002B05D0034852
:1039D000012102F0D3FFFFF7D1FF80BD00140040AA
:1039E00080B584B000AF786039600023FB600FE0E1
:1039F0003868FFF7E3FE0023BB6002E0BB680133D9
:103A0000BB60BB68B3F57A7FF8DBFB680133FB6012
:103A1000FA687B689A42EBDB1037BD4680BD00BF79
:103A200080B584B000AF1A4B00221A600DE001206F
:103A3000FFF7C2FD0023BB6002E0BB680133BB603F
:103A4000BA6842F20F739A42F7DD114B1B68002BE4
:103A5000EDD0104BB4221A800023FB6010E0002050
:103A6000FFF7AAFD00237B6002E07B6801337B60E7
:103A70007A6842F20F739A42F7DDFB680133FB600C
:103A8000FB68B3F5B57FEADB1037BD4680BD00BFEC
:103A9000EC0800202400002080B500AF05484FF45A
:103AA000C06102F043FA04484FF4406102F03EFA6C
:103AB00080BD00BF000002400008024080B58AB00F
:103AC00000AF0220012101F053FB022387F82430CC
:103AD000002387F826304FF400433B62002387F829
:103AE0002730032387F8253007F1200321481946A2
:103AF00002F066F90220012101F076FB1D480F213A
:103B0000032202F04BFA0023BB830023FB8242F224
:103B10001073BB6140F24F13BB820023BB7707F1E8
:103B200014031548194602F0C9FB60233B800023AB
:103B3000BB6001237B800023BB814FF480733B82F9
:103B40000423BB800023FB8100237B823B460A4881
:103B5000194602F03FFD0848082102F061FE0648C0
:103B6000012102F015FC0448012102F093FE2837E0
:103B7000BD4680BD000402400004014080B400AF97
:103B8000034B41F28832DA63BD465DF8047B70472F
:103B90000004014080B400AF034B0022DA63BD464D
:103BA0005DF8047B704700BF0004014080B500AFA2
:103BB000094840F22551FCF785FC0346002B09D04B
:103BC0000548FCF70BFC03469BB21BB203481946A1
:103BD000FDF75AF980BD00BF004400406009002095
:103BE00080B500AF02E00A20FDF78AFA0548FDF72C
:103BF000B1F90346002BF6D10248FDF77DF90346E3
:103C0000184680BD6009002080B584B000AF7860A0
:103C100039604FF00003FB604FF00003BB603B686E
:103C20005B4207EE903AB8EEE77ADFED657A87EE11
:103C3000277ADFED647A67EE277A97ED037A77EEDD
:103C4000277AC7ED037A3B685B4207EE903AB8EEFD
:103C5000E77ADFED5B7A87EE277ADFED5A7A67EE57
:103C6000277A97ED027A77EE277AC7ED027A3B68DA
:103C7000252B26DC7B6807EE903AB8EEE77ADFED7D
:103C8000507A87EE277AF6EE007A67EE277A97ED7C
:103C9000037A77EE277AC7ED037A7B6807EE903ACE
:103CA000B8EEE77ADFED467A87EE277AF6EE007A0D
:103CB00067EE277A97ED027A77EE677AC7ED027A98
:103CC00025E07B6807EE903AB8EEE77ADFED3C7AC4
:103CD00087EE277AF6EE007A67EE277A97ED037A79
:103CE00077EE677AC7ED037A7B6807EE903AB8EE15
:103CF000E77ADFED337A87EE277AF6EE007A67EE21
:103D0000277A97ED027A77EE277AC7ED027A97ED58
:103D1000037AFFEE007AB4EEE77AF1EE10FA01D8FA
:103D2000294BFB6097ED037AF7EE007AB4EEE77A61
:103D3000F1EE10FA01DB254BFB6097ED027AFFEE06
:103D4000007AB4EEE77AF1EE10FA01D81E4BBB60B0
:103D500097ED027AF7EE007AB4EEE77AF1EE10FA18
:103D600001DB1A4BBB6001F01FFE194801F064FD36
:103D700097ED037ADFED127A67EE277AFDEEE77AA8
:103D800017EE903A1846062101F0F8FE114801F0AE
:103D900053FD97ED027ADFED0A7A67EE277AFDEEA2
:103DA000E77A17EE903A1846062101F0E7FE97ED04
:103DB000030AD7ED020AFDF7A1FD1037BD4680BD0D
:103DC0000000C842CDCC4C3FA4707DBFA4707D3FA5
:103DD0002CA0000834A0000880B584B000AFF860C3
:103DE000B9607A6001F0E0FD0B4801F025FDF8684C
:103DF000062101F0C3FE094801F01EFDB868062146
:103E000001F0BCFE054801F017FD7868062101F0BD
:103E1000B5FE1037BD4680BD38A0000834A00008AC
:103E200080B58EB000AF7860B94B00221A64B84BF1
:103E300000225A6400237B6332233B6301F0B4FD0C
:103E4000B44801F0F9FCFFF727FEB148FDF782F80E
:103E50000346002B40F07782AD48FDF74DF803464E
:103E600087F82F3097F92F30702B61D1AA484FF483
:103E7000805102F081F800BFA8488021FCF706FBC2
:103E80000346002BF8D0A5486F21FCF795FA00BF38
:103E9000A2488021FCF7FAFA0346002BF8D07B6891
:103EA000D3ED017AFCEEE77A17EE903ADBB29B484D
:103EB0001946FCF781FA00BF98488021FCF7E6FA22
:103EC0000346002BF8D07B68D3ED067AFCEEE77A48
:103ED00017EE903ADBB291481946FCF76DFA00BF35
:103EE0008E488021FCF7D2FA0346002BF8D07B687D
:103EF000D3ED0B7AFCEEE77A17EE903ADBB2874807
:103F00001946FCF759FA00BF84488021FCF7BEFA35
:103F10000346002BF8D07B68D3ED107AFCEEE77AED
:103F200017EE903ADBB27D481946FCF745FA0AE2F3
:103F300097F92F307E2B12D1FFF752FE034687F8F8
:103F40002E30FFF74DFE034687F82D3097F92E20CF
:103F500097F92D3010461946FFF756FEF3E197F911
:103F60002F30722B11D178689FED6D0AF3EE0E0A97
:103F7000B3EE0E1AF3EE0E1A9FED692ADFED682AF2
:103F80004FF4FA71FDF7F2F9DDE197F92F30742B58
:103F900040F08C80FFF724FE034687F82C30FFF7B3
:103FA0001FFE034687F82B3097F92B3007EE903A27
:103FB000B8EEE77ADFED5B7AC7EE277AC7ED097ACC
:103FC00001F0F2FCFFF7DAFDD7ED097AF5EEC07AE1
:103FD000F1EE10FA06D5D7ED097AF1EE677A17EE11
:103FE000903A00E07B6A184604F0C8FF02460B4690
:103FF0001046194644A3D3E9002305F0A3FA03466B
:10400000002B06D0786897ED090ADFED450AFFF727
:1040100033F9FFF7BFFD97F82C30DB43DBB2DB0948
:10402000DBB27B6397F92C30DA0F13445B10DBB201
:104030005BB2002BB8BF5B42C3F132033B633A4B28
:104040003A6B1A6097F92C3013F10E0F06DB97F9D3
:104050002C300E2B02DC344B00221A6097F92C30E6
:10406000002BB8BF5B42322B02D12F4B01221A60CA
:104070002E4B7A6B1A602E4801F0DEFB97F92C303C
:104080001846062101F07AFD2A4801F0D5FB97ED8C
:10409000097ADFED2B7A67EE277AFDEEE77A17EEE5
:1040A000903A1846062101F069FD4CE197F92F304E
:1040B000732B47D1FFF794FD034687F8233097F918
:1040C000233007EE903AB8EEE77ADFED1B7AC7EEC1
:1040D000277AC7ED077A78689FED110AD7ED070AAE
:1040E000FFF7CAF8B86101F05FFC144801F0A4FBC7
:1040F000BB69002BB8BF5B421846062101F03EFDAC
:1041000021E100BFAFF300809A9999999999C93F2D
:104110006009002040A00008000C0240004400405C
:1041200000000000FE540542FC08002000090020A9
:1041300048A0000834A00008F853854150A00008AA
:104140000000C84297F92F307D2B17D1FFF748FDAB
:104150000346FB75FFF744FD0346BB75FFF740FDC3
:1041600003467B7597F9171097F9162097F91530C4
:10417000084611461A46FFF72FFEE4E097F92F3064
:104180007A2B12D1FFF72CFD03463B7597F91430BB
:1041900007EE103AF8EEC77A78680021B0EE670AA9
:1041A0004FF49672FDF704FACDE097F92F30792B92
:1041B00012D1FFF715FD0346FB7497F9133007EE94
:1041C000103AF8EEC77A78680121B0EE670A4FF42A
:1041D0009672FDF7EDF9B6E097F92F30782B12D1F2
:1041E000FFF7FEFC0346BB7497F9123007EE103A56
:1041F000F8EEC77A78680221B0EE670A4FF496723B
:10420000FDF7D6F99FE097F92F30772B12D1FFF702
:10421000E7FC03467B7497F9113007EE103AF8EE8D
:10422000C77A78680321B0EE670A4FF49672FDF7FB
:10423000BFF988E097F92F30752B12D1FFF7D0FC2A
:1042400003463B7497F9103007EE103AF8EEC77A40
:1042500078680521B0EE670A4FF49672FDF7A8F969
:1042600071E097F92F30762B12D1FFF7B9FC034696
:10427000FB7397F90F3007EE103AF8EEC77A7868BB
:104280000421B0EE670A4FF49672FDF791F95AE0F7
:1042900097F92F307C2B20D1FFF7A2FC0346BB738C
:1042A00097F90E3007EE903AB8EEE77A5FED5C7A58
:1042B000C7EE277AB0EE670AFCF7D2FB01F074FB79
:1042C000234801F0B9FA97F90E301846062101F09B
:1042D00055FC204801F0B0FA35E097F92F307B2BE0
:1042E00031D1FFF77DFC03467B737B7BDB43DBB285
:1042F000DB09DBB27B6397F90D30002BB8BF5B4263
:10430000C3F132033B63144B3A6B1A6097F90D30DB
:10431000002B02D1104B00221A6097F90D30002BB0
:10432000B8BF5B42322B02D10B4B01221A600B4B00
:104330007A6B1A6001F038FB094801F07DFA386B9E
:10434000062101F01BFC0A20FCF7DAFE7DE500BF28
:1043500058A0000864A00008FC0800200009002004
:1043600068A00008AFF3008080B584B002AF00F011
:1043700045FD012000F06AFD00F07AFD0346FB7167
:10438000FB79012B2BD1012001F05EFE072001F00B
:104390004BFE002000F0EEFD002000F023FE4FF465
:1043A000805000F003FE042300934FF480000421AA
:1043B000A822022300F084FD012000F09FFD00BF31
:1043C000392000F04DFF0346002BF9D0022000F009
:1043D000A5FD00BF00F0BEFD0346082BFAD108374B
:1043E000BD4680BD80B582B000AF26233B7101235E
:1043F000FB7100237B710123BB713B1D184601F04B
:10440000FFFE34233B710123FB7100237B710223E8
:10441000BB710837BD4680BD80B586B000AF4FF494
:104420000030012100F0C2FE0120012100F0A0FEB9
:104430000C233B6102233B750023BB750023FB75F6
:1044400002237B7507F110031648194601F0B8FCEA
:1044500014480221072201F0A1FD1248032107227E
:1044600001F09CFD4FF416533B600023BB800023FA
:10447000FB8000233B810023BB810C237B813B46D7
:1044800009481946FBF7BEFE074840F225510122B4
:10449000FBF7B4FF04480121FBF76EFF1837BD4658
:1044A00080BD00BF000002400044004080B58AB0DB
:1044B00000AF1620012100F05BFE4320012100F037
:1044C00075FE0120012100F08FFE0023BB84002334
:1044D000FB8342F210733B6240F24F13BB83002315
:1044E00087F8263007F11C036A48194601F0E6FEFA
:1044F00007F11C034FF08040194601F0DFFE07F181
:104500001C036548194601F0D9FE07F11C036348F6
:10451000194601F0D3FE4FF4E0737B6102233B7632
:1045200003237B760023BB760123FB7607F114037C
:104530005B48194601F044FC4FF400637B6107F1CE
:1045400014035848194601F03BFC4FF498437B6133
:1045500007F114035448194601F032FC5048062173
:10456000022201F01BFD4E480721022201F016FD38
:104570004B480821022201F011FD4A480B2101227B
:1045800001F00CFD48480E21092201F007FD4648C4
:104590000B21012201F002FD43480A21012201F012
:1045A000FDFC60233B804FF47A73BB6001237B806A
:1045B0000023BB810023FB814FF480733B820023E7
:1045C0007B823B463448194601F002FF32480821FD
:1045D00002F0ECF83B463048194601F073FF2E48D4
:1045E000082102F0FFF83B462B48194601F0F2FF84
:1045F0002948082102F014F93B462648194601F0E3
:1046000061FF2448082102F0EDF83B462348194693
:1046100001F0DEFE2148082102F0C8F83B464FF0C9
:104620008040194602F05CF84FF08040082102F00B
:1046300013F93B464FF08040194601F0CBFF4FF095
:104640008040082102F0ECF81248012101F0A0FEA0
:104650004FF08040012101F09BFE0F48012101F045
:1046600097FE0E48012101F093FE0A48012102F055
:1046700011F94FF08040012102F00CF906480121A8
:1046800002F008F90548012102F004F92837BD4677
:1046900080BD00BF00000140000400400018004041
:1046A00000080240001002400004024080B582B0C1
:1046B00000AF0820012100F05BFD01233B710023C6
:1046C000BB714FF480533B600123FB7103237B716B
:1046D0003B460348194601F073FB0837BD4680BDD1
:1046E000000C024080B500AF024840F22551FBF7B4
:1046F000E9FE80BD004C004080B58CB000AF4FF4A7
:104700008070012100F070FD012387F82E30002316
:1047100087F82D300123BB62032387F82C30002358
:1047200087F82F3007F128031E48194601F048FB8F
:1047300000233B604FF440337B600023BB604FF4A9
:10474000A063FB603B46184600F026FE00F0C2FD69
:1047500000233B6200233B6100237B750023FB6148
:104760000023BB61012387F8243000233B7507F148
:1047700010030D48194600F0BBFD0B48012100F065
:1047800033FE09480A210122062300F065FE0120BC
:1047900000F046FE0448012100F026FE3037BD46F9
:1047A00080BD00BF00080240002001400000000062
:1047B00080B584B000AF01F0F7F8FBF797FF034630
:1047C000FB60FB68002B07DDFB6823F40063FB60E4
:1047D000FB680C2B00D149E02D4800F001FF2C486C
:1047E00000F00EFF0346BB60B86804F0B5FB02465C
:1047F0000B461046194620A3D3E9002304F012FC0F
:1048000002460B46104619461DA3D3E9002304F0C7
:1048100009FC02460B46104619461BA3D3E90023A8
:1048200004F02AFD02460B461046194604F0DCFE51
:1048300003467B600020002101F012F8154800F0CB
:10484000FBFF97ED010A0220052101F0B3F80020DB
:10485000012101F005F8104800F0EEFFBB689BB2A3
:104860001BB21846052101F017FAA6E71037BD461E
:1048700080BD00BFAFF30080EC51B81E85EB0F4048
:104880007B14AE47E17A0A400000000000FEAF4012
:104890000020014070A000087CA00008AFF3008059
:1048A00080B584B000AF78600020002100F0D8FF10
:1048B0000023FB6017E07968FA6813469B001344F5
:1048C0009B000B44D3ED017AFDEEE77A17EE903AA8
:1048D000BB60B868062101F051F90A4800F0ACFF4E
:1048E000FB680133FB60FB68052BE4DD064800F044
:1048F000A3FF064800F0A0FF054800F09DFF103719
:10490000BD4680BD84A0000888A0000834A000082F
:104910008CA0000890B5A7B01EAF78600023FB61A3
:1049200001237B6101F040F87B686F4A9A667868E2
:10493000FFF7B6FF4FF4FA60FCF7E2FB7C686946CC
:1049400004F110027423084611461A4605F046F990
:1049500094E80F00FCF7DAFC7B68644A9A66786892
:10496000FFF79EFF0020022100F07AFF604800F070
:1049700063FFFB6901331846062101F0FFF80023AD
:10498000BB610023BB6100BFFBF7B0FE03463B6188
:104990003B69002BF8DB3B6903F40063FB603B6978
:1049A00023F400633B610023BB613B690C2B00D106
:1049B00096E03B69012B03D10023FB610123BB611E
:1049C0003B69022B03D10123FB610123BB613B69DE
:1049D000032B03D10223FB610123BB613B69042B41
:1049E00003D10323FB610123BB613B69052B03D189
:1049F0000423FB610123BB613B69062B03D1052323
:104A0000FB610123BB613B69202B1AD17968FA69EC
:104A100013469B0013449B000B4493ED017A7B6982
:104A200006EE903AF8EEE67A77EE677A7968FA69F8
:104A300013469B0013449B000B44C3ED017A0123F2
:104A4000BB613B69212B1AD17968FA6913469B0037
:104A500013449B000B4493ED017A7B6906EE903A78
:104A6000F8EEE67A77EE277A7968FA6913469B00C2
:104A700013449B000B44C3ED017A0123BB613B69E6
:104A8000112B03D101200121FEF7AAFF3B69102B56
:104A900003D101200021FEF7A3FFBB69002B1ED02C
:104AA0007C68694604F110027423084611461A46D0
:104AB00005F094F894E80F00FCF728FC0020022190
:104AC00000F0CEFE0A4800F0B7FEFB69013318463D
:104AD000062101F053F87868FFF7E2FE51E750E74E
:104AE0002437BD4690BD00BF0000F04100004842A1
:104AF00090A0000880B586B000AF00237B6140F233
:104B0000DC533B610A23FB6000BFFBF7EFFD03466C
:104B1000BB60BB68002BF8DBBB6803F400637B6001
:104B2000BB6823F40063BB60BB680C2B00D17DE045
:104B3000BB68012B01D100237B61BB68022B01D133
:104B400001237B61BB68032B01D102237B61BB681E
:104B5000042B01D103237B61BB68052B01D1042306
:104B60007B61BB68062B01D105237B61BB68202BD1
:104B70000FD13A69FB6813443B617B69DBB23A6948
:104B800007EE102AF8EEC77A1846B0EE670AFCF76F
:104B900003F8BB68212B0FD13A69FB68D31A3B613C
:104BA0007B69DBB23A6907EE102AF8EEC77A18463D
:104BB000B0EE670AFBF7F0FFBB68112B02D1FB6870
:104BC000013BFB60BB68102B02D1FB680133FB602B
:104BD00000F0EAFE174800F02FFE7B69013318460B
:104BE000062100F0CBFF144800F026FEF8680621ED
:104BF00000F0C4FF0020012100F032FE0F4800F059
:104C00001BFE3869062100F0B9FF7B69DBB23A6907
:104C100007EE102AF8EEC77A1846B0EE670AFBF7DF
:104C2000BBFF3220FCF76CFA00BF6DE71837BD46BA
:104C300080BD00BF90A000089CA00008A4A00008B0
:104C400080B582B000AF00F0AFFE00BFFBF74EFDB5
:104C500003467B607B68002BF8DB7B6823F40063F2
:104C60007B607B680C2B00D135E07B68112B03D176
:104C70004FF63870FBF71EFF7B68102B02D1C8205F
:104C8000FBF718FF7B68082B02D10020FBF702FF1F
:104C90007B68092B03D142F21070FBF7FBFE00206A
:104CA000002100F0DDFD0D4B1B6C07EE903AB8EED5
:104CB000677ADFED0B7AC7EE277AB0EE670A01203C
:104CC000052100F077FE074800F0B6FD6420FCF7F0
:104CD00017FA00BFB9E70837BD4680BD00040040A1
:104CE00000401C46B0A0000880B5C8B01EAFFFF75A
:104CF0003BFBFFF7DBFCFFF7D9FBFEF791F907F170
:104D000020031846FCF7B6FC694607F1300274230D
:104D1000084611461A4604F061FF07F120030FCB45
:104D2000FCF7F4FA07F1200318469FED330ADFED94
:104D3000320A9FED311ADFED301A9FED2F2ADFED99
:104D40002E2AC821FCF712FBFBF7C6FE00F0BEFDC1
:104D5000FFF748FBFBF7A4FCFFF75EFBFEF7AEFE98
:104D6000FCF7C8F9FEF704FBFFF7C6FCFCF7DCFC18
:104D70003B461846FCF728F9FBF7AEFDC7F8A40040
:104D8000D7F8A430002B36D0D7F8A430022B02D1AC
:104D9000FFF7B0FE2FE0D7F8A430032B05D107F1C1
:104DA00020031846FFF7B6FD25E0D7F8A430062B00
:104DB00002D1FFF745FF1EE0D7F8A430072B02D140
:104DC000FEF72EFE17E0D7F8A430092B02D1FFF72B
:104DD000EFFC10E0D7F8A4300A2B02D1FCF710FE4C
:104DE00009E0D7F8A4300B2B05D107F120031846B2
:104DF000FFF716F8C0E7BFE70000000080B400AF7F
:104E0000104B104A126842F001021A600D4B00224A
:104E10009A600C4A0B4B1B6823F0847323F4803395
:104E20001360084B084A5A60064B064A126822F47F
:104E300080221A60034B0022DA60BD465DF8047BD5
:104E4000704700BF003802401030002480B483B0A7
:104E500000AF0346FB71054B00221A70034BFA7931
:104E60001A700C37BD465DF8047B7047023802406B
:104E700080B582B000AF00233B600023FB710023AC
:104E8000BB71312000F0ECF90346BB713B68013384
:104E90003B603B68B3F5A06F02D0BB79002BF0D02C
:104EA000312000F0DDF90346002B02D00123FB7115
:104EB00001E00023FB71FB7918460837BD4680BD31
:104EC00080B485B000AFF860B9607A603B600A4B8F
:104ED0007A689101BA6811433A685208013A12049B
:104EE0001143FA681143BA6912060A435A6014372B
:104EF000BD465DF8047B70470038024080B483B043
:104F000000AF0346FB71044BFA791A600C37BD46BB
:104F10005DF8047B704700BF6000474280B485B0F5
:104F200000AF78600023FB60094B9B68FB60FB6867
:104F300023F00303FB60FA687B681343FB60044BB8
:104F4000FA689A601437BD465DF8047B704700BF6D
:104F50000038024080B400AF054B9B68DBB203F021
:104F60000C03DBB21846BD465DF8047B704700BFFA
:104F70000038024080B485B000AF78600023FB6049
:104F8000094B9B68FB60FB6823F0F003FB60FA6849
:104F90007B681343FB60044BFA689A601437BD4684
:104FA0005DF8047B704700BF0038024080B485B0D4
:104FB00000AF78600023FB60094B9B68FB60FB68D7
:104FC00023F4E053FB60FA687B681343FB60044BF7
:104FD000FA689A601437BD465DF8047B704700BFDD
:104FE0000038024080B485B000AF78600023FB60D9
:104FF000094B9B68FB60FB6823F46043FB607B68A4
:10500000DB00FA681343FB60034BFA689A601437BD
:10501000BD465DF8047B70470038024080B489B01B
:1050200000AF78600023BB6100237B610023FB613C
:1050300002233B610023FB600223BB60484B9B685B
:1050400003F00C03BB61BB69042B07D0082B09D00C
:10505000002B3FD17B68434A1A603FE07B68424A9D
:105060001A603BE03E4B5B6803F480039B0DFB60E2
:105070003B4B5B6803F03F03BB60FB68002B0DD02C
:10508000394ABB68B2FBF3F2354B596847F6C07337
:105090000B409B0903FB02F3FB610CE0314ABB6848
:1050A000B2FBF3F22E4B596847F6C0730B409B09D5
:1050B00003FB02F3FB612A4B5B6803F440331B0CD8
:1050C00001335B003B61FA693B69B2FBF3F27B6839
:1050D0001A6003E07B68234A1A6000BF204B9B687C
:1050E00003F0F003BB61BB691B09BB611F4ABB69CD
:1050F00013441B78DBB27B617B681A687B69DA40FA
:105100007B685A60164B9B6803F4E053BB61BB6934
:105110009B0ABB61154ABB6913441B78DBB27B61F8
:105120007B685A687B69DA407B689A600C4B9B68A5
:1051300003F46043BB61BB695B0BBB610B4ABB699A
:1051400013441B78DBB27B617B685A687B69DA4069
:105150007B68DA602437BD465DF8047B704700BF8A
:10516000003802400024F40000127A008C00002075
:1051700080B483B000AF78600B46FB70FB78002BE7
:1051800006D0094B084A116B7A680A431A6306E095
:10519000054B054A116B7A68D2430A401A630C37F3
:1051A000BD465DF8047B70470038024080B483B090
:1051B00000AF78600B46FB70FB78002B06D0094BE4
:1051C000084A116C7A680A431A6406E0054B054ADE
:1051D000116C7A68D2430A401A640C37BD465DF8F8
:1051E000047B70470038024080B483B000AF786021
:1051F0000B46FB70FB78002B06D0094B084A516C1C
:105200007A680A435A6406E0054B054A516C7A688D
:10521000D2430A405A640C37BD465DF8047B7047A0
:105220000038024080B483B000AF78600B46FB705A
:10523000FB78002B06D0094B084A516A7A680A436A
:105240005A6206E0054B054A516A7A68D2430A4021
:105250005A620C37BD465DF8047B70470038024047
:1052600080B487B000AF0346FB710023FB600023CE
:105270007B610023FB74FB795B09DBB2FB60FB689D
:10528000012B03D1124B1B687B6109E0FB68022BE9
:1052900003D10F4B1B6F7B6102E00D4B5B6F7B619A
:1052A000FB7903F01F03FB60FB687A6922FA03F3C2
:1052B00003F00103002B02D00123FB7401E0002363
:1052C000FB74FB7C18461C37BD465DF8047B7047B9
:1052D0000038024080B500AF4FF480700121FFF725
:1052E000A1FF4FF480700021FFF79CFF80BD00BF3D
:1052F00080B485B000AF786039600023FB60002384
:10530000FB727B685B68FB60FB6823F0407323F4EF
:105310008073FB603B681B791A023B681B68134370
:10532000FA681343FB607B68FA685A607B689B6885
:10533000FB60FA68174B1340FB603B681A693B68D7
:10534000DB681A433B689B681A433B685B795B00E8
:105350001343FA681343FB607B68FA689A607B68C2
:10536000DB6AFB60FB6823F47003FB603B681B7D1A
:10537000013BDAB2FB7A1343FB72FB7A1B05FA6836
:105380001343FB607B68FA68DA621437BD465DF848
:10539000047B7047FDF7FFC080B485B000AF786034
:1053A0000023FB600E4B5B68FB60FA680D4B1340FB
:1053B000FB607B681A687B685B681A437B689B6844
:1053C0001A437B68DB681343FA681343FB60044BA2
:1053D000FA685A601437BD465DF8047B704700BF19
:1053E00000230140E030FCFF80B483B000AF786060
:1053F0000B46FB70FB78002B06D07B689B6843F064
:1054000001027B689A6005E07B689B6823F00102DB
:105410007B689A600C37BD465DF8047B704700BF1F
:1054200080B483B000AF0346FB71FB79002B06D03C
:10543000084B084A526842F400025A6005E0054BE6
:10544000044A526822F400025A600C37BD465DF8E7
:10545000047B70470023014080B485B000AF7860C2
:10546000F970BA707B700023FB600023BB60FB788F
:10547000092B23D97B68DB68FB60FB78A3F10A0268
:1054800013465B001344072202FA03F3BB60BB68B8
:10549000DB43FA681340FB607978FB78A3F10A02DA
:1054A00013465B00134401FA03F3BB60FA68BB6860
:1054B0001343FB607B68FA68DA601EE07B681B6957
:1054C000FB60FA7813465B001344072202FA03F3E9
:1054D000BB60BB68DB43FA681340FB607978FA78FD
:1054E00013465B00134401FA03F3BB60FA68BB6820
:1054F0001343FB607B68FA681A61BB78062B21D8DE
:105500007B685B6BFB60BB785A1E13469B001344A1
:105510001F2202FA03F3BB60BB68DB43FA68134047
:10552000FB60F978BB785A1E13469B00134401FABE
:1055300003F3BB60FA68BB681343FB607B68FA68DF
:105540005A6347E0BB780C2B21D87B681B6BFB6050
:10555000BB78DA1F13469B0013441F2202FA03F3A1
:10556000BB60BB68DB43FA681340FB60F978BB782B
:10557000DA1F13469B00134401FA03F3BB60FA6879
:10558000BB681343FB607B68FA681A6322E07B68A0
:10559000DB6AFB60BB78A3F10D0213469B0013444A
:1055A0001F2202FA03F3BB60BB68DB43FA681340B7
:1055B000FB60F978BB78A3F10D0213469B001344FE
:1055C00001FA03F3BB60FA68BB681343FB607B68B6
:1055D000FA68DA621437BD465DF8047B704700BF95
:1055E00080B483B000AF78607B689B6843F08042F2
:1055F0007B689A600C37BD465DF8047B704700BF3E
:1056000080B483B000AF78607B68DB6C9BB21846D7
:105610000C37BD465DF8047B704700BF80B582B093
:1056200000AF0346FB7119484021012200F08CFCB9
:10563000FB7903F00103DBB2144808211A4600F09D
:1056400083FCFB7903F00203DBB2104804211A4605
:1056500000F07AFCFB7903F00403DBB20B484FF453
:1056600080411A4600F070FCFB7903F00803DBB2BE
:1056700006484FF400411A4600F066FC03484021FA
:10568000002200F061FC0837BD4680BD00100240DA
:1056900080B582B000AF0023FB711D48402101227C
:1056A00000F052FC1A48082100F018FC03461A4684
:1056B000FB791343FB711648042100F00FFC0346ED
:1056C0005B00DAB2FB791343DBB2FB7110484FF495
:1056D000804100F003FC03469B00DAB2FB791343E0
:1056E000DBB2FB710A484FF4004100F0F7FB0346C0
:1056F000DB00DAB2FB791343DBB2FB7104484021D3
:10570000002200F021FCFB7918460837BD4680BD19
:105710000010024080B582B000AF0023FB711D4B2A
:105720004CF20C021A601B4B00221A71194B00221A
:105730009A711948174900F043FB174820210122AC
:1057400000F002FC14481021002200F0FDFBFFF7DE
:105750009FFF03461B01DAB2FB791343DBB2FB71F7
:10576000FFF796FF03461A46FB791343FB71094B7B
:105770004CF20C021A60074B01221A71054B0022F1
:105780009A710548034900F01BFBFB79184608375E
:10579000BD4680BD700A00200010024080B582B076
:1057A00000AF0346FB7111482021002200F0CCFB22
:1057B0000E481021012200F0C7FBFB791B09DBB268
:1057C0001846FFF72BFFFB7903F00F03DBB21846F7
:1057D000FFF724FF00BFFFF79DFF0346DBB25BB27C
:1057E000002BF8DB0837BD4680BD00BF001002402B
:1057F00080B582B000AF0346FB710E483021002215
:1058000000F0A2FBFB791B09DBB21846FFF706FF8D
:10581000FB7903F00F03DBB21846FFF7FFFE00BF72
:10582000FFF778FF0346DBB25BB2002BF8DB0837EB
:10583000BD4680BD0010024080B582B000AF7860E8
:1058400006E07B685A1C7A601B781846FFF7A6FFB3
:105850007B681B78002BF4D10837BD4680BD00BFA4
:1058600080B582B000AF02460B46FA71BB71BB79BE
:10587000032B27D801A252F823F000BF8D5800084F
:105880009B580008A9580008B7580008FB79803BCE
:10589000DBB21846FFF7ACFF14E0FB79403BDBB20C
:1058A0001846FFF7A5FF0DE0FB796C3BDBB218460D
:1058B000FFF79EFF06E0FB792C3BDBB21846FFF7B3
:1058C00097FF00BF0837BD4680BD00BF80B582B0DE
:1058D00000AF0023FB7100233B6010200121FFF784
:1058E00047FC2D4B4CF27C021A602B4B00229A7124
:1058F000294B02225A71284B0022DA71264B0122D1
:105900001A712648244900F05BFA2448702100F0FF
:105910000DFB00233B6002E03B6801333B603A68CB
:105920001F4B9A42F8D90023FB7111E00320FFF7C7
:1059300075FE00233B6002E03B6801333B603A6840
:10594000184B9A42F8D9FB79DBB20133DBB2FB7119
:10595000FB79DBB2022BE9D90220FFF75FFE0023BF
:105960003B6002E03B6801333B603A684EF65F23E0
:105970009A42F7D92820FFF73BFF0820FFF738FFAE
:105980000120FFF735FF0620FFF732FF0C20FFF75D
:105990002FFF0837BD4680BD700A0020001002406E
:1059A000BFC62D00DF93040080B500AF0120FFF7D4
:1059B0001FFF80BD80B586B000AF87ED010A0246AB
:1059C0000B46FA70BB7001233B61D7ED017AF5EE0F
:1059D000C07AF1EE10FA08D50123FB75D7ED017AF4
:1059E000F1EE677AC7ED017A01E00023FB75012330
:1059F000FB7308E03A6913469B0013445B003B616C
:105A0000FB7B0133FB73FA7BFB789A42F2D30023D2
:105A1000BB7301237B7376E03B6907EE103AF8EE27
:105A2000477A97ED017AC7EE277AFCEEE77A17EE10
:105A3000903A9AB2504BA3FB0213D9080B469B0035
:105A40000B445B00D31A9BB2002B0BD13B69012B9B
:105A50001AD197ED017AF2EE047AB4EEE77AF1EE1C
:105A600010FA11D5FB7D002B06D0BB7B002B03D198
:105A70002D20FFF793FE05E0BB7B002B02D12020F9
:105A8000FFF78CFE0123BB73BB7B012B1ED13B694F
:105A900007EE103AF8EE477A97ED017AC7EE277ACB
:105AA000FCEEE77A17EE903A9AB2334BA3FB02135F
:105AB000D9080B469B000B445B00D31A9BB2DBB2A8
:105AC0003033DBB21846FFF769FE13E097ED017A39
:105AD000F7EE007AB4EEE77AF1EE10FA07D57A7BAA
:105AE000FB789A4203D13020FFF758FE02E02020D5
:105AF000FFF754FE3A69204BA3FB0213DB083B611E
:105B00007B7B01337B737A7BFB789A4284D92E208E
:105B1000FFF744FE01233B6101233B7324E03A6914
:105B200013469B0013445B003B613B6907EE903AD0
:105B3000B8EE677AD7ED017A67EE277AFCEEE77A5E
:105B400017EE901A0C4BA3FB0123DA0813469B00B7
:105B500013445B00CA1AD3B23033DBB21846FFF7E6
:105B60001DFE3B7B01333B733A7BBB789A42D6D90F
:105B70001837BD4680BD00BFCDCCCCCC80B586B03B
:105B800000AF78600B46FB7001233B617B68002B04
:105B900008DA0123FB75FB78013BFB707B685B42F5
:105BA0007B6001E00023FB750123FB7308E03A6989
:105BB00013469B0013445B003B61FB7B0133FB738B
:105BC000FA7BFB789A42F2D30023BB7301237B73E9
:105BD00058E07A683B69B2FBF3F39AB22D4BA3FB12
:105BE0000213D9080B469B000B445B00D31A9BB2EF
:105BF000002B05D13B69012B14D17B68092B11DCEB
:105C0000FB7D002B06D0BB7B002B03D12D20FFF7A3
:105C1000C5FD05E0BB7B002B02D12020FFF7BEFDB8
:105C20000123BB73BB7B012B15D17A683B69B2FBA7
:105C3000F3F39AB2174BA3FB0213D9080B469B0050
:105C40000B445B00D31A9BB2DBB23033DBB2184695
:105C5000FFF7A4FD0DE07B68002B07DC7A7BFB7867
:105C60009A4203D13020FFF799FD02E02020FFF790
:105C700095FD3A69074BA3FB0213DB083B617B7B75
:105C800001337B737A7BFB789A42A2D91837BD46E1
:105C900080BD00BFCDCCCCCC80B586B000AF024675
:105CA0000B46FA807B7101233B61B7F90630002B6C
:105CB00009DA0123FB757B79013B7B71FB885B4231
:105CC0009BB2FB8001E00023FB750123FB7308E01E
:105CD0003A6913469B0013445B003B61FB7B013335
:105CE000FB73FA7B7B799A42F2D30023BB730123C7
:105CF0007B735CE0B7F906203B69B2FBF3F39AB221
:105D00002E4BA3FB0213D9080B469B000B445B00F0
:105D1000D31A9BB2002B06D13B69012B15D1B7F9E1
:105D20000630092B11DCFB7D002B06D0BB7B002B42
:105D300003D12D20FFF732FD05E0BB7B002B02D104
:105D40002020FFF72BFD0123BB73BB7B012B16D15A
:105D5000B7F906203B69B2FBF3F39AB2174BA3FBEA
:105D60000213D9080B469B000B445B00D31A9BB26D
:105D7000DBB23033DBB21846FFF710FD0EE0B7F9A7
:105D80000630002B07DC7A7B7B799A4203D13020E6
:105D9000FFF704FD02E02020FFF700FD3A69074B02
:105DA000A3FB0213DB083B617B7B01337B737A7BB4
:105DB0007B799A429ED91837BD4680BDCDCCCCCCDC
:105DC00080B487B000AF7860396000237B61002326
:105DD0003B610023FB6000237B6176E07B6901224D
:105DE00002FA03F33B613B681A683B691340FB60AE
:105DF000FA683B699A4265D17B681A687B695B00E7
:105E0000032101FA03F3DB431A407B681A607B68C5
:105E10001A683B681B7919467B695B0001FA03F33A
:105E20001A437B681A603B681B79012B03D03B68DF
:105E30001B79022B2ED17B689A687B695B0003215A
:105E400001FA03F3DB431A407B689A607B689A6827
:105E50003B685B7919467B695B0001FA03F31A43DF
:105E60007B689A607B685A687B699BB2012101FA62
:105E700003F3DB431A407B685A607B685A683B68CF
:105E80009B7919467B699BB201FA03F39BB21A43D3
:105E90007B685A607B68DA687B699BB25B00032190
:105EA00001FA03F3DB431A407B68DA607B68DA6847
:105EB0003B68DB7919467B695B0001FA03F31A43FF
:105EC0007B68DA607B6901337B617B690F2B85D945
:105ED0001C37BD465DF8047B704700BF80B485B0B9
:105EE00000AF78600B467B800023FB737B681A69E8
:105EF0007B881340002B02D00123FB7301E00023B9
:105F0000FB73FB7B18461437BD465DF8047B704776
:105F100080B483B000AF78600B467B807B687A8862
:105F20001A830C37BD465DF8047B704780B483B09C
:105F300000AF78600B467B807B687A885A830C3789
:105F4000BD465DF8047B704780B483B000AF7860D5
:105F500013460A467A807B707B78002B03D07B68DF
:105F60007A881A8302E07B687A885A830C37BD46A8
:105F70005DF8047B704700BF80B483B000AF7860E9
:105F80000B467B807B685A697B885A407B685A61E4
:105F90000C37BD465DF8047B704700BF80B485B008
:105FA00000AF786013460A467A807B700023FB605E
:105FB0000023BB607A787B8803F007039B0002FA1A
:105FC00003F3FB607B88DB089BB21A467B88DB0807
:105FD0009BB219467B68083153F821107B8803F087
:105FE00007039B000F2000FA03F3DB4319407B6893
:105FF000083243F822107B88DB089BB21A467B6884
:10600000083253F82220FB681343BB607B88DB080F
:106010009BB21A467B680832B96843F822101437DD
:10602000BD465DF8047B704780B483B000AF7860F4
:10603000044B7A68D2B21A700C37BD465DF8047B07
:10604000704700BF003C024080B483B000AF0346FD
:10605000FB71FB79002B06D0084B084A126842F40A
:1060600080721A6005E0054B044A126822F48072BF
:106070001A600C37BD465DF8047B7047003C024057
:1060800080B485B000AF78600B4B1B68002B02D149
:10609000094B0A4A1A60084B1B68FB60064B1A68DA
:1060A0007B681A44044B1A60FB6818461437BD46D7
:1060B0005DF8047B704700BF0C0900207C0A0020BB
:1060C00080B485B000AF78600023FB60324BFB608A
:1060D0007B689B79002B4DD02F4B2F4A11687A6833
:1060E0001268D2430A401A602B4B2B4A51687A68D7
:1060F0001268D2430A405A607B681B79FA681344DD
:10610000FB60FB68FA6811687A6812680A431A60D3
:10611000214B214A91687A681268D2430A409A60FA
:106120001D4B1D4AD1687A681268D2430A40DA6072
:106130007B685B79102B0ED1174B174A91687A68F0
:1061400012680A439A60144B134AD1687A6812683D
:106150000A43DA601BE0104BFB607B685B79FA68EE
:106160001344FB60FB68FA6811687A6812680A4396
:106170001A600CE07B681B79FA681344FB60FB68CB
:10618000FA6811687A681268D2430A401A601437B4
:10619000BD465DF8047B7047003C014080B485B08B
:1061A00000AF78600023FB730023BB600C4B1A68C0
:1061B0007B681340BB600A4B5A697B681340002B15
:1061C00005D0BB68002B02D00123FB7301E0002344
:1061D000FB73FB7B18461437BD465DF8047B7047A4
:1061E000003C014080B483B000AF7860034B7A6814
:1061F0005A610C37BD465DF8047B7047003C014096
:1062000080B485B000AF78600023FB730023BB73BC
:106210000F237B737B68DB78002B37D0254BDB6843
:10622000DB4303F4E0631B0AFB73FB7BC3F1040352
:10623000BB737A7BFB7B42FA03F37B737B685B78EF
:106240001A46BB7B02FA03F3FB737B689A787B7B6D
:106250001340DAB2FB7B1343FB73FB7B1B01FB7325
:10626000154A7B681B781344FA7B83F80023124B92
:106270007A6812785209D2B27968097801F01F0160
:10628000012000FA01F143F822100EE00A4B7A686F
:1062900012785209D2B27968097801F01F01012001
:1062A00000FA01F1203243F822101437BD465DF8A0
:1062B000047B704700ED00E000E100E080B485B0B1
:1062C00000AF786039600023FB817B681B88FB810D
:1062D0007A68284B9A4213D07A68274B9A420FD09B
:1062E0007B68B3F1804F0BD07A68244B9A4207D079
:1062F0007A68234B9A4203D07A68224B9A4208D19B
:10630000FB8923F07003FB813B685A88FB891343A8
:10631000FB817A681C4B9A420CD07A681B4B9A42DC
:1063200008D0FB8923F44073FB813B681A89FB8901
:106330001343FB817B68FA891A803B685A687B6843
:10634000DA623B681A887B681A857A68094B9A4238
:1063500003D07A68084B9A4204D13B689B7A1A466C
:106360007B681A867B6801229A821437BD465DF8E5
:10637000047B70470000014000040140000400401D
:1063800000080040000C00400010004000140040D5
:1063900080B483B000AF78600B46FB70FB78002BB5
:1063A00008D07B681B889BB243F001039AB27B68DC
:1063B0001A8007E07B681B889BB223F001039AB226
:1063C0007B681A800C37BD465DF8047B704700BFC0
:1063D00080B485B000AF7860396000237B810023F2
:1063E000FB810023BB817B681B8C9BB223F00103E4
:1063F0009AB27B681A847B681B8CFB817B689B88C4
:10640000BB817B681B8B7B817B8923F070037B8145
:106410007B8923F003037B813B681A887B891343C4
:106420007B81FB8923F00203FB813B689A89FB890E
:106430001343FB813B685A88FB891343FB817A68CD
:106440001E4B9A4203D07A681D4B9A4223D1FB8996
:1064500023F00803FB813B68DA89FB891343FB8146
:10646000FB8923F00403FB813B689A88FB89134373
:10647000FB81BB8923F48073BB81BB8923F4007348
:10648000BB813B681A8ABB891343BB813B685A8A2C
:10649000BB891343BB817B68BA899A807B687A8900
:1064A0001A833B689A687B685A637B68FA891A8406
:1064B0001437BD465DF8047B704700BF0000014003
:1064C0000004014080B485B000AF786039600023DB
:1064D0007B810023FB810023BB817B681B8C9BB2EB
:1064E00023F010039AB27B681A847B681B8CFB81B3
:1064F0007B689B88BB817B681B8B7B817B8923F4BA
:10650000E0437B817B8923F440737B813B681B885C
:106510001B029AB27B8913437B81FB8923F0200302
:10652000FB813B689B891B019AB2FB891343FB816A
:106530003B685B881B019AB2FB891343FB817A6835
:10654000224B9A4203D07A68214B9A422BD1FB8985
:1065500023F08003FB813B68DB891B019AB2FB8936
:106560001343FB81FB8923F04003FB813B689B883D
:106570001B019AB2FB891343FB81BB8923F480631F
:10658000BB81BB8923F40063BB813B681B8A9B00F2
:106590009AB2BB891343BB813B685B8A9B009AB26A
:1065A000BB891343BB817B68BA899A807B687A89EF
:1065B0001A833B689A687B689A637B68FA891A84B5
:1065C0001437BD465DF8047B704700BF00000140F2
:1065D0000004014080B485B000AF786039600023CA
:1065E0007B810023FB810023BB817B681B8C9BB2DA
:1065F00023F480739AB27B681A847B681B8CFB81BE
:106600007B689B88BB817B689B8B7B817B8923F02C
:1066100070037B817B8923F003037B813B681A88AD
:106620007B8913437B81FB8923F40073FB813B68E7
:106630009B891B029AB2FB891343FB813B685B88F1
:106640001B029AB2FB891343FB817A68224B9A4260
:1066500003D07A68214B9A422BD1FB8923F4006343
:10666000FB813B68DB891B029AB2FB891343FB81E8
:10667000FB8923F48063FB813B689B881B029AB2F1
:10668000FB891343FB81BB8923F48053BB81BB8906
:1066900023F40053BB813B681B8A1B019AB2BB8960
:1066A0001343BB813B685B8A1B019AB2BB891343CE
:1066B000BB817B68BA899A807B687A899A833B68B8
:1066C0009A687B68DA637B68FA891A841437BD4656
:1066D0005DF8047B704700BF0000014000040140EA
:1066E00080B485B000AF786039600023BB8100239F
:1066F0007B810023FB817B681B8C9BB223F480533E
:106700009AB27B681A847B681B8C7B817B689B8830
:10671000FB817B689B8BBB81BB8923F4E043BB81FE
:10672000BB8923F44073BB813B681B881B029AB270
:10673000BB891343BB817B8923F400537B813B6876
:106740009B891B039AB27B8913437B813B685B88DF
:106750001B039AB27B8913437B817A68114B9A425F
:1067600003D07A68104B9A420AD1FB8923F4804304
:10677000FB813B681B8A9B019AB2FB891343FB8117
:106780007B68FA899A807B68BA899A833B689A68A1
:106790007B681A647B687A891A841437BD465DF871
:1067A000047B7047000001400004014080B485B0C4
:1067B00000AF78600B467B800023FB817B681B8BDE
:1067C000FB81FB8923F00803FB81FA897B88134353
:1067D000FB817B68FA891A831437BD465DF8047B18
:1067E000704700BF80B485B000AF78600B467B80F7
:1067F0000023FB817B681B8BFB81FB8923F40063F7
:10680000FB817B881B029AB2FB891343FB817B6867
:10681000FA891A831437BD465DF8047B704700BFC0
:1068200080B485B000AF78600B467B800023FB818D
:106830007B689B8BFB81FB8923F00803FB81FA8932
:106840007B881343FB817B68FA899A831437BD46A2
:106850005DF8047B704700BF80B485B000AF7860FE
:106860000B467B800023FB817B689B8BFB81FB8934
:1068700023F40063FB817B881B029AB2FB891343DC
:10688000FB817B68FA899A831437BD465DF8047BE7
:10689000704700BF80B483B000AF78600B46FB70D8
:1068A000FB78002B0CD07B68B3F844309BB26FEAC6
:1068B00043436FEA53439AB27B68A3F8442009E04C
:1068C0007B68B3F844309BB2C3F30E039AB27B6883
:1068D000A3F844200C37BD465DF8047B704700BF29
:1068E00080B483B000AF786013460A467A807B702C
:1068F0007B78002B08D07B689B899AB27B881343F6
:106900009AB27B689A8109E07B689B899AB27B88FE
:10691000DB439BB213409AB27B689A810C37BD4629
:106920005DF8047B704700BF80B485B000AF78602D
:106930000B467B800023FB730023BB8100237B81FC
:106940007B681B8A9AB27B881340BB817B689B89DA
:106950009AB27B8813407B81BB89002B05D07B8951
:10696000002B02D00123FB7301E00023FB73FB7BB0
:1069700018461437BD465DF8047B704780B483B079
:1069800000AF78600B467B807B88DB439AB27B68E4
:106990001A820C37BD465DF8047B7047000000008A
:1069A00000B553EC102B264A23F00043934285B0E8
:1069B00022DD244A93420BDD51EC100B10EE102A1D
:1069C0000B4602F07BF941EC100B05B05DF804FBBF
:1069D000684600F069F900F0030001289DED000B06
:1069E0009DED021B20D0022811D000B3012001F040
:1069F000A3FA51EC100BE6E79FED0F1B00F090FDA2
:106A000051EC100B41EC100B05B05DF804FB00F0ED
:106A100087FD53EC102B10EE100A03F1004141ECFE
:106A2000100B05B05DF804FB01F086FAF1E700F009
:106A300077FD51EC100BC6E70000000000000000DD
:106A4000FB21E93FFFFFEF7F00B553EC102B284AF5
:106A500023F00043934285B029DD264A93420BDDA3
:106A600051EC100B10EE102A0B4602F027F941EC06
:106A7000100B05B05DF804FB684600F015F900F056
:106A8000030001289DED000B9DED021B1FD0022885
:106A900019D008B300F044FD53EC102B10EE100A8F
:106AA00003F1004141EC100B05B05DF804FB9FEDD4
:106AB0000E1B002001F040FA51EC100B41EC100BC2
:106AC00005B05DF804FB012001F036FAE4E700F0C0
:106AD00027FD51EC100BCAE7012001F02DFA51EC13
:106AE000100BC4E7AFF300800000000000000000BE
:106AF000FB21E93FFFFFEF7F00B510EE103A1A4A85
:106B000023F00043934283B019DDB3F1FF4F04DB60
:106B100030EE400A03B05DF804FB684600F0B8FBB5
:106B200000F0030001289DED000ADDED010A12D0FE
:106B300002280BD0A0B1012001F02EFEEAE7DFED24
:106B40000B0A01F0C1FA03B05DF804FB01F0BCFAD6
:106B5000B1EE400ADEE701F01FFEB1EE400AD9E7D0
:106B600001F0B2FAD6E700BFD80F493F000000009D
:106B700000B510EE103A1B4A23F00043934283B055
:106B80001ADDB3F1FF4F04DB30EE400A03B05DF8CD
:106B900004FB684600F07CFB00F0030001289DED3B
:106BA000000ADDED010A15D002280DD0A8B101F0D0
:106BB0008BFAB1EE400AE9E7DFED0B0A002001F0A5
:106BC000EBFD03B05DF804FB012001F0E5FDB1EE43
:106BD000400ADBE701F078FAD8E7012001F0DCFD9C
:106BE000D4E700BFD80F493F0000000070B52DED7D
:106BF000048BB0EE408AF0EE608A294E8AB000F035
:106C00007BFA96F90030B0EE409AF0EE609A0133CC
:106C10000FD0B0EE480AF0EE680A01F0ADFE40B1C8
:106C20000024002551EC180B22462B4602F06CFC88
:106C300038B9B0EE490AF0EE690A0AB0BDEC048B2F
:106C400070BD184B36780193012200238DED048B23
:106C50008DED028B009208936EB9CDE9064568462A
:106C600001F0B4FE88B1089BA3B99DED060B0AB0F4
:106C7000BDEC048B70BD2046294622462B4602F00F
:106C8000FBFA022ECDE90601E9D102F0FDFC212339
:106C90000360E8E702F0F8FC089B0360E5E700BF4B
:106CA0009C000020B8A000082DE9F04F5BEC10AB71
:106CB000994B2BF000479F4291B0804640F386806D
:106CC000964B9F4229DCBBF1000F51EC100B88A3BF
:106CD000D3E9002340F3A68101F0F0FF904B9F42DF
:106CE00004460D4600F08A8083A3D3E9002301F017
:106CF000E5FF02460B46C8E900232046294601F07D
:106D0000DDFF7DA3D3E9002301F0D8FF0126C8E908
:106D10000201304611B0BDE8F08F824B9F4240F334
:106D20008A80814B9F425CDC4FEA2759A9F21649C1
:106D3000A7EB095351EC100B19461F4602F00CFC4F
:106D400002F00AF904460D4622462B4639465046C3
:106D5000CDE90A4501F0B2FF0022744B02F062F95E
:106D60000F46064602F0F8FB02F0F6F804460D4620
:106D700022462B4630463946CDE90C4501F09EFFB0
:106D800000226A4B02F04EF900220023CDE90E01E9
:106D900002F0B0FB002800F0718100232046294654
:106DA000002202F0A7FB002814BF012302230222C5
:106DB0005F49009201914A460AA8414600F0F0FC62
:106DC000BBF1000FC0F24C81064606E00022002312
:106DD00088ED000BC0E902230026304611B0BDE863
:106DE000F08F51EC100B10EE102A0B4601F066FFED
:106DF0000026C8E90201C8E90001EEE740A3D3E993
:106E0000002301F05BFF40A3D3E9002304460D46B5
:106E100001F054FF02460B46C8E9002320462946EC
:106E200001F04CFF38A3D3E9002301F047FF01260E
:106E3000C8E90201D1E701F0F7FC55EC104B10EE68
:106E4000100A33A3D3E90023294602F0EBF800220D
:106E5000384B01F035FF02F07FFB064602F07CF86C
:106E600023A3D3E90023CDE9060102F0DBF80246B3
:106E70000B462046294601F021FF1FA3D3E900233A
:106E8000CDE90201DDE9060102F0CCF81F2ECDE9C3
:106E90000401DDE9020151DC274B721E53F8223058
:106EA000BB424BD0DDE9042301F008FF04460D4648
:106EB000C8E9004522462B46DDE9020101F0FEFE4D
:106EC000DDE9042301F0FAFEBBF1000FC8E902017D
:106ED00083DA274601F1004305F100447642C8F801
:106EE0000070C8F80440C8F80800C8F80C3074E70F
:106EF00000004054FB21F93F3163621A61B4D03D78
:106F00000000601A61B4D03D7370032E8A19A33B50
:106F100083C8C96D305FE43FFB21E93F7BD9024064
:106F2000FB21F93FFB213941FFFFEF7F000070415A
:106F300040A100080000E03FC0A00008DDE90423F4
:106F400001F0BCFE3F15C1F30A53FB1A04460D467F
:106F5000102BC8E90045ADDD5DA3D3E90023DDE9D1
:106F6000060102F05FF804460D4622462B46DDE995
:106F7000020101F0A3FECDE90801DDE90823DDE906
:106F8000020101F09BFE22462B4601F097FE52A320
:106F9000D3E9002304460D46DDE9060102F042F87C
:106FA00022462B4601F08AFECDE90401DDE90423E7
:106FB000DDE9080101F082FEC1F30A53FF1A04461D
:106FC0000D46312FC8E9004578DD46A3D3E90023FB
:106FD000DDE9060102F026F804460D4622462B465E
:106FE000DDE9080101F06AFECDE90201DDE90223D5
:106FF000DDE9080101F062FE22462B4601F05EFE4B
:107000003AA3D3E9002304460D46DDE9060102F068
:1070100009F822462B4601F051FECDE90401DDE9D5
:1070200002013FE701F04CFE2D4B9F4204460D4606
:1070300026D025A3D3E9002301F042FE02460B46E9
:10704000C8E900232046294601F038FE1EA3D3E9F3
:10705000002301F035FE4FF0FF36C8E90201BCE61F
:10706000D8F80420D8F80C3002F1004203F10043B4
:107070004642C8F80420C8F80C30AEE6032396E672
:1070800013A3D3E9002301F01BFE13A3D3E90023CC
:1070900004460D4601F014FE02460B46C8E90023E3
:1070A0002046294601F00AFE0BA3D3E9002301F094
:1070B00007FE4FF0FF36C8E902018EE69DED087B22
:1070C0008DED027BF6E600BF3163621A61B4D03DFC
:1070D0000000601A61B4D03D7370032E8A19A33B7F
:1070E000FB21F93F0000002E8A19A33BC14920254E
:1070F0009A837B39AFF300802DE9F84353EC102BD2
:1071000023F00044240D614D2405AC422DED028B8B
:10711000B0EE408AF0EE608A194610EE100A00F0D8
:107120009480002B74DD1F157DD0A7F2FF37C1F3CB
:107130001301FA0741F480115FD4C30F4FF0000C24
:1071400003EB410342007F10654616204FF4001107
:107150006C189C424FEAD2764FEA420202DC1B1BBB
:1071600065188C44013806EB43034FEA5101EFD117
:10717000804620264FF0004109E023D0D40F013E85
:107180004FEA510104EB43034FEA42021ED0AB42E7
:1071900001EB0804F1DD04F00049B9F1004F04EB04
:1071A000010809D0A9465B1B944288BF03F1FF3355
:1071B000121B08444D46E1E7B8F1000FF2DB05F180
:1071C0000109F0E79442E6D91D46D7E71A4319D1E1
:1071D00046084FEA6C0101F17F511CF0010F01F5E7
:1071E000001118BF46F0004601EB0753324643EC4E
:1071F000102BBDEC028BBDE8F883C30F03EB4101FC
:1072000040009AE7431C2ED000F001031844DFE74A
:1072100023F000411143ECD063BB1F46C10A153F68
:1072200040050029FAD011F480131FD14900CC0287
:1072300003F10103FAD5C3F10102C3F1200420FADE
:1072400004F42143174498406FE751EC100B01F010
:10725000E9FE53EC182B01F033FDBDEC028B41EC41
:10726000100BBDE8F8830CF1010CB2E720240122D9
:107270000023E4E751EC100B0B4601F01FFD024622
:107280000B4601F0F9FF41EC100BB2E70000F07F74
:1072900070B510EE103A934A23F00044944286B041
:1072A00010EE106A054666DD8F4A94421ADC002B08
:1072B000DFED8E7A8E4A24F00F0440F3DB80944297
:1072C00070EE677A66D09FED8B7A77EEC76A012001
:1072D00077EEE67AC5ED006A37EEC77A85ED017A7A
:1072E00006B070BD844A944266DDB4F1FF4F49DABE
:1072F000E215863AA4EBC25407EE104AFDEEC77AB7
:10730000DFED7E6AF8EEE77A37EE677ACDED037A45
:1073100027EE267AFDEEC77AF8EEE77A37EE677A3F
:10732000CDED047A27EE267AB5EE407AF1EE10FA2A
:107330008DED057A40F0B180F5EE407AF1EE10FA6D
:107340000CBF012302236E4902208DE8030003A82D
:10735000294600F03BFF002E12DA95ED007AD5EDBC
:10736000017AB1EE477AF1EE677A404285ED007A14
:10737000C5ED017A04E0002285ED000A426000209C
:1073800006B070BD70EE407A0020C5ED017AC5ED03
:10739000007AF5E7DFED5B6A9FED5B7A77EEE67AE0
:1073A000012077EEC76A77EEE67AC5ED006A37EE20
:1073B000C77A85ED017AE3E701F09AFBDFED536AC6
:1073C000DFED4A5ADFED4B7AB6EE007AA0EE267A70
:1073D000BDEEC77AF8EEC76A17EE100AB1EE666A1C
:1073E0001F28A6EE250A66EEA77A1DDC484B411E33
:1073F00024F0FF0253F821309A4215D030EE677A1C
:1074000085ED007A30EE470A002E70EE677AC5ED02
:10741000017AB5DAB1EE477AF1EE677A85ED007A56
:10742000C5ED017A4042ABE730EE677AE41517EE1E
:10743000102AC2F3C753E31A082BE1DD9FED317A1E
:107440009FED315AF0EE405AE6EE075A70EE657A3B
:10745000E6EE077AD6EE857A35EEE77A17EE102A51
:10746000C2F3C753E41A192C2CDC85ED007AB0EE78
:10747000650AC7E7944270EE277A10D09FED1D7A17
:1074800077EE876A4FF0FF3077EEE67AC5ED006A57
:1074900037EE877A85ED017A72E7032353E7DFED54
:1074A000196A9FED197A77EEA67A4FF0FF3077EEE2
:1074B000876A77EEE67AC5ED006A37EE877A85ED62
:1074C000017A5DE79FED137A9FED135AB0EE650ADE
:1074D000A6EE070A75EEC07AE6EE077AD6EE857A52
:1074E0008CE700BFD80F493FE3CB1640800FC93F60
:1074F000D00FC93F43443537800F494300008043D4
:10750000C8A200080044353708A3852E84F9223F1D
:1075100048A2000800A3852E32318D24000000000F
:107520002DE9F04F57EC106B2DED028BB0EE418A38
:10753000F0EE618A27F00048B8F1795F83B010EE71
:10754000100A39466FDA02F007F8002800F0F380DD
:1075500032463B463046394601F064FD7AA3D3E912
:10756000002304460D4601F05DFD79A3D3E9002315
:1075700001F0A6FB22462B4601F054FD76A3D3E989
:10758000002301F09BFB22462B4601F04BFD74A328
:10759000D3E9002301F094FB22462B4601F042FD83
:1075A00071A3D3E9002301F089FB22462B4601F0A9
:1075B00039FD6FA3D3E9002301F082FB22462B465D
:1075C00001F030FD82468B462046294600226E4B54
:1075D00001F028FD5246804689465B4620462946F2
:1075E00001F020FD53EC182B04460D463046394679
:1075F00001F018FD02460B462046294601F05EFBCD
:1076000002460B464046494601F058FB02460B46EF
:1076100000205E4901F052FB41EC100B03B0BDECC1
:10762000028BBDE8F08F10EE102A3B4601F0FAFC09
:1076300045A3D3E9002304460D4601F0F3FC44A31F
:10764000D3E9002301F03CFB22462B4601F0EAFC83
:1076500041A3D3E9002301F031FB22462B4601F080
:10766000E1FC3FA3D3E9002301F02AFB22462B468D
:1076700001F0D8FC3CA3D3E9002301F01FFB224614
:107680002B4601F0CFFC3AA3D3E9002301F018FB0D
:107690002B46224601F0C6FC3D4B984582468B4660
:1076A00092DD3C4B98453DDCA8F5001300220020FC
:1076B00036499046994601F001FBCDE9000120468C
:1076C00029460022304B01F0ADFC42464B4601F00A
:1076D000F5FA5246804689465B462046294601F027
:1076E000A1FC53EC182B04460D463046394601F0F8
:1076F00099FC02460B462046294601F0DFFA024675
:107700000B464046494601F0D9FA02460B46DDE9F0
:10771000000101F0D3FA41EC100B03B0BDEC028B79
:10772000BDE8F08F9FED147B4FF000088DED007BDE
:10773000DFF86490C3E79FED120B03B0BDEC028B42
:10774000BDE8F08FAFF30080D43888BEE9FAA8BD59
:10775000C4B1B4BD9EEE213EAD529C804F7E923EA0
:107760009015CB19A001FA3E7751C1166CC1563F56
:107770004C5555555555A53F000000000000E73F0A
:10778000000000000000F03F0000E03F0000F03F7C
:107790003233D33F0000E93F0000D23FAFF3008017
:1077A0002DE9F04FADF51B7D1B4CA49E1B4D54F8ED
:1077B00026400A94D41E85FB0465E417C4EBA50497
:1077C00024EAE4740C949B460490E34309910C98DA
:1077D0000A990BF1FF3403EB4303069402EBC30356
:1077E000061B641808931BD4A598344401340DF18A
:1077F000880800EB8605002709E0E85901F0ACFB9A
:107800000136A642E8E8020107F1040708D0002E7D
:10781000F3DA00200021F3E7E0A50008ABAAAA2ACA
:107820000A9C002C2BDB0A9C74AE22A806EBC40633
:1078300000EBCB0903960DF5E478069C002CC0F212
:107840007781DDF810A04F4600240025002677E957
:107850000223FAE8020101F0E5FB02460B4620464E
:10786000294601F02DFA01365E4504460D46EED15B
:10787000E8E80245039EB04509F10809DDD10A9EFA
:1078800003960EAC029404EB86040D94039E9AAB0F
:107890004FEAC6094B44002E53E928452BDD0DF174
:1078A000340A72A989440AEB860A0DF134080022D1
:1078B000A94B2046294601F0B5FB01F04DFE01F031
:1078C0004BFB0022A54B06460F4601F0ABFB0246E0
:1078D0000B462046294601F0F1F901F03DFE79E919
:1078E000022348F8040F3946304601F0E9F9D04543
:1078F00004460D46DBD145EC104B089801F068F8C2
:1079000055EC104B00224FF07F5310EE100A294621
:1079100001F088FB41EC100B00F092FF002251ECCB
:10792000100B8F4B01F07EFB02460B46204629468A
:1079300001F0C4F904460D4601F00EFE804601F048
:107940000BFB02460B462046294601F0B7F9089C7E
:10795000002C06460F4640F3B980039C0EAA611E18
:10796000089C52F82130C4F1180043FA00F2C4F127
:10797000170502FA00F00EAC1B1A44F821309044AF
:1079800043FA05F5002D2BDD039C002C08F10108BE
:1079900040F3D9800EAB03EB8400002453F8041BA2
:1079A000C1F1FF1202F57F4214B9C1F1807211B129
:1079B00043F8042C01248342F0D1089800280DDDFF
:1079C000012800F0A480022808D103990EA84B1EBC
:1079D00050F82320C2F3150240F82320022D7DD059
:1079E000304639460022002301F084FD002800F0D3
:1079F000BD80039C0A9E04F1FF394E450DDC0EA8A4
:107A000000EB84030D98002253F8041D834242EAE0
:107A10000102F9D1002A40F04A820A9C0EAE621E91
:107A200056F82230002B40F0408206EB8202012300
:107A300052F8041D01330029FAD0039C039E1C4414
:107A400006F1010AA2450B943DDC0C9C0B9BDDF872
:107A50001890B046A59EA044234472ACD14422A8FD
:107A600004EBCA0406EB830306EB880800EBC909A4
:107A70000394079358F8040F01F06EFA069E002E47
:107A8000E9E802014FF000044FF0000514DBDDF8D7
:107A900010A04F46002677E90223FAE8020101F020
:107AA000C1FA02460B462046294601F009F9013683
:107AB0005E4504460D46EED1039EE6E80245079C6E
:107AC0000396A045D6D10B9E0396DFE629D1039CF1
:107AD0000EA8631E50F82350ED1553E732463B467F
:107AE0000020204901F0EAF806460F46002C3FF43A
:107AF00077AF08989FED160B00F06AFF30463946C5
:107B000053EC102B01F0DAF806460F4668E70399AC
:107B10000EA84B1E50F82320C2F3160240F8232073
:107B20005CE70022104B01F003FD20B9054657E742
:107B3000002400259CE6039C002C4FF0020508F170
:107B400001083FF727AF002437E700BFAFF30080FD
:107B5000000000000000F03F0000703E0000704197
:107B6000000020400000F03F0000E03F47EC106BB9
:107B7000089E06957042CDF81C8000F029FF55EC58
:107B8000104B10EE100A29460022B14B01F0D0FC38
:107B9000002800F0B8810022AE4B2046294601F0B3
:107BA00041FA01F0D9FC064601F0D6F90022A84BB3
:107BB00001F038FA02460B462046294601F07EF8CD
:107BC00001F0CAFC039C04F10109089C18340EA9B9
:107BD0000894039C41F8240041F8296008989FED1F
:107BE0009A0B00F0F5FEB9F1000F55EC104B56DB87
:107BF00009F101060EA872A9039600EB860701EBB6
:107C0000C60657F8040D01F0A7F922462B4601F0ED
:107C100009FA002266E902018E4B2046294601F04E
:107C200001FA029A974204460D46EAD172AB03EB81
:107C3000C90B0DF5947ACDF82090DDF82890CDF899
:107C400010A04FF00008B9F1000FC0F22981DFF851
:107C500008A25F4600240025002601E0464510DC0E
:107C6000F7E80223FAE8020101F0DCF902460B46CC
:107C70002046294601F024F80136B14504460D4658
:107C8000ECDA049E06EBC803C3E90045039C08F147
:107C900001084445ABF1080BD5D1DDF82090A49E36
:107CA000032E00F28C80DFE816F0D90091009100DD
:107CB0000400B9F1000F40F312810DF5947A4FEAF8
:107CC000C90B0AEB0B03D3E9006709F101030AEBC7
:107CD000C303039398460DF5987C01E026462F4692
:107CE00018ED047B324651EC170B3B46CDF804C02F
:107CF0008DED047B00F0E4FF04460D4622462B4642
:107D0000DDE9040100F0DAFF32463B4600F0D8FF1F
:107D100068E90201DDF804C0E04548E90245DDD12B
:107D2000B9F1010F40F30381DDF80CC0CDF810A0CC
:107D3000D344DBE900450AF1100BE24601E034468A
:107D40003D465AE9048922462B464046494600F002
:107D5000B7FF06460F4632463B464046494600F0CE
:107D6000ADFF22462B4600F0ABFF6AE90201DA457F
:107D70004AE90267E3D1DDF810A0039C002000214E
:107D800074E9022300F09CFFA345F9D1069C002C66
:107D900000F0AD80099EDAF80450DAF80C40DAF809
:107DA0000020DAF80830326005F1004504F10044A3
:107DB00001F100427560F460B36030617261079C4C
:107DC00004F007000DF51B7DBDE8F08FB9F1000F41
:107DD0004FF000004FF000010DF5947A09DB09F136
:107DE00001040AEBC40474E9022300F069FF54455E
:107DF000F9D1069C0246002C55D001F10043099EA2
:107E0000C6E9002302460B46DAE9000100F056FFFE
:107E1000B9F1000F08DD4CAC04EBC909F4E802230A
:107E200000F04EFF4C45F9D1069C0246002C74D060
:107E3000099E01F10043C6E90223079C04F00700F4
:107E40000DF51B7DBDE8F08F000000000000F03F45
:107E5000000070410000703EF0A50008B9F1000F6D
:107E60004FF000004FF000010ADB09F101044AADB8
:107E700005EBC40474E9022300F022FFAC42F9D1FF
:107E8000069C0246002C4DD0099E01F10043C6E934
:107E90000023079C04F007000DF51B7DBDE8F08F63
:107EA00000240025EDE60B46A9E70123C5E50EAE4B
:107EB000089C56F82930CDF81C80183C069508948B
:107EC000002B7FF48BAE06EB8903224653F8041D8A
:107ED00009F1FF39183A0029F8D008927EE6069C8D
:107EE000002000210DF5947A002C7FF453AFDAE9DD
:107EF0000045DAE90223099EC6E90401C6E9004506
:107F0000C6E902235BE72046294601F025FB0EAEB9
:107F1000039C46F82400A14660E6099E0B46C6E98C
:107F200002238AE7099E0B46C6E90023B1E7002039
:107F300000212BE7AFF300802DE9F04F55EC104BFB
:107F40002DED028BB0EE418AF0EE618A25F0004300
:107F5000B3F1795F83B0824607DA10EE100A294642
:107F600001F0FAFA002800F08C8022462B462046C9
:107F7000294601F057F822462B4606460F4601F0E7
:107F800051F846A3D3E90023804689463046394656
:107F900001F048F843A3D3E9002300F08FFE3246F6
:107FA0003B4601F03FF841A3D3E9002300F088FEEF
:107FB00032463B4601F036F83EA3D3E9002300F0F9
:107FC0007DFE32463B4601F02DF83CA3D3E9002369
:107FD00000F076FECDE90001BAF1000F37D051EC88
:107FE000180B00222C4B01F01DF8DDE9002382461E
:107FF0008B464046494601F015F802460B4650466E
:10800000594600F05BFE32463B4601F00BF853EC5C
:10801000182B00F053FE1EA3D3E9002306460F469B
:108020004046494600F0FEFF02460B4630463946C0
:1080300000F046FE02460B462046294600F03EFE72
:1080400041EC100B03B0BDEC028BBDE8F08FDDE915
:1080500000233046394600F0E5FF0DA3D3E90023A5
:1080600000F02CFE42464B4600F0DCFF22462B4639
:1080700000F026FE41EC100B03B0BDEC028BBDE816
:10808000F08F45EC104B03B0BDEC028BBDE8F08FD8
:10809000495555555555C53F0000E03F7CD5CF5A51
:1080A0003AD9E53DEB9C2B8AE6E55A3E7DFEB15779
:1080B000E31DC73ED561C119A0012A3FA6F81011E2
:1080C0001111813FAFF3008010EE103A23F000430E
:1080D000B3F1485F2CDAFDEEC07A17EE903A002B30
:1080E00060D060EE007ADFED314A9FED315ADFED6E
:1080F000315A9FED316ADFED316A9FED317AA7EE9B
:10810000A45AE5EE275AA5EEA76AE6EE276AA6EE80
:10811000A77A27EE277A20EEC00AF6EE006AA7EECD
:10812000870AB7EE007A97EEA60A37EE400A704744
:1081300060EE007ADFED1D4A9FED1D5ADFED1D5AFE
:108140009FED1D6ADFED1D6A9FED1D7A1D4AA7EEAA
:10815000A45A9342E5EE275AA5EEA76AE6EE276AEF
:10816000A6EEA77A27EE277AD5DD174A934214DCCC
:1081700003F17F4306EE903AF7EE005A75EEE65AA9
:1081800060EEC00AB6EE006AE7EE870AD7EE866AAE
:1081900076EEE00A35EEE00A7047F6EE075AF5EEA5
:1081A000026AEDE7B7EE000A704700BF4ED747AD51
:1081B000F6740F317CF293B4010DD037610BB6BA6F
:1081C000ABAA2A3D9999993E0000483F2DE9F04F0E
:1081D0002DED048BD7B0A54C649D039103F1FF39BD
:1081E00054F825801D46D31E48BF131DDB1023EA1B
:1081F000E3730493049EDB4302EBC303824619EB53
:1082000008000293C9EB060318D4659E1844013098
:108210001AA906EB83040022002BAABFA658DFEDA3
:10822000947A07EE106A03F10103A8BFF8EEC77A4B
:108230008342E1EC017A02F10402EDD1B8F1000FC2
:108240004FEA880B1DDB1AA843AE00EB85045E44A1
:1082500042A8B9F1000FC0F2AE81DFED857A514638
:1082600022460023F1EC016A32ED017A0133AB4280
:10827000E6EE877AF6D1E0EC017AB04204F104042C
:10828000E7D10DF1180C4446CDF81480DFED7A8A61
:108290009FED788ADDF80880E344A60056AB3344AE
:1082A000002C13ED140A1BDDACF1040142AA324488
:1082B000314405AB60EE287AB0EE407AFDEEE77A05
:1082C00072ED016AF8EEE77AA7EEC87A37EEA60AF1
:1082D000BDEEC77A17EE100A43F8040F8B42E9D1BE
:1082E0004046CDF800C000F05BFCB0EE409AB4EE22
:1082F000000A29EE000A00F003FCF2EE007AA0EE7C
:10830000679AB8F1000FDDF800C0FDEEC99AF8EEEB
:10831000E97A39EE679A40F3A180611EC8F108003E
:108320005CF8213043FA00F202FA00F01B1A4CF814
:10833000213019EE901AC8F10700114443FA00F0F9
:1083400009EE901A0190019B002B2DDD19EE902A69
:10835000002C02F1010209EE902A40F340816346AD
:108360000CEB0607002153F8042BC2F1FF0011B9F2
:10837000C2F5807012B143F8040C0121BB42F2D166
:10838000B8F1000F0DDDB8F1010F00F00281B8F176
:10839000020F06D1621E5CF8223003F03F034CF856
:1083A0002230019B022B69D0B5EE409AF1EE10FA13
:1083B00078D10599671EB9420ADC6644002356F855
:1083C000042D5E4543EA0203F9D1002B40F0B18150
:1083D000059A531E5CF82320002A40F0A7810CEB7D
:1083E00083034FF0010E53F8042D0EF1010E002A05
:1083F000F9D0A644661C76452EDC0498049F2044E0
:10840000659C09EB06031AA904EB800001EB8304C9
:10841000659B774442AA02EB860603EB870750F878
:10842000041F07EE901AF8EEE77AB9F1000FE4ECBA
:10843000017ADFED0F7A0BDB514622460023F1EC87
:10844000016A32ED017A0133AB42E6EE877AF6D16A
:10845000B842E6EC017AE2D174461EE740F0A18012
:10846000631E5CF823301B1201936CE730A60008F2
:1084700000000000000080430000803BB7EE000ACF
:1084800030EE499A00298FD04046CDF800C000F068
:1084900087FB39EE409ADDF800C0B5EE409AF1EE68
:1084A00010FA86D0029BCDF800C0B0EE490A5842BF
:1084B000DDF8148000F074FB5FED127ADDF800C087
:1084C000B4EEE70AF1EE10FAC0F254811FED167A0D
:1084D000029A20EE077A671CBDEEC77A0832B8EE22
:1084E000C77A0292A7EE670ABDEEC77ABDEEC00A50
:1084F00010EE103A4CF8243017EE104A4CF8274092
:108500000298CDF800C0B7EE000A00F049FB002F3A
:10851000DDF800C036DB7D1CAA0042AE1FED2A7AD2
:108520000CEB0203324473ED017AF8EEE77A63450F
:1085300067EE807A20EE070A62ED017AF3D142A855
:1085400000EB87040020B8F1000FC0F2E9809049E9
:10855000DFED907A2246002301E0834208DCF1EC53
:10856000016AB2EC017A01339845E6EE877AF4DAD3
:1085700056A901EB800301308542A4F1040443EDC8
:10858000287AE0D1649C032C7FD8DFE804F0B3871D
:10859000872A621E5CF8223003F07F034CF82230F9
:1085A000FFE6F6EE007AB4EEE79AF1EE10FA0CDA96
:1085B00000220192F8E6DFED777AE0EC017AB04232
:1085C00004F104047FF445AE5BE619EE902A022123
:1085D0000132002C019109EE902A3FF7C0AE002134
:1085E000CEE6002F40F3B980B90056AB7A1C2EAE10
:1085F0000B4406EB820253ED287A2FA8134653ED65
:10860000026A36EEA77A76EEC76A76EEA76AF0EED1
:10861000477A63ED016A834203ED017AEFD1012FBE
:1086200040F39B8056A8014451ED287A134630A9A7
:1086300053ED026A36EEA77A76EEC76A76EEA76A3F
:10864000F0EE477A63ED016A8B4203ED017AEFD1D8
:10865000DFED507A134633ED017A994277EE877A4F
:10866000F9D1019C002C7DD0DDED2E6A9DED2F7A95
:10867000039EF1EE677AF1EE666AB1EE477AC6EDD7
:10868000027AC6ED006A86ED017A19EE901A01F0C1
:10869000070057B0BDEC048BBDE8F08F002F74DBF2
:1086A0002EAA7B1CDFED3B7A02EB830333ED017ACC
:1086B000934277EE877AF9D1019AA2B3B1EE677A45
:1086C000DDED2E6A039B002F83ED007A76EEE77ACC
:1086D00008DD2FAB03EB8707B3EC017ABB4277EEE3
:1086E000877AF9D1019C0CB1F1EE677A039DC5ED53
:1086F000017ACAE7002F45DB7B1C2EAADFED257A25
:1087000002EB830333ED017A934277EE877AF9D156
:10871000019E0EB1F1EE677A0399C1ED007AB4E7DC
:10872000DFED1C7A24E7B0EE677AC9E74FF0010E5F
:108730005FE6029A5CF82730DDF81480083A02926E
:10874000002B7FF4DDAE0CEB870353F8041D013FD3
:10875000083A0029F9D00292D2E6019CDFED0D7AA9
:10876000002C81D1039D2E9A2F9BC5ED027A2A60A1
:108770006B608AE7BDEEC00A274610EE105A4CF82F
:108780002450BDE6DFED037AC2E7DFED027A93E71E
:108790003CA600080000000010EE103A23F0004351
:1087A000B3F1485F04DAFDEEC07A17EE903A23B3D6
:1087B00060EE007A9FED155A9FED156ADFED156AA0
:1087C0009FED157ADFED155AA7EE856A27EE805AE0
:1087D000E6EE276AA6EEA77AE7EE275A70B165EEB5
:1087E000C55AB6EE007AE0EE875A9FED0D7AD5EEC7
:1087F000A70AE5EE070A30EE600A70479FED097A96
:10880000A7EEA57AA7EE050A704700BFD3C92E2FA1
:10881000342FD7B21BEF3836010D50B98988083C88
:10882000ABAA2A3EABAA2ABE51EC100B53EC102B7C
:1088300021F0004343EC102B704700BF0000000004
:108840002DE9F84F55EC104BC5F30A57A7F2FF3648
:10885000132EA946AA4610EE108A1FDC002E4CDB10
:10886000434F374107EA0503234315D03EA3D3E91D
:10887000002351EC100B00F023FA0022002300F03B
:1088800061FE28B1002D4BDB2AEA07094FF00008F2
:108890004B46424643EC102BBDE8F88F332E0CDDDF
:1088A000B6F5806FF8D151EC100B22460B4600F064
:1088B00007FA41EC100BBDE8F88FA7F213434FF015
:1088C000FF3B2BFA03FB1BEA040FE5D026A3D3E9F9
:1088D000002351EC100B00F0F3F90022002300F00C
:1088E00031FE0028D4D0002D21DB28EA0B08D14628
:1088F0004B46424643EC102BCEE71BA3D3E90023A3
:1089000051EC100B00F0DCF90022002300F01AFEFD
:108910000028BDD0002D18DB4FF00008C146B7E796
:108920004FF4801A4AFA06F606EB050AACE7142E55
:1089300014D0C7F586670123033703FA07F717EB4F
:10894000040828BF05EB030ACFE725F00042094BD6
:10895000224318BF99464FF0000899E705F1010A34
:10896000C3E700BFAFF300809C7500883CE4377E0E
:10897000FFFF0F000000F0BF53EC102B33F000415D
:1089800010B408D00F48A1F5801484420AD80420FE
:108990005DF8044B7047002A0CBF022003205DF8ED
:1089A000044B7047B1F5801F01D20320F7E706485A
:1089B000814201D00020F2E7D2F1010038BF00204F
:1089C000EDE700BFFFFFDF7F0000F07F0020704772
:1089D00038B553EC102BC3F30A510546184600294D
:1089E0003AD123F00043134335D051EC100B3C4BEC
:1089F0003C4C002200F016FBA54241EC100B0B464C
:108A000051DBC3F30A51363918464C1940F2FE7354
:108A10009C422ADDB0EE401AF0EE601A9FED2C0B5E
:108A200000F02AF92AA3D3E9002351EC100B00F03F
:108A3000F9FA41EC100B38BD20F0FF4323F4E003BA
:108A4000363451EC100B002243EA0451264B00F05F
:108A5000E9FA41EC100B38BD40F2FF7399422AD07D
:108A60004C1940F2FE739C42D4DC002C0ADD20F04D
:108A7000FF4053EC102B20F4E00040EA045343EC99
:108A8000102B38BD14F1350FD6DAB0EE401AF0EEE7
:108A9000601A4CF250339D42C0DC9FED0F0B00F08A
:108AA000EBF851EC100B0CA3D3E9002300F0BAFA59
:108AB00041EC100B38BD51EC100B10EE102A0B4698
:108AC00000F0FEF841EC100B38BD00BFAFF30080A2
:108AD0009C7500883CE4377E59F3F8C21F6EA501EF
:108AE00000005043B03CFFFF0000903CAFF300801B
:108AF00010EE102A22F0004300EE103A704700BF3B
:108B000010EE103A23F00040C10D7F39162910B441
:108B100018DC00291C4622DB1E480841184214D0EC
:108B2000DFED1D7A70EE277AF5EEC07AF1EE10FADD
:108B30000BDD002B21DB24EA000000EE100A5DF8BB
:108B4000044B7047B0F1FF4F04D200EE103A5DF8CD
:108B5000044B704730EE000A5DF8044B7047DFEDC0
:108B60000E7A70EE277AF5EEC07AF1EE10FAECDDAF
:108B7000002B08DB9FED090AE9E74FF4000343FAF5
:108B800001F10C44D7E70028BFEE000A08BF00EE51
:108B9000103ADCE7FFFF7F00CAF2497100000000D5
:108BA00008B510EE103A33F000412DED028B10EEB7
:108BB000102A11D0B1F1FF4F11D2B1F5000F13D32C
:108BC000C90D0144FE2930DC00291CDD22F0FF42E2
:108BD00042EAC15200EE102ABDEC028B08BDBDEC8A
:108BE000028B30EE000A08BDDFED1E7A1E4A20EE31
:108BF000277A904217EE103A22DBC3F3C75117EEE3
:108C0000102A1939DDE711F1160F1EDA4CF2503235
:108C100090420ADC9FED158A00EE903AB0EE480AC9
:108C200000F03CF820EE080AD6E79FED118A00EE2E
:108C3000903AB0EE480A00F031F820EE080ACBE78F
:108C40009FED0A0A27EE000AC6E7193122F0FF421B
:108C500042EAC152DFED077A07EE102A27EE270A13
:108C6000BAE700BF0000004CB03CFFFF6042A20D1D
:108C7000CAF249710000003330B451EC110B55ECCD
:108C8000104B53EC102B25F0004001F0004141EA5D
:108C9000000343EC102B30BC704700BF10EE101ADD
:108CA00021F0004210EE901A01F00043134300EE51
:108CB000103A704781F0004102E000BF83F00043AA
:108CC00030B54FEA41044FEA430594EA050F08BF67
:108CD00090EA020F1FBF54EA000C55EA020C7FEA2B
:108CE000645C7FEA655C00F0E2804FEA5454D4EBA8
:108CF0005555B8BF6D420CDD2C4480EA020281EA72
:108D0000030382EA000083EA010180EA020281EAA9
:108D10000303362D88BF30BD11F0004F4FEA0131FB
:108D20004FF4801C4CEA113102D0404261EB41010A
:108D300013F0004F4FEA03334CEA133302D0524290
:108D400063EB430394EA050F00F0A780A4F101044C
:108D5000D5F1200E0DDB02FA0EFC22FA05F2801886
:108D600041F1000103FA0EF2801843FA05F359416C
:108D70000EE0A5F120050EF1200E012A03FA0EFCEB
:108D800028BF4CF0020C43FA05F3C01851EBE37115
:108D900001F0004507D54FF0000EDCF1000C7EEB32
:108DA00000006EEB0101B1F5801F1BD3B1F5001F70
:108DB0000CD349085FEA30004FEA3C0C04F101048F
:108DC0004FEA445212F5800F80F09A80BCF1004FB8
:108DD00008BF5FEA500C50F1000041EB045141EA3A
:108DE000050130BD5FEA4C0C404141EB010111F43B
:108DF000801FA4F10104E9D191F0000F04BF0146E6
:108E00000020B1FA81F308BF2033A3F10B03B3F1C3
:108E100020020CDA0C3208DD02F1140CC2F10C0253
:108E200001FA0CF021FA02F10CE002F11402D8BFB1
:108E3000C2F1200C01FA02F120FA0CFCDCBF41EA7D
:108E40000C019040E41AA2BF01EB0451294330BD4C
:108E50006FEA04041F3C1CDA0C340EDC04F1140429
:108E6000C4F1200220FA04F001FA02F340EA030000
:108E700021FA04F345EA030130BDC4F10C04C4F146
:108E8000200220FA02F001FA04F340EA0300294626
:108E900030BD21FA04F0294630BD94F0000F83F470
:108EA000801306BF81F480110134013D4EE77FEA53
:108EB000645C18BF7FEA655C29D094EA050F08BF9F
:108EC00090EA020F05D054EA000C04BF1946104680
:108ED00030BD91EA030F1EBF0021002030BD5FEAC4
:108EE000545C05D14000494128BF41F0004130BDEC
:108EF00014F580043CBF01F5801130BD01F0004540
:108F000045F0FE4141F470014FF0000030BD7FEAB2
:108F1000645C1ABF194610467FEA655C1CBF0B46AD
:108F2000024650EA013406BF52EA033591EA030FC4
:108F300041F4002130BD00BF90F0000F04BF0021BC
:108F4000704730B54FF4806404F132044FF00005EF
:108F50004FF0000150E700BF90F0000F04BF002168
:108F6000704730B54FF4806404F1320410F00045CE
:108F700048BF40424FF000013EE700BF42004FEAC9
:108F8000E2014FEA31014FEA02701FBF12F07F4346
:108F900093F07F4F81F06051704792F0000F14BF43
:108FA00093F07F4F704730B54FF4607401F0004587
:108FB00021F0004120E700BF50EA010208BF7047DE
:108FC00030B54FF000050AE050EA010208BF7047D3
:108FD00030B511F0004502D5404261EB41014FF43C
:108FE000806404F132045FEA915C3FF4DCAE4FF040
:108FF00003025FEADC0C18BF03325FEADC0C18BF27
:10900000033202EBDC02C2F1200300FA03FC20FA77
:1090100002F001FA03FE40EA0E0021FA02F11444C4
:10902000C1E600BF70B54FF0FF0C4CF4E06C1CEAD9
:1090300011541DBF1CEA135594EA0C0F95EA0C0F4E
:1090400000F0DEF82C4481EA030621EA4C5123EAC1
:109050004C5350EA013518BF52EA033541F48011F0
:1090600043F4801338D0A0FB02CE4FF00005E1FBA3
:1090700002E506F00042E0FB03E54FF00006E1FBED
:1090800003569CF0000F18BF4EF0010EA4F1FF0430
:10909000B6F5007F64F5407404D25FEA4E0E6D4170
:1090A00046EB060642EAC62141EA55514FEAC52081
:1090B00040EA5E504FEACE2EB4F1FD0C88BFBCF5FD
:1090C000E06F1ED8BEF1004F08BF5FEA500E50F1AE
:1090D000000041EB045170BD06F0004646EA010174
:1090E00040EA020081EA0301B4EB5C04C2BFD4EBA6
:1090F0000C0541EA045170BD41F480114FF0000E9F
:10910000013C00F3AB8014F1360FDEBF002001F00C
:10911000004170BDC4F10004203C35DA0C341BDC86
:1091200004F11404C4F1200500FA05F320FA04F058
:1091300001FA05F240EA020001F0004221F000418C
:1091400010EBD37021FA04F642EB06015EEA430EFF
:1091500008BF20EAD37070BDC4F10C04C4F120052F
:1091600000FA04F320FA05F001FA04F240EA0200E2
:1091700001F0004110EBD37041F100015EEA430EB3
:1091800008BF20EAD37070BDC4F1200500FA05F2D3
:109190004EEA020E20FA04F301FA05F243EA020352
:1091A00021FA04F001F0004121FA04F220EA020061
:1091B00000EBD3705EEA430E08BF20EAD37070BDA7
:1091C00094F0000F0FD101F00046400041EB010187
:1091D00011F4801F08BF013CF7D041EA060195F069
:1091E000000F18BF704703F00046520043EB030323
:1091F00013F4801F08BF013DF7D043EA0603704710
:1092000094EA0C0F0CEA135518BF95EA0C0F0CD01A
:1092100050EA410618BF52EA4306D1D181EA030160
:1092200001F000414FF0000070BD50EA410606BF5A
:109230001046194652EA430619D094EA0C0F02D19F
:1092400050EA013613D195EA0C0F05D152EA0336E4
:109250001CBF104619460AD181EA030101F0004102
:1092600041F0FE4141F470014FF0000070BD41F04B
:10927000FE4141F4780170BD70B54FF0FF0C4CF425
:10928000E06C1CEA11541DBF1CEA135594EA0C0F44
:1092900095EA0C0F00F0A7F8A4EB050481EA030E91
:1092A00052EA03354FEA013100F088804FEA033378
:1092B0004FF0805545EA131343EA12634FEA022246
:1092C00045EA111545EA10654FEA00260EF0004107
:1092D0009D4208BF964244F1FD0404F5407402D259
:1092E0005B084FEA3202B61A65EB03055B084FEAEA
:1092F00032024FF480104FF4002CB6EB020E75EBE7
:10930000030E22BFB61A754640EA0C005B084FEA0E
:109310003202B6EB020E75EB030E22BFB61A75468B
:1093200040EA5C005B084FEA3202B6EB020E75EBD6
:10933000030E22BFB61A754640EA9C005B084FEA4E
:109340003202B6EB020E75EB030E22BFB61A75465B
:1093500040EADC0055EA060E18D04FEA051545EA4A
:1093600016754FEA06164FEAC30343EA52734FEAF3
:10937000C2025FEA1C1CC0D111F4801F0BD141EA6C
:1093800000014FF000004FF0004CB6E711F4801FD1
:1093900004BF01430020B4F1FD0C88BFBCF5E06FB1
:1093A0003FF6AFAEB5EB030C04BFB6EB020C5FEAC1
:1093B000500C50F1000041EB045170BD0EF0004E16
:1093C0004EEA113114EB5C04C2BFD4EB0C0541EA48
:1093D000045170BD41F480114FF0000E013C90E645
:1093E00045EA060E8DE60CEA135594EA0C0F08BF09
:1093F00095EA0C0F3FF43BAF94EA0C0F0AD150EA08
:1094000001347FF434AF95EA0C0F7FF425AF10469A
:1094100019462CE795EA0C0F06D152EA03353FF4C2
:10942000FDAE1046194622E750EA410618BF52EA3F
:1094300043067FF4C5AE50EA41047FF40DAF52EA13
:1094400043057FF4EBAE12E74FF0FF3C06E000BFB0
:109450004FF0010C02E000BF4FF0010C4DF804CDBD
:109460004FEA410C7FEA6C5C4FEA430C18BF7FEA7D
:109470006C5C1BD001B050EA410C0CBF52EA430CAB
:1094800091EA030F02BF90EA020F0020704710F12B
:10949000000F91EA030F58BF994208BF90422CBFBA
:1094A000D8176FEAE37040F0010070474FEA410CB3
:1094B0007FEA6C5C02D150EA013C07D14FEA430CD1
:1094C0007FEA6C5CD6D152EA033CD3D05DF8040B42
:1094D000704700BF8446104662468C461946634674
:1094E00000E000BF01B5FFF7B7FF002848BF10F14B
:1094F000000F01BD4DF808EDFFF7F4FF0CBF012090
:1095000000205DF808FB00BF4DF808EDFFF7EAFF0B
:1095100034BF012000205DF808FB00BF4DF808EDC6
:10952000FFF7E0FF94BF012000205DF808FB00BFBB
:109530004DF808EDFFF7CEFF94BF012000205DF845
:1095400008FB00BF4DF808EDFFF7C4FF34BF012052
:1095500000205DF808FB00BF4FEA410212F500123F
:1095600015D211D56FF47873B3EB625212D94FEA6A
:10957000C12343F0004343EA505311F0004F23FA54
:1095800002F018BF404270474FF00000704750EAA9
:10959000013005D111F0004008BF6FF00040704766
:1095A0004FF00000704700BF4A0011D212F50012C0
:1095B00011D20DD56FF47873B3EB62520ED44FEA2B
:1095C000C12343F0004343EA505323FA02F07047AB
:1095D0004FF00000704750EA013002D14FF0FF30E9
:1095E00070474FF0000070474FEA4102B2F1E0438C
:1095F00024BFB3F5001CDCF1FE5C0DD901F0004C7A
:109600004FEAC0024CEA5070B2F1004F40EB8300C9
:1096100008BF20F00100704711F0804F21D113F1F5
:109620003872BCBF01F00040704741F480114FEA2E
:109630005252C2F11802C2F1200C10FA0CF320FAB7
:1096400002F018BF40F001004FEAC1234FEAD323D4
:1096500003FA0CFC40EA0C0023FA02F34FEA43033E
:10966000CCE77FEA625307D150EA01331EBF4FF0C7
:10967000FE4040F44000704701F0004040F0FE40E2
:1096800040F40000704700BF014B1868704700BFEE
:10969000C8040020024B0146186800F003B800BF60
:1096A000C80400202DE9F04F01F10B05162D83B001
:1096B000064627D935F0070527D4A94225D83046D4
:1096C00000F026FBB5F5FC7F26D2C14F4FEAD50C42
:1096D00007EBCC03DC689C4200F0D2816368E2684F
:1096E000A16823F00303234430465D68CA6045F057
:1096F000010591605D6000F00DFB0834204603B069
:10970000BDE8F08F1025A942D9D900240C232046AA
:10971000336003B0BDE8F08F5FEA552C00F08A801B
:10972000BCF1040F00F260814FEA951C0CF1380C7B
:109730004FEA4C01A64F07EB8101CC68A14205D14D
:109740000CE0002B7ADAE468A14207D0626822F0CC
:109750000302531B0F2BF4DD0CF1FF3C0CF1010C49
:109760009B4B3C6903F1080E744500F07E816168F3
:1097700021F003014A1B0F2A00F36481002AC3F879
:1097800014E0C3F810E06ADAB1F5007F80F03A81A6
:10979000C90803EBC1004FEAA1085A688168A160BB
:1097A0004FF0010909FA08F848EA0202E0605A603D
:1097B0008460CC604FEAAC030120984090425BD8B3
:1097C000024206D12CF0030C400002420CF1040CC2
:1097D000FAD007EBCC084446E146E3689C4207D147
:1097E00045E1002A80F25681DB689C4200F03F810F
:1097F000596821F003014A1B0F2AF2DD1C46D3F8F9
:109800000CC054F8088F591945F0010942F00105C0
:10981000C3F804903046C8F80CC0CCF808807961D1
:109820003961C1F80CE0C1F808E04D608A5000F0E1
:1098300071FA63E77E214FF03F0C7BE72244E36837
:109840005068A16840F00105CB60304699605560D2
:1098500000F060FA0834204603B0BDE8F08F2144E0
:1098600030464B6843F001034B6000F053FA083474
:10987000204603B0BDE8F08FBC68636823F003099D
:10988000A94504D3C5EB09030F2B00F39180514B7D
:10989000514A19681368013305EB010A04EB090BFF
:1098A00000F061810AF5805A0AF10F0A2AF47F6AF2
:1098B0002AF00F0A30465146019200F02DFAB0F11D
:1098C000FF3F8046019A00F00081834500F2FA8054
:1098D000DFF810C1DCF80030C3455344CCF8003049
:1098E00000F04A8112683C4901321BBFCBEB080BE8
:1098F0005B44C1F80080CCF8003018F0070300F09A
:109900001381C3F10802C3F5805390440833C24465
:10991000CAF30B0ACAEB030A51463046CDF804C01D
:1099200000F0FAF9431CDDF804C000F03581C8EB03
:109930000002524442F00102DCF80030C7F808800F
:109940005344BC42C8F80420CCF80030DFF894A09F
:1099500015D0B9F10F0F40F2EA806168A9F10C024D
:1099600022F0070201F0010EA118052042EA0E0EB6
:109970000F2AC4F804E04860886000F21181174A99
:10998000BC6811688B4288BF1360154A11688B420E
:1099900088BF1360626822F003029542C5EB0203A0
:1099A00001D80F2B04DC304600F0B4F90024A5E602
:1099B000621943F0010345F0010565603046BA6065
:1099C000536000F0A7F90834204603B0BDE8F08FDB
:1099D000CC04002018090020D80800201409002019
:1099E000100900201C090020BCF1140F61D9BCF142
:1099F000540F00F28F804FEA153C0CF16E0C4FEAC9
:109A00004C0197E64B0A042B58D9142B00F2AE8078
:109A100003F15B02500007EB8000DFF8BC81836834
:109A2000834200F08A805A6822F00302914202D2F7
:109A30009B689842F7D1D9687A68E160A3608C602E
:109A4000DC60B7E6611942F0010745F00105656089
:109A5000304659611961C1F80CE0C1F808E04F6067
:109A60008A50083400F056F948E65A68A2E609F12F
:109A7000010919F0030F04F108047FF4AEAE2DE0E4
:109A800004F108036469A34208BF0CF1020C3FF41F
:109A900067AE23E619441C464868DB6854F8082F73
:109AA00040F001054D603046D3609A6000F032F915
:109AB00024E60CF15B0C4FEA4C013BE68A09383294
:109AC0005000A8E7BC423FF403AFBC68626822F0D4
:109AD000030262E7D8F8008098457BD11CF0030FA1
:109AE000A8F108030CF1FF3CF4D17B6823EA0003E2
:109AF0007B60400098423FF6BFAE00283FF4BCAE0A
:109B00000342CC467FF465AE400003420CF1040CE6
:109B1000FAD05EE6BCF5AA7F1AD84FEAD53C0CF124
:109B2000770C4FEA4C0105E64FF48053EFE6012332
:109B3000C8F80430444600222FE791100120D8F8DD
:109B4000042000FA01F10A43C8F80420194674E71A
:109B500040F254539C451BD84FEA954C0CF17C0CB9
:109B60004FEA4C01E6E50AF1100AA3E6542B1FD890
:109B70000A0B6E3250004EE7CBF30B0100297FF445
:109B8000B1AE0AEB0901BA6841F001015160F6E695
:109B9000FC214FF07E0CCDE501224FF0000ACBE610
:109BA00004F10801304600F017F9DAF80030E6E673
:109BB000B3F5AA7F03D8CA0B773250002BE740F2E7
:109BC0005452934203D88A0C7C32500023E7FC2085
:109BD0007E2220E77B688CE7CC040020844641EAA3
:109BE000000313F003036DD1403A41D351F8043B15
:109BF00040F8043B51F8043B40F8043B51F8043B67
:109C000040F8043B51F8043B40F8043B51F8043B56
:109C100040F8043B51F8043B40F8043B51F8043B46
:109C200040F8043B51F8043B40F8043B51F8043B36
:109C300040F8043B51F8043B40F8043B51F8043B26
:109C400040F8043B51F8043B40F8043B51F8043B16
:109C500040F8043B51F8043B40F8043B51F8043B06
:109C600040F8043B51F8043B40F8043B403ABDD275
:109C7000303211D351F8043B40F8043B51F8043B17
:109C800040F8043B51F8043B40F8043B51F8043BD6
:109C900040F8043B103AEDD20C3205D351F8043BA6
:109CA00040F8043B043AF9D2043208D0D2071CBF72
:109CB00011F8013B00F8013B01D30B88038060469B
:109CC000704700BF082A13D38B078DD010F0030311
:109CD0008AD0C3F10403D21ADB071CBF11F8013B81
:109CE00000F8013B80D331F8023B20F8023B7BE7D0
:109CF000043AD9D3013A11F8013B00F8013BF9D2FB
:109D00000B7803704B7843708B7883706046704794
:109D1000704700BF704700BF38B5074C00230546A9
:109D200008462360FCF7ACF9431C00D038BD23681B
:109D3000002BFBD02B6038BD780A0020F8B5234DEE
:109D40000F460446FFF7E4FFAB685E6826F00306A3
:109D5000F11B01F6EF7121F47F6121F00F01A1F5F4
:109D60008057B7F5805F07DB20460021FFF7D4FF5F
:109D7000AB683344984204D02046FFF7CBFF002065
:109D8000F8BD20467942FFF7C7FF01300DD0104BD8
:109D9000AA681968F61B46F001062046C91B5660E2
:109DA0001960FFF7B7FF0120F8BD20460021FFF73B
:109DB000B3FFAB68C21A0F2ADEDD064D04492D68D9
:109DC00042F00102401B5A600860D5E7CC04002035
:109DD0001C090020D80800202DE9F0410D46064658
:109DE000002955D0FFF794FF55F8041CDFF874C123
:109DF00021F00103A5F10804E218DCF80800576817
:109E0000904227F0030769D011F00101576032D06A
:109E10000021D0194068C00706D43B44906800294F
:109E20004ED0D268C260906043F001026260E3509D
:109E3000E1B9B3F5007F2DD35A0A042A6AD89809EC
:109E4000383041000CEB810C4649DCF808206245B3
:109E500066D0516821F003018B4202D2926894458A
:109E6000F7D1D368E360A2609C60D4603046BDE85F
:109E7000F041FFF74FBF55F8085C641B0CF1080870
:109E8000A06840452B4443D0E568C560A860C0E7A2
:109E9000BDE8F081DB080CEBC3020125DCF804000F
:109EA0009168A1609B1005FA03F31843E260CCF8B7
:109EB000040094603046CC60BDE8F041FFF72ABF53
:109EC000294DA842ADD143F00102CCF81440CCF8A2
:109ED0001040E060A0606260E350C7E71F44CB071A
:109EE00007D455F8083CE41A1F44A268E368D3601D
:109EF0009A601E4B1B6847F001029F426260CCF8DB
:109F00000840B3D31A4B30461968FFF717FFADE787
:109F100001217EE7142A0CD802F15B00410091E791
:109F20004B688010012505FA00F003434B6013468F
:109F300098E7542A03D8180B6E30410082E7B2F537
:109F4000AA7F03D8D80B773041007BE740F2545109
:109F50008A4203D8980C7C30410073E7FC217E20B4
:109F600070E700BFCC040020D4040020D4080020F7
:109F7000180900202D3E00004E2F41004B616C69F6
:109F8000627261636A61205372657276000000003C
:109F90005265637A6E61206D616E6970756C616384
:109FA0006A610000506F6D706B6100005A6E616AEB
:109FB000647A207A65726F004E61706965636965C5
:109FC000000000004A617A6461000000426C75651F
:109FD00000000000789F0008789F00087C9F000820
:109FE000909F0008789F0008789F0008A49F0008B1
:109FF000AC9F0008789F0008B89F0008C49F000825
:10A00000CC9F0008566961677261000055737461E6
:10A010006C6F6E61000000004A0000004F000000FD
:10A0200042000000410000004D00000052503A2064
:10A03000000000002C2000005A79726F3A200000C6
:10A04000426C7565312100004C503A200000000040
:10A05000726B5265733A2000506F6D706B613A20DD
:10A0600000000000250000006F623A2000000000A0
:10A070004E61706965636965203A0000526177201E
:10A080003A000000200000004B280000292020009A
:10A0900057796272616E653A200000002C2064746A
:10A0A0003A200000576172746F73633A2000000019
:10A0B0002020202000000000737172740000000056
:10A0C000FB21F93FFB2109407CD91240FB211940BB
:10A0D0007A6A1F407CD92240BBFD2540FB212940E4
:10A0E0003A462C407A6A2F405C4731407CD9324056
:10A0F0009C6B3440BBFD3540DB8F3740FB21394042
:10A100001BB43A403A463C405AD83D407A6A3F40F8
:10A110004C7E40405C4741406C1042407CD94240FC
:10A120008CA243409C6B4440AC344540BBFD454051
:10A13000CBC64640DB8F4740EB584840FB214940A7
:10A1400083F9A200444E6E00FC291500D157270068
:10A15000DD34F50062DBC0003C999500419043007E
:10A160006351FE00BBDEAB00B761C5003A6E240050
:10A17000D24D42004906E00009EA2E001C92D100AF
:10A18000EB1DFE0029B11C00E83EA700F53582005A
:10A1900044BB2E009CE98400B4267000417E5F0021
:10A1A000D6913900538339009CF439008B5F8400C9
:10A1B00028F9BD00F81F3B00DEFF97000F9805004F
:10A1C000112FEF000A5A8B006D1F6D00CF7E3600F5
:10A1D00009CB2700464FB7009E663F002DEA5F007F
:10A1E000BA277500E5EBC7003D7BF100F7390700A2
:10A1F00092528A00FB6BEA001FB15F00085D8D0080
:10A20000300356007BFC4600F0AB6B0020BCCF0057
:10A2100036F49A00E3A91D005E619100081BE60078
:10A2200085996500A0145F008D40680080D8FF000C
:10A2300027734D0006063100CA561500C9A87300E1
:10A240007BE260006B8CC000000FC93F000F4940EB
:10A2500000CB9640000FC9400053FB4000CB164195
:10A2600000ED2F41000F49410031624100537B4115
:10A27000003A8A4100CB9641005CA34100EDAF411A
:10A28000007EBC41000FC94100A0D5410031E24130
:10A2900000C2EE410053FB4100F20342003A0A4281
:10A2A0000083104200CB164200141D42005C234282
:10A2B00000A5294200ED2F4200363642007E3C4286
:10A2C00000C74242000F4942A2000000F90000000E
:10A2D000830000006E0000004E00000044000000FB
:10A2E0001500000029000000FC000000270000000D
:10A2F00057000000D1000000F5000000340000000D
:10A30000DD000000C0000000DB0000006200000073
:10A3100095000000990000003C0000004300000090
:10A320009000000041000000FE000000510000000D
:10A3300063000000AB000000DE000000BB00000076
:10A34000C500000061000000B7000000240000000C
:10A350006E0000003A000000420000004D000000C6
:10A36000D2000000E00000000600000049000000EC
:10A370002E000000EA00000009000000D1000000EB
:10A38000920000001C000000FE0000001D00000004
:10A39000EB0000001C000000B100000029000000DC
:10A3A000A70000003E000000E8000000820000005E
:10A3B00035000000F50000002E000000BB0000008A
:10A3C0004400000084000000E90000009C00000040
:10A3D0007000000026000000B40000005F000000D4
:10A3E0007E000000410000003900000091000000E4
:10A3F000D600000039000000830000005300000078
:10A4000039000000F40000009C00000084000000FF
:10A410005F0000008B000000BD000000F90000009C
:10A42000280000003B0000001F000000F8000000B2
:10A4300097000000FF000000DE00000005000000A3
:10A44000980000000F000000EF0000002F00000047
:10A45000110000008B0000005A0000000A000000FC
:10A460006D0000001F0000006D00000036000000BD
:10A470007E000000CF00000027000000CB0000009D
:10A4800009000000B70000004F0000004600000077
:10A490003F000000660000009E0000005F0000001A
:10A4A000EA0000002D0000007500000027000000F9
:10A4B000BA000000C7000000EB000000E50000004B
:10A4C000F10000007B0000003D00000007000000DC
:10A4D00039000000F70000008A0000005200000070
:10A4E00092000000EA0000006B000000FB0000008A
:10A4F0005F000000B10000001F0000008D000000A0
:10A500005D0000000800000056000000030000008D
:10A510003000000046000000FC0000007B0000004E
:10A520006B000000AB000000F0000000CF00000056
:10A53000BC000000200000009A000000F4000000B1
:10A54000360000001D000000A9000000E30000002C
:10A5500091000000610000005E000000E6000000C5
:10A560001B000000080000006500000099000000CA
:10A57000850000005F00000014000000A000000043
:10A5800068000000400000008D000000FF00000097
:10A59000D8000000800000004D00000073000000A3
:10A5A0002700000031000000060000000600000047
:10A5B0001500000056000000CA00000073000000F3
:10A5C000A8000000C900000060000000E2000000D8
:10A5D0007B000000C00000008C0000006B00000049
:10A5E000020000000300000004000000060000005C
:10A5F00000000040FB21F93F000000002D44743EA4
:10A60000000000809846F83C0000006051CC783B88
:10A6100000000080831BF0390000004020257A38BC
:10A62000000000802282E336000000001DF369353F
:10A630000400000007000000090000000000C93FFE
:10A640000000F0390000DA370000A2330000842E49
:10A650000000502B0000C2270000D0220000C41FC1
:0CA660000000C61B00004417430000006F
:10A66C0004000000000030410000104100000041D7
:10A67C0000000041983A0000CDCCCC3D0AD7233CD9
:10A68C000AD7233CB40000000000CC0098016402FF
:10A69C003003FC03C804940560062C07F807C408B3
:10A6AC0090095D0A290BF50BC10C8D0D590E250F68
:10A6BC00F10FBD10891155122113EE13BA14861522
:10A6CC0052161E17EA17B61882194E1A1A1BE61BD9
:10A6DC00B21C7F1D4B1E171FE31FAF207B2147228F
:10A6EC001323DF23AB24772543261027000000001B
:10A6FC00010203040102030406070809010000001B
:10A70C00000000008C030020F40300205C040020F7
:10A71C00000000000000000000000000000000002D
:10A72C00000000000000000000000000000000001D
:10A73C000000000068A600080000000000000000F7
:10A74C0000000000000000000000000000000000FD
:10A75C0000000000000000000000000000000000ED
:10A76C0000000000000000000000000000000000DD
:10A77C0000000000000000000000000000000000CD
:10A78C0000000000000000000000000000000000BD
:10A79C0000000000000000000000000000000000AD
:10A7AC00000000000000000001000000000000009C
:10A7BC000E33CDAB34126DE6ECDE05000B00000061
:10A7CC00000000000000000000000000000000007D
:10A7DC00000000000000000000000000000000006D
:10A7EC00000000000000000000000000000000005D
:10A7FC00000000000000000000000000000000004D
:10AB2C000000000000000000A00000200000000059
:10AB3C0000000000CC040020CC040020D404002031
:10AB4C00D4040020DC040020DC040020E4040020F9
:10AB5C00E4040020EC040020EC040020F4040020A9
:10AB6C00F4040020FC040020FC0400200405002058
:10AB7C00040500200C0500200C0500201405002005
:10AB8C00140500201C0500201C05002024050020B5
:10AB9C00240500202C0500202C0500203405002065
:10ABAC00340500203C0500203C0500204405002015
:10ABBC00440500204C0500204C05002054050020C5
:10ABCC00540500205C0500205C0500206405002075
:10ABDC00640500206C0500206C0500207405002025
:10ABEC00740500207C0500207C05002084050020D5
:10ABFC00840500208C0500208C0500209405002085
:10AC0C00940500209C0500209C050020A405002034
:10AC1C00A4050020AC050020AC050020B4050020E4
:10AC2C00B4050020BC050020BC050020C405002094
:10AC3C00C4050020CC050020CC050020D405002044
:10AC4C00D4050020DC050020DC050020E4050020F4
:10AC5C00E4050020EC050020EC050020F4050020A4
:10AC6C00F4050020FC050020FC0500200406002053
:10AC7C00040600200C0600200C0600201406002000
:10AC8C00140600201C0600201C06002024060020B0
:10AC9C00240600202C0600202C0600203406002060
:10ACAC00340600203C0600203C0600204406002010
:10ACBC00440600204C0600204C06002054060020C0
:10ACCC00540600205C0600205C0600206406002070
:10ACDC00640600206C0600206C0600207406002020
:10ACEC00740600207C0600207C06002084060020D0
:10ACFC00840600208C0600208C0600209406002080
:10AD0C00940600209C0600209C060020A40600202F
:10AD1C00A4060020AC060020AC060020B4060020DF
:10AD2C00B4060020BC060020BC060020C40600208F
:10AD3C00C4060020CC060020CC060020D40600203F
:10AD4C00D4060020DC060020DC060020E4060020EF
:10AD5C00E4060020EC060020EC060020F40600209F
:10AD6C00F4060020FC060020FC060020040700204E
:10AD7C00040700200C0700200C07002014070020FB
:10AD8C00140700201C0700201C07002024070020AB
:10AD9C00240700202C0700202C070020340700205B
:10ADAC00340700203C0700203C070020440700200B
:10ADBC00440700204C0700204C07002054070020BB
:10ADCC00540700205C0700205C070020640700206B
:10ADDC00640700206C0700206C070020740700201B
:10ADEC00740700207C0700207C07002084070020CB
:10ADFC00840700208C0700208C070020940700207B
:10AE0C00940700209C0700209C070020A40700202A
:10AE1C00A4070020AC070020AC070020B4070020DA
:10AE2C00B4070020BC070020BC070020C40700208A
:10AE3C00C4070020CC070020CC070020D40700203A
:10AE4C00D4070020DC070020DC070020E4070020EA
:10AE5C00E4070020EC070020EC070020F40700209A
:10AE6C00F4070020FC070020FC0700200408002049
:10AE7C00040800200C0800200C08002014080020F6
:10AE8C00140800201C0800201C08002024080020A6
:10AE9C00240800202C0800202C0800203408002056
:10AEAC00340800203C0800203C0800204408002006
:10AEBC00440800204C0800204C08002054080020B6
:10AECC00540800205C0800205C0800206408002066
:10AEDC00640800206C0800206C0800207408002016
:10AEEC00740800207C0800207C08002084080020C6
:10AEFC00840800208C0800208C0800209408002076
:10AF0C00940800209C0800209C080020A408002025
:10AF1C00A4080020AC080020AC080020B4080020D5
:10AF2C00B4080020BC080020BC080020C408002085
:0CAF3C00C408002000000200FFFFFFFF1F
:0400000508000000EF
:00000001FF
