Archive member included because of file (symbol)

c:/program files (x86)/gnu tools arm embedded/4.9 2015q2/bin/../lib/gcc/arm-none-eabi/4.9.3/../../../../arm-none-eabi/lib/armv7e-m/fpu\libm.a(lib_a-s_cos.o)
                              ..\obj\main.o (cos)
c:/program files (x86)/gnu tools arm embedded/4.9 2015q2/bin/../lib/gcc/arm-none-eabi/4.9.3/../../../../arm-none-eabi/lib/armv7e-m/fpu\libm.a(lib_a-s_sin.o)
                              ..\obj\main.o (sin)
c:/program files (x86)/gnu tools arm embedded/4.9 2015q2/bin/../lib/gcc/arm-none-eabi/4.9.3/../../../../arm-none-eabi/lib/armv7e-m/fpu\libm.a(lib_a-sf_cos.o)
                              ..\obj\main.o (cosf)
c:/program files (x86)/gnu tools arm embedded/4.9 2015q2/bin/../lib/gcc/arm-none-eabi/4.9.3/../../../../arm-none-eabi/lib/armv7e-m/fpu\libm.a(lib_a-sf_sin.o)
                              ..\obj\main.o (sinf)
c:/program files (x86)/gnu tools arm embedded/4.9 2015q2/bin/../lib/gcc/arm-none-eabi/4.9.3/../../../../arm-none-eabi/lib/armv7e-m/fpu\libm.a(lib_a-w_sqrt.o)
                              ..\obj\main.o (sqrt)
c:/program files (x86)/gnu tools arm embedded/4.9 2015q2/bin/../lib/gcc/arm-none-eabi/4.9.3/../../../../arm-none-eabi/lib/armv7e-m/fpu\libm.a(lib_a-e_rem_pio2.o)
                              c:/program files (x86)/gnu tools arm embedded/4.9 2015q2/bin/../lib/gcc/arm-none-eabi/4.9.3/../../../../arm-none-eabi/lib/armv7e-m/fpu\libm.a(lib_a-s_cos.o) (__ieee754_rem_pio2)
c:/program files (x86)/gnu tools arm embedded/4.9 2015q2/bin/../lib/gcc/arm-none-eabi/4.9.3/../../../../arm-none-eabi/lib/armv7e-m/fpu\libm.a(lib_a-e_sqrt.o)
                              c:/program files (x86)/gnu tools arm embedded/4.9 2015q2/bin/../lib/gcc/arm-none-eabi/4.9.3/../../../../arm-none-eabi/lib/armv7e-m/fpu\libm.a(lib_a-w_sqrt.o) (__ieee754_sqrt)
c:/program files (x86)/gnu tools arm embedded/4.9 2015q2/bin/../lib/gcc/arm-none-eabi/4.9.3/../../../../arm-none-eabi/lib/armv7e-m/fpu\libm.a(lib_a-ef_rem_pio2.o)
                              c:/program files (x86)/gnu tools arm embedded/4.9 2015q2/bin/../lib/gcc/arm-none-eabi/4.9.3/../../../../arm-none-eabi/lib/armv7e-m/fpu\libm.a(lib_a-sf_cos.o) (__ieee754_rem_pio2f)
c:/program files (x86)/gnu tools arm embedded/4.9 2015q2/bin/../lib/gcc/arm-none-eabi/4.9.3/../../../../arm-none-eabi/lib/armv7e-m/fpu\libm.a(lib_a-k_cos.o)
                              c:/program files (x86)/gnu tools arm embedded/4.9 2015q2/bin/../lib/gcc/arm-none-eabi/4.9.3/../../../../arm-none-eabi/lib/armv7e-m/fpu\libm.a(lib_a-s_cos.o) (__kernel_cos)
c:/program files (x86)/gnu tools arm embedded/4.9 2015q2/bin/../lib/gcc/arm-none-eabi/4.9.3/../../../../arm-none-eabi/lib/armv7e-m/fpu\libm.a(lib_a-k_rem_pio2.o)
                              c:/program files (x86)/gnu tools arm embedded/4.9 2015q2/bin/../lib/gcc/arm-none-eabi/4.9.3/../../../../arm-none-eabi/lib/armv7e-m/fpu\libm.a(lib_a-e_rem_pio2.o) (__kernel_rem_pio2)
c:/program files (x86)/gnu tools arm embedded/4.9 2015q2/bin/../lib/gcc/arm-none-eabi/4.9.3/../../../../arm-none-eabi/lib/armv7e-m/fpu\libm.a(lib_a-k_sin.o)
                              c:/program files (x86)/gnu tools arm embedded/4.9 2015q2/bin/../lib/gcc/arm-none-eabi/4.9.3/../../../../arm-none-eabi/lib/armv7e-m/fpu\libm.a(lib_a-s_cos.o) (__kernel_sin)
c:/program files (x86)/gnu tools arm embedded/4.9 2015q2/bin/../lib/gcc/arm-none-eabi/4.9.3/../../../../arm-none-eabi/lib/armv7e-m/fpu\libm.a(lib_a-kf_cos.o)
                              c:/program files (x86)/gnu tools arm embedded/4.9 2015q2/bin/../lib/gcc/arm-none-eabi/4.9.3/../../../../arm-none-eabi/lib/armv7e-m/fpu\libm.a(lib_a-sf_cos.o) (__kernel_cosf)
c:/program files (x86)/gnu tools arm embedded/4.9 2015q2/bin/../lib/gcc/arm-none-eabi/4.9.3/../../../../arm-none-eabi/lib/armv7e-m/fpu\libm.a(lib_a-kf_rem_pio2.o)
                              c:/program files (x86)/gnu tools arm embedded/4.9 2015q2/bin/../lib/gcc/arm-none-eabi/4.9.3/../../../../arm-none-eabi/lib/armv7e-m/fpu\libm.a(lib_a-ef_rem_pio2.o) (__kernel_rem_pio2f)
c:/program files (x86)/gnu tools arm embedded/4.9 2015q2/bin/../lib/gcc/arm-none-eabi/4.9.3/../../../../arm-none-eabi/lib/armv7e-m/fpu\libm.a(lib_a-kf_sin.o)
                              c:/program files (x86)/gnu tools arm embedded/4.9 2015q2/bin/../lib/gcc/arm-none-eabi/4.9.3/../../../../arm-none-eabi/lib/armv7e-m/fpu\libm.a(lib_a-sf_cos.o) (__kernel_sinf)
c:/program files (x86)/gnu tools arm embedded/4.9 2015q2/bin/../lib/gcc/arm-none-eabi/4.9.3/../../../../arm-none-eabi/lib/armv7e-m/fpu\libm.a(lib_a-s_fabs.o)
                              c:/program files (x86)/gnu tools arm embedded/4.9 2015q2/bin/../lib/gcc/arm-none-eabi/4.9.3/../../../../arm-none-eabi/lib/armv7e-m/fpu\libm.a(lib_a-e_rem_pio2.o) (fabs)
c:/program files (x86)/gnu tools arm embedded/4.9 2015q2/bin/../lib/gcc/arm-none-eabi/4.9.3/../../../../arm-none-eabi/lib/armv7e-m/fpu\libm.a(lib_a-s_floor.o)
                              c:/program files (x86)/gnu tools arm embedded/4.9 2015q2/bin/../lib/gcc/arm-none-eabi/4.9.3/../../../../arm-none-eabi/lib/armv7e-m/fpu\libm.a(lib_a-k_rem_pio2.o) (floor)
c:/program files (x86)/gnu tools arm embedded/4.9 2015q2/bin/../lib/gcc/arm-none-eabi/4.9.3/../../../../arm-none-eabi/lib/armv7e-m/fpu\libm.a(lib_a-s_fpclassify.o)
                              c:/program files (x86)/gnu tools arm embedded/4.9 2015q2/bin/../lib/gcc/arm-none-eabi/4.9.3/../../../../arm-none-eabi/lib/armv7e-m/fpu\libm.a(lib_a-w_sqrt.o) (__fpclassifyd)
c:/program files (x86)/gnu tools arm embedded/4.9 2015q2/bin/../lib/gcc/arm-none-eabi/4.9.3/../../../../arm-none-eabi/lib/armv7e-m/fpu\libm.a(lib_a-s_lib_ver.o)
                              c:/program files (x86)/gnu tools arm embedded/4.9 2015q2/bin/../lib/gcc/arm-none-eabi/4.9.3/../../../../arm-none-eabi/lib/armv7e-m/fpu\libm.a(lib_a-w_sqrt.o) (__fdlib_version)
c:/program files (x86)/gnu tools arm embedded/4.9 2015q2/bin/../lib/gcc/arm-none-eabi/4.9.3/../../../../arm-none-eabi/lib/armv7e-m/fpu\libm.a(lib_a-s_matherr.o)
                              c:/program files (x86)/gnu tools arm embedded/4.9 2015q2/bin/../lib/gcc/arm-none-eabi/4.9.3/../../../../arm-none-eabi/lib/armv7e-m/fpu\libm.a(lib_a-w_sqrt.o) (matherr)
c:/program files (x86)/gnu tools arm embedded/4.9 2015q2/bin/../lib/gcc/arm-none-eabi/4.9.3/../../../../arm-none-eabi/lib/armv7e-m/fpu\libm.a(lib_a-s_scalbn.o)
                              c:/program files (x86)/gnu tools arm embedded/4.9 2015q2/bin/../lib/gcc/arm-none-eabi/4.9.3/../../../../arm-none-eabi/lib/armv7e-m/fpu\libm.a(lib_a-k_rem_pio2.o) (scalbn)
c:/program files (x86)/gnu tools arm embedded/4.9 2015q2/bin/../lib/gcc/arm-none-eabi/4.9.3/../../../../arm-none-eabi/lib/armv7e-m/fpu\libm.a(lib_a-sf_fabs.o)
                              c:/program files (x86)/gnu tools arm embedded/4.9 2015q2/bin/../lib/gcc/arm-none-eabi/4.9.3/../../../../arm-none-eabi/lib/armv7e-m/fpu\libm.a(lib_a-ef_rem_pio2.o) (fabsf)
c:/program files (x86)/gnu tools arm embedded/4.9 2015q2/bin/../lib/gcc/arm-none-eabi/4.9.3/../../../../arm-none-eabi/lib/armv7e-m/fpu\libm.a(lib_a-sf_floor.o)
                              c:/program files (x86)/gnu tools arm embedded/4.9 2015q2/bin/../lib/gcc/arm-none-eabi/4.9.3/../../../../arm-none-eabi/lib/armv7e-m/fpu\libm.a(lib_a-kf_rem_pio2.o) (floorf)
c:/program files (x86)/gnu tools arm embedded/4.9 2015q2/bin/../lib/gcc/arm-none-eabi/4.9.3/../../../../arm-none-eabi/lib/armv7e-m/fpu\libm.a(lib_a-sf_scalbn.o)
                              c:/program files (x86)/gnu tools arm embedded/4.9 2015q2/bin/../lib/gcc/arm-none-eabi/4.9.3/../../../../arm-none-eabi/lib/armv7e-m/fpu\libm.a(lib_a-kf_rem_pio2.o) (scalbnf)
c:/program files (x86)/gnu tools arm embedded/4.9 2015q2/bin/../lib/gcc/arm-none-eabi/4.9.3/../../../../arm-none-eabi/lib/armv7e-m/fpu\libm.a(lib_a-s_copysign.o)
                              c:/program files (x86)/gnu tools arm embedded/4.9 2015q2/bin/../lib/gcc/arm-none-eabi/4.9.3/../../../../arm-none-eabi/lib/armv7e-m/fpu\libm.a(lib_a-s_scalbn.o) (copysign)
c:/program files (x86)/gnu tools arm embedded/4.9 2015q2/bin/../lib/gcc/arm-none-eabi/4.9.3/../../../../arm-none-eabi/lib/armv7e-m/fpu\libm.a(lib_a-sf_copysign.o)
                              c:/program files (x86)/gnu tools arm embedded/4.9 2015q2/bin/../lib/gcc/arm-none-eabi/4.9.3/../../../../arm-none-eabi/lib/armv7e-m/fpu\libm.a(lib_a-sf_scalbn.o) (copysignf)
c:/program files (x86)/gnu tools arm embedded/4.9 2015q2/bin/../lib/gcc/arm-none-eabi/4.9.3/armv7e-m/fpu\libgcc.a(_arm_addsubdf3.o)
                              ..\obj\main.o (__aeabi_dsub)
c:/program files (x86)/gnu tools arm embedded/4.9 2015q2/bin/../lib/gcc/arm-none-eabi/4.9.3/armv7e-m/fpu\libgcc.a(_arm_muldivdf3.o)
                              ..\obj\main.o (__aeabi_dmul)
c:/program files (x86)/gnu tools arm embedded/4.9 2015q2/bin/../lib/gcc/arm-none-eabi/4.9.3/armv7e-m/fpu\libgcc.a(_arm_cmpdf2.o)
                              c:/program files (x86)/gnu tools arm embedded/4.9 2015q2/bin/../lib/gcc/arm-none-eabi/4.9.3/../../../../arm-none-eabi/lib/armv7e-m/fpu\libm.a(lib_a-e_rem_pio2.o) (__aeabi_dcmpeq)
c:/program files (x86)/gnu tools arm embedded/4.9 2015q2/bin/../lib/gcc/arm-none-eabi/4.9.3/armv7e-m/fpu\libgcc.a(_arm_fixdfsi.o)
                              c:/program files (x86)/gnu tools arm embedded/4.9 2015q2/bin/../lib/gcc/arm-none-eabi/4.9.3/../../../../arm-none-eabi/lib/armv7e-m/fpu\libm.a(lib_a-e_rem_pio2.o) (__aeabi_d2iz)
c:/program files (x86)/gnu tools arm embedded/4.9 2015q2/bin/../lib/gcc/arm-none-eabi/4.9.3/armv7e-m/fpu\libgcc.a(_arm_fixunsdfsi.o)
                              ..\obj\main.o (__aeabi_d2uiz)
c:/program files (x86)/gnu tools arm embedded/4.9 2015q2/bin/../lib/gcc/arm-none-eabi/4.9.3/armv7e-m/fpu\libgcc.a(_arm_truncdfsf2.o)
                              ..\obj\main.o (__aeabi_d2f)
c:/program files (x86)/gnu tools arm embedded/4.9 2015q2/bin/../lib/gcc/arm-none-eabi/4.9.3/../../../../arm-none-eabi/lib/armv7e-m/fpu\libc.a(lib_a-errno.o)
                              c:/program files (x86)/gnu tools arm embedded/4.9 2015q2/bin/../lib/gcc/arm-none-eabi/4.9.3/../../../../arm-none-eabi/lib/armv7e-m/fpu\libm.a(lib_a-w_sqrt.o) (__errno)
c:/program files (x86)/gnu tools arm embedded/4.9 2015q2/bin/../lib/gcc/arm-none-eabi/4.9.3/../../../../arm-none-eabi/lib/armv7e-m/fpu\libc.a(lib_a-impure.o)
                              c:/program files (x86)/gnu tools arm embedded/4.9 2015q2/bin/../lib/gcc/arm-none-eabi/4.9.3/../../../../arm-none-eabi/lib/armv7e-m/fpu\libc.a(lib_a-errno.o) (_impure_ptr)
c:/program files (x86)/gnu tools arm embedded/4.9 2015q2/bin/../lib/gcc/arm-none-eabi/4.9.3/../../../../arm-none-eabi/lib/armv7e-m/fpu\libc.a(lib_a-malloc.o)
                              ..\obj\main.o (malloc)
c:/program files (x86)/gnu tools arm embedded/4.9 2015q2/bin/../lib/gcc/arm-none-eabi/4.9.3/../../../../arm-none-eabi/lib/armv7e-m/fpu\libc.a(lib_a-mallocr.o)
                              c:/program files (x86)/gnu tools arm embedded/4.9 2015q2/bin/../lib/gcc/arm-none-eabi/4.9.3/../../../../arm-none-eabi/lib/armv7e-m/fpu\libc.a(lib_a-malloc.o) (_malloc_r)
c:/program files (x86)/gnu tools arm embedded/4.9 2015q2/bin/../lib/gcc/arm-none-eabi/4.9.3/../../../../arm-none-eabi/lib/armv7e-m/fpu\libc.a(lib_a-memcpy.o)
                              ..\obj\main.o (memcpy)
c:/program files (x86)/gnu tools arm embedded/4.9 2015q2/bin/../lib/gcc/arm-none-eabi/4.9.3/../../../../arm-none-eabi/lib/armv7e-m/fpu\libc.a(lib_a-mlock.o)
                              c:/program files (x86)/gnu tools arm embedded/4.9 2015q2/bin/../lib/gcc/arm-none-eabi/4.9.3/../../../../arm-none-eabi/lib/armv7e-m/fpu\libc.a(lib_a-mallocr.o) (__malloc_lock)
c:/program files (x86)/gnu tools arm embedded/4.9 2015q2/bin/../lib/gcc/arm-none-eabi/4.9.3/../../../../arm-none-eabi/lib/armv7e-m/fpu\libc.a(lib_a-sbrkr.o)
                              c:/program files (x86)/gnu tools arm embedded/4.9 2015q2/bin/../lib/gcc/arm-none-eabi/4.9.3/../../../../arm-none-eabi/lib/armv7e-m/fpu\libc.a(lib_a-mallocr.o) (_sbrk_r)
c:/program files (x86)/gnu tools arm embedded/4.9 2015q2/bin/../lib/gcc/arm-none-eabi/4.9.3/../../../../arm-none-eabi/lib/armv7e-m/fpu\libc.a(lib_a-freer.o)
                              c:/program files (x86)/gnu tools arm embedded/4.9 2015q2/bin/../lib/gcc/arm-none-eabi/4.9.3/../../../../arm-none-eabi/lib/armv7e-m/fpu\libc.a(lib_a-malloc.o) (_free_r)
c:/program files (x86)/gnu tools arm embedded/4.9 2015q2/bin/../lib/gcc/arm-none-eabi/4.9.3/../../../../arm-none-eabi/lib/armv7e-m/fpu\libc.a(lib_a-reent.o)
                              c:/program files (x86)/gnu tools arm embedded/4.9 2015q2/bin/../lib/gcc/arm-none-eabi/4.9.3/../../../../arm-none-eabi/lib/armv7e-m/fpu\libc.a(lib_a-sbrkr.o) (errno)

Allocating common symbols
Common symbol       size              file

t                   0x4               ..\obj\main.o
tmp_q1              0xc               ..\obj\main.o
fm_q0               0x4               ..\obj\main.o
errno               0x4               c:/program files (x86)/gnu tools arm embedded/4.9 2015q2/bin/../lib/gcc/arm-none-eabi/4.9.3/../../../../arm-none-eabi/lib/armv7e-m/fpu\libc.a(lib_a-reent.o)
fm_E                0x4               ..\obj\main.o
fm_J                0x4               ..\obj\main.o
droidQ              0x48              ..\obj\main.o
tmp_E               0xc               ..\obj\main.o
fm_q                0x4               ..\obj\main.o
fm_h                0x4               ..\obj\main.o
fm_J1I              0x4               ..\obj\main.o
fm_J1               0x4               ..\obj\main.o
tmp_J1              0xc               ..\obj\main.o
tmp_J1DetTmp        0xc               ..\obj\main.o
fm_yd               0x4               ..\obj\main.o
tmp_J1InvTmp        0xc               ..\obj\main.o
tmp_JSH             0xc               ..\obj\main.o
tmp_y               0xc               ..\obj\main.o
fm_q1               0x4               ..\obj\main.o
tmp_q               0xc               ..\obj\main.o
tmp_h               0xc               ..\obj\main.o
tmp_q0              0xc               ..\obj\main.o
GPIO_InitStructure  0x8               ..\obj\hd44780.o
tmp_J1I             0xc               ..\obj\main.o
fm_y                0x4               ..\obj\main.o
fm_JT               0x4               ..\obj\main.o
fm_JSH              0x4               ..\obj\main.o
tmp_yd              0xc               ..\obj\main.o
tmp_JT              0xc               ..\obj\main.o
tmp_J               0xc               ..\obj\main.o
fm_J1DetTmp         0x4               ..\obj\main.o
fm_J1InvTmp         0x4               ..\obj\main.o

Discarded input sections

 .text          0x00000000        0x0 ..\obj\stm32f4xx_syscfg.o
 .data          0x00000000        0x0 ..\obj\stm32f4xx_syscfg.o
 .bss           0x00000000        0x0 ..\obj\stm32f4xx_syscfg.o
 .text.SYSCFG_DeInit
                0x00000000       0x1c ..\obj\stm32f4xx_syscfg.o
 .text.SYSCFG_MemoryRemapConfig
                0x00000000       0x20 ..\obj\stm32f4xx_syscfg.o
 .text.SYSCFG_ETH_MediaInterfaceConfig
                0x00000000       0x1c ..\obj\stm32f4xx_syscfg.o
 .text.SYSCFG_CompensationCellCmd
                0x00000000       0x20 ..\obj\stm32f4xx_syscfg.o
 .text.SYSCFG_GetCompensationCellStatus
                0x00000000       0x34 ..\obj\stm32f4xx_syscfg.o
 .text          0x00000000        0x0 ..\obj\stm32f4xx_usart.o
 .data          0x00000000        0x0 ..\obj\stm32f4xx_usart.o
 .bss           0x00000000        0x0 ..\obj\stm32f4xx_usart.o
 .text.USART_DeInit
                0x00000000       0xd0 ..\obj\stm32f4xx_usart.o
Memory Configuration

Name             Origin             Length             Attributes
rom              0x08000000         0x00100000         xr
ram              0x20000000         0x00020000         xrw
ram1             0x10000000         0x00010000         xrw
*default*        0x00000000         0xffffffff

Linker script and memory map

                0x20020000                _eram = 0x20020000

.text           0x08000000     0xa9a4
 *(.isr_vector)
 .isr_vector    0x08000000      0x188 ..\obj\startup_stm32f4xx.o
                0x08000000                g_pfnVectors
 *(.text*)
 .text.SYSCFG_EXTILineConfig
                0x08000188       0x84 ..\obj\stm32f4xx_syscfg.o
                0x08000188                SYSCFG_EXTILineConfig
 .text.USART_Init
                0x0800020c      0x178 ..\obj\stm32f4xx_usart.o
                0x0800020c                USART_Init
 .text.USART_Cmd
                0x08000384       0x40 ..\obj\stm32f4xx_usart.o
                0x08000384                USART_Cmd
 .text.USART_SendData
                0x080003c4       0x24 ..\obj\stm32f4xx_usart.o
                0x080003c4                USART_SendData
 .text.USART_ReceiveData
                0x080003e8       0x20 ..\obj\stm32f4xx_usart.o
                0x080003e8                USART_ReceiveData
 .text.USART_ITConfig
                0x08000408       0x90 ..\obj\stm32f4xx_usart.o
                0x08000408                USART_ITConfig
 .text.USART_GetFlagStatus
                0x08000498       0x38 ..\obj\stm32f4xx_usart.o
                0x08000498                USART_GetFlagStatus
 .text.USART_GetITStatus
                0x080004d0       0xb8 ..\obj\stm32f4xx_usart.o
                0x080004d0                USART_GetITStatus
 .text.Default_Reset_Handler
                0x08000588       0x68 ..\obj\startup_stm32f4xx.o
                0x08000588                Default_Reset_Handler
                0x08000588                Reset_Handler
 .text.Default_Handler
                0x080005f0        0x8 ..\obj\startup_stm32f4xx.o
                0x080005f0                RTC_Alarm_IRQHandler
                0x080005f0                HASH_RNG_IRQHandler
                0x080005f0                EXTI2_IRQHandler
                0x080005f0                TIM8_CC_IRQHandler
                0x080005f0                DebugMon_Handler
                0x080005f0                TIM1_CC_IRQHandler
                0x080005f0                DMA2_Stream5_IRQHandler
                0x080005f0                HardFault_Handler
                0x080005f0                DMA1_Stream5_IRQHandler
                0x080005f0                PVD_IRQHandler
                0x080005f0                SDIO_IRQHandler
                0x080005f0                TAMP_STAMP_IRQHandler
                0x080005f0                PendSV_Handler
                0x080005f0                NMI_Handler
                0x080005f0                CAN2_RX1_IRQHandler
                0x080005f0                EXTI3_IRQHandler
                0x080005f0                TIM8_TRG_COM_TIM14_IRQHandler
                0x080005f0                TIM1_UP_TIM10_IRQHandler
                0x080005f0                TIM8_UP_TIM13_IRQHandler
                0x080005f0                I2C3_ER_IRQHandler
                0x080005f0                I2C2_EV_IRQHandler
                0x080005f0                DMA1_Stream2_IRQHandler
                0x080005f0                CAN1_RX0_IRQHandler
                0x080005f0                FPU_IRQHandler
                0x080005f0                OTG_HS_WKUP_IRQHandler
                0x080005f0                UsageFault_Handler
                0x080005f0                CAN2_SCE_IRQHandler
                0x080005f0                DMA2_Stream2_IRQHandler
                0x080005f0                SPI1_IRQHandler
                0x080005f0                TIM6_DAC_IRQHandler
                0x080005f0                TIM1_BRK_TIM9_IRQHandler
                0x080005f0                DCMI_IRQHandler
                0x080005f0                CAN2_RX0_IRQHandler
                0x080005f0                DMA2_Stream3_IRQHandler
                0x080005f0                USART6_IRQHandler
                0x080005f0                USART3_IRQHandler
                0x080005f0                CRYP_IRQHandler
                0x080005f0                CAN1_RX1_IRQHandler
                0x080005f0                UART5_IRQHandler
                0x080005f0                DMA2_Stream0_IRQHandler
                0x080005f0                TIM4_IRQHandler
                0x080005f0                I2C1_EV_IRQHandler
                0x080005f0                DMA1_Stream6_IRQHandler
                0x080005f0                DMA1_Stream1_IRQHandler
                0x080005f0                TIM3_IRQHandler
                0x080005f0                RCC_IRQHandler
                0x080005f0                TIM8_BRK_TIM12_IRQHandler
                0x080005f0                EXTI15_10_IRQHandler
                0x080005f0                ADC_IRQHandler
                0x080005f0                DMA1_Stream7_IRQHandler
                0x080005f0                CAN2_TX_IRQHandler
                0x080005f0                TIM5_IRQHandler
                0x080005f0                DMA2_Stream7_IRQHandler
                0x080005f0                I2C3_EV_IRQHandler
                0x080005f0                EXTI9_5_IRQHandler
                0x080005f0                RTC_WKUP_IRQHandler
                0x080005f0                ETH_WKUP_IRQHandler
                0x080005f0                SPI2_IRQHandler
                0x080005f0                OTG_HS_EP1_IN_IRQHandler
                0x080005f0                MemManage_Handler
                0x080005f0                DMA1_Stream0_IRQHandler
                0x080005f0                CAN1_TX_IRQHandler
                0x080005f0                SVC_Handler
                0x080005f0                EXTI4_IRQHandler
                0x080005f0                FSMC_IRQHandler
                0x080005f0                ETH_IRQHandler
                0x080005f0                OTG_HS_EP1_OUT_IRQHandler
                0x080005f0                WWDG_IRQHandler
                0x080005f0                TIM2_IRQHandler
                0x080005f0                OTG_FS_WKUP_IRQHandler
                0x080005f0                TIM1_TRG_COM_TIM11_IRQHandler
                0x080005f0                OTG_HS_IRQHandler
                0x080005f0                EXTI1_IRQHandler
                0x080005f0                I2C2_ER_IRQHandler
                0x080005f0                DMA2_Stream1_IRQHandler
                0x080005f0                CAN1_SCE_IRQHandler
                0x080005f0                FLASH_IRQHandler
                0x080005f0                DMA2_Stream4_IRQHandler
                0x080005f0                BusFault_Handler
                0x080005f0                USART1_IRQHandler
                0x080005f0                OTG_FS_IRQHandler
                0x080005f0                SPI3_IRQHandler
                0x080005f0                DMA1_Stream4_IRQHandler
                0x080005f0                I2C1_ER_IRQHandler
                0x080005f0                DMA2_Stream6_IRQHandler
                0x080005f0                DMA1_Stream3_IRQHandler
 .text.NVIC_SetPriority
                0x080005f8       0x54 ..\obj\main.o
 .text.SysTick_Config_Mod
                0x0800064c       0x64 ..\obj\main.o
                0x0800064c                SysTick_Config_Mod
 .text.RC5_Init
                0x080006b0       0x4c ..\obj\main.o
                0x080006b0                RC5_Init
 .text.detect   0x080006fc      0x1a0 ..\obj\main.o
                0x080006fc                detect
 .text.SysTick_Handler
                0x0800089c       0x4c ..\obj\main.o
                0x0800089c                SysTick_Handler
 .text.MainMenu
                0x080008e8      0x188 ..\obj\main.o
                0x080008e8                MainMenu
 .text.POMPKA_Config
                0x08000a70       0xbc ..\obj\main.o
                0x08000a70                POMPKA_Config
 .text.PompkaWypelnienieP
                0x08000b2c       0x34 ..\obj\main.o
                0x08000b2c                PompkaWypelnienieP
 .text.PompkaWypelnienie
                0x08000b60       0x20 ..\obj\main.o
                0x08000b60                PompkaWypelnienie
 .text.PompkaWypelnienieMod
                0x08000b80       0x24 ..\obj\main.o
                0x08000b80                PompkaWypelnienieMod
 .text.servoSet
                0x08000ba4      0x188 ..\obj\main.o
                0x08000ba4                servoSet
 .text.servoAngle0
                0x08000d2c       0x3c ..\obj\main.o
                0x08000d2c                servoAngle0
 .text.servoAngle1
                0x08000d68       0x3c ..\obj\main.o
                0x08000d68                servoAngle1
 .text.servoAngle2
                0x08000da4       0x3c ..\obj\main.o
                0x08000da4                servoAngle2
 .text.servoAngle3
                0x08000de0       0x3c ..\obj\main.o
                0x08000de0                servoAngle3
 .text.servoAngle4
                0x08000e1c       0x3c ..\obj\main.o
                0x08000e1c                servoAngle4
 .text.servoAngle5
                0x08000e58       0x3c ..\obj\main.o
                0x08000e58                servoAngle5
 .text.qAdd     0x08000e94       0x70 ..\obj\main.o
                0x08000e94                qAdd
 .text.qGet     0x08000f04       0x5c ..\obj\main.o
                0x08000f04                qGet
 .text.qEmpty   0x08000f60       0x28 ..\obj\main.o
                0x08000f60                qEmpty
 .text.NewElem  0x08000f88       0x4c ..\obj\main.o
                0x08000f88                NewElem
 .text.InitMemory
                0x08000fd4      0x12c ..\obj\main.o
                0x08000fd4                InitMemory
 .text.DELAY_Config
                0x08001100        0xc ..\obj\main.o
                0x08001100                DELAY_Config
 .text._delay_ms
                0x0800110c       0x30 ..\obj\main.o
                0x0800110c                _delay_ms
 .text.Set      0x0800113c      0x1dc ..\obj\main.o
                0x0800113c                Set
 .text.Move     0x08001318       0x60 ..\obj\main.o
                0x08001318                Move
 .text.SetSlowAngle
                0x08001378      0x244 ..\obj\main.o
                0x08001378                SetSlowAngle
 .text.SetSlowOneAngle
                0x080015bc       0xc4 ..\obj\main.o
                0x080015bc                SetSlowOneAngle
 .text.Init     0x08001680       0xb4 ..\obj\main.o
                0x08001680                Init
 .text.MOTORS_Config
                0x08001734      0x114 ..\obj\main.o
                0x08001734                MOTORS_Config
 .text.Jazda    0x08001848       0xc0 ..\obj\main.o
                0x08001848                Jazda
 .text.JazdaP   0x08001908      0x128 ..\obj\main.o
                0x08001908                JazdaP
 .text.MenuJazda
                0x08001a30       0xe4 ..\obj\main.o
                0x08001a30                MenuJazda
 .text.fmCreate
                0x08001b14       0x38 ..\obj\main.o
                0x08001b14                fmCreate
 .text.fmCopy   0x08001b4c       0x4c ..\obj\main.o
                0x08001b4c                fmCopy
 .text.fmAdd    0x08001b98       0x64 ..\obj\main.o
                0x08001b98                fmAdd
 .text.fmSub    0x08001bfc       0x64 ..\obj\main.o
                0x08001bfc                fmSub
 .text.fmMulfS  0x08001c60       0x58 ..\obj\main.o
                0x08001c60                fmMulfS
 .text.fmMul    0x08001cb8       0xbc ..\obj\main.o
                0x08001cb8                fmMul
 .text.fmTrans  0x08001d74       0x70 ..\obj\main.o
                0x08001d74                fmTrans
 .text.fmNorm   0x08001de4       0x88 ..\obj\main.o
                0x08001de4                fmNorm
 .text.fmSwitchR
                0x08001e6c       0x90 ..\obj\main.o
                0x08001e6c                fmSwitchR
 .text.fmMulR   0x08001efc       0x6c ..\obj\main.o
                0x08001efc                fmMulR
 .text.fmAddMulR
                0x08001f68       0x8c ..\obj\main.o
                0x08001f68                fmAddMulR
 *fill*         0x08001ff4        0x4 
 .text.fmDetEvenFaster
                0x08001ff8      0x160 ..\obj\main.o
                0x08001ff8                fmDetEvenFaster
 .text.fmInvertEvenFaster
                0x08002158      0x2c0 ..\obj\main.o
                0x08002158                fmInvertEvenFaster
 .text.fmGet    0x08002418       0x38 ..\obj\main.o
                0x08002418                fmGet
 .text.fmSet    0x08002450       0x34 ..\obj\main.o
                0x08002450                fmSet
 .text.rkJacobian
                0x08002484      0x490 ..\obj\main.o
                0x08002484                rkJacobian
 .text.rkKinematic
                0x08002914      0x138 ..\obj\main.o
                0x08002914                rkKinematic
 *fill*         0x08002a4c        0x4 
 .text.rkReversKinematic
                0x08002a50      0x204 ..\obj\main.o
                0x08002a50                rkReversKinematic
 .text.rkBoundAngle
                0x08002c54       0x5c ..\obj\main.o
                0x08002c54                rkBoundAngle
 .text.rkMove   0x08002cb0      0x2a8 ..\obj\main.o
                0x08002cb0                rkMove
 .text.rkMoveAbout
                0x08002f58       0xf0 ..\obj\main.o
                0x08002f58                rkMoveAbout
 .text.rkInit   0x08003048      0x224 ..\obj\main.o
                0x08003048                rkInit
 .text.R2D      0x0800326c       0x34 ..\obj\main.o
                0x0800326c                R2D
 .text.rkMoveArm
                0x080032a0       0xd4 ..\obj\main.o
                0x080032a0                rkMoveArm
 .text.EXTI0_IRQHandler
                0x08003374       0x24 ..\obj\main.o
                0x08003374                EXTI0_IRQHandler
 .text.STEPER_Config
                0x08003398      0x248 ..\obj\main.o
                0x08003398                STEPER_Config
 .text.MikroKrok2
                0x080035e0      0x204 ..\obj\main.o
                0x080035e0                MikroKrok2
 .text.MikroKrokSC
                0x080037e4      0x1c8 ..\obj\main.o
                0x080037e4                MikroKrokSC
 .text.SteperTimerHandler
                0x080039ac       0x40 ..\obj\main.o
                0x080039ac                SteperTimerHandler
 .text.TIM7_IRQHandler
                0x080039ec       0x24 ..\obj\main.o
                0x080039ec                TIM7_IRQHandler
 .text.Krocz    0x08003a10       0x40 ..\obj\main.o
                0x08003a10                Krocz
 .text.ZerujKrokowy
                0x08003a50       0x78 ..\obj\main.o
                0x08003a50                ZerujKrokowy
 .text.KrokowyStop
                0x08003ac8       0x24 ..\obj\main.o
                0x08003ac8                KrokowyStop
 .text.BUZZER_Config
                0x08003aec       0xc0 ..\obj\main.o
                0x08003aec                BUZZER_Config
 .text.BuzzerSet
                0x08003bac       0x18 ..\obj\main.o
                0x08003bac                BuzzerSet
 .text.BuzzerReset
                0x08003bc4       0x18 ..\obj\main.o
                0x08003bc4                BuzzerReset
 .text.USART2_IRQHandler
                0x08003bdc       0x34 ..\obj\main.o
                0x08003bdc                USART2_IRQHandler
 .text.GetNextData
                0x08003c10       0x28 ..\obj\main.o
                0x08003c10                GetNextData
 .text.RightPad
                0x08003c38      0x1cc ..\obj\main.o
                0x08003c38                RightPad
 .text.Gyro     0x08003e04       0x48 ..\obj\main.o
                0x08003e04                Gyro
 *fill*         0x08003e4c        0x4 
 .text.BluetoothComunication
                0x08003e50      0x5bc ..\obj\main.o
                0x08003e50                BluetoothComunication
 .text.RCC_Config
                0x0800440c       0x7c ..\obj\main.o
                0x0800440c                RCC_Config
 .text.NVIC_Config
                0x08004488       0x34 ..\obj\main.o
                0x08004488                NVIC_Config
 .text.BLUE_Config
                0x080044bc       0x94 ..\obj\main.o
                0x080044bc                BLUE_Config
 .text.SERVO_Config
                0x08004550      0x200 ..\obj\main.o
                0x08004550                SERVO_Config
 .text.GPIO_Config
                0x08004750       0x38 ..\obj\main.o
                0x08004750                GPIO_Config
 .text.UART4_IRQHandler
                0x08004788       0x14 ..\obj\main.o
                0x08004788                UART4_IRQHandler
 .text.ADC_Config
                0x0800479c       0xb4 ..\obj\main.o
                0x0800479c                ADC_Config
 .text.Napiecie
                0x08004850       0xec ..\obj\main.o
                0x08004850                Napiecie
 .text.ShowAllAngle
                0x0800493c       0x74 ..\obj\main.o
                0x0800493c                ShowAllAngle
 .text.RecznaManipulacja
                0x080049b0      0x1d8 ..\obj\main.o
                0x080049b0                RecznaManipulacja
 .text.KalibracjaServ
                0x08004b88      0x148 ..\obj\main.o
                0x08004b88                KalibracjaServ
 .text.Pompka   0x08004cd0       0xa8 ..\obj\main.o
                0x08004cd0                Pompka
 .text.main     0x08004d78      0x11c ..\obj\main.o
                0x08004d78                main
 .text.RCC_DeInit
                0x08004e94       0x50 ..\obj\stm32f4xx_rcc.o
                0x08004e94                RCC_DeInit
 .text.RCC_HSEConfig
                0x08004ee4       0x24 ..\obj\stm32f4xx_rcc.o
                0x08004ee4                RCC_HSEConfig
 .text.RCC_WaitForHSEStartUp
                0x08004f08       0x50 ..\obj\stm32f4xx_rcc.o
                0x08004f08                RCC_WaitForHSEStartUp
 .text.RCC_PLLConfig
                0x08004f58       0x3c ..\obj\stm32f4xx_rcc.o
                0x08004f58                RCC_PLLConfig
 .text.RCC_PLLCmd
                0x08004f94       0x20 ..\obj\stm32f4xx_rcc.o
                0x08004f94                RCC_PLLCmd
 .text.RCC_SYSCLKConfig
                0x08004fb4       0x38 ..\obj\stm32f4xx_rcc.o
                0x08004fb4                RCC_SYSCLKConfig
 .text.RCC_GetSYSCLKSource
                0x08004fec       0x20 ..\obj\stm32f4xx_rcc.o
                0x08004fec                RCC_GetSYSCLKSource
 .text.RCC_HCLKConfig
                0x0800500c       0x38 ..\obj\stm32f4xx_rcc.o
                0x0800500c                RCC_HCLKConfig
 .text.RCC_PCLK1Config
                0x08005044       0x38 ..\obj\stm32f4xx_rcc.o
                0x08005044                RCC_PCLK1Config
 .text.RCC_PCLK2Config
                0x0800507c       0x38 ..\obj\stm32f4xx_rcc.o
                0x0800507c                RCC_PCLK2Config
 .text.RCC_GetClocksFreq
                0x080050b4      0x154 ..\obj\stm32f4xx_rcc.o
                0x080050b4                RCC_GetClocksFreq
 .text.RCC_AHB1PeriphClockCmd
                0x08005208       0x3c ..\obj\stm32f4xx_rcc.o
                0x08005208                RCC_AHB1PeriphClockCmd
 .text.RCC_APB1PeriphClockCmd
                0x08005244       0x3c ..\obj\stm32f4xx_rcc.o
                0x08005244                RCC_APB1PeriphClockCmd
 .text.RCC_APB2PeriphClockCmd
                0x08005280       0x3c ..\obj\stm32f4xx_rcc.o
                0x08005280                RCC_APB2PeriphClockCmd
 .text.RCC_APB2PeriphResetCmd
                0x080052bc       0x3c ..\obj\stm32f4xx_rcc.o
                0x080052bc                RCC_APB2PeriphResetCmd
 .text.RCC_GetFlagStatus
                0x080052f8       0x74 ..\obj\stm32f4xx_rcc.o
                0x080052f8                RCC_GetFlagStatus
 .text.ADC_DeInit
                0x0800536c       0x1c ..\obj\stm32f4xx_adc.o
                0x0800536c                ADC_DeInit
 .text.ADC_Init
                0x08005388       0xa8 ..\obj\stm32f4xx_adc.o
                0x08005388                ADC_Init
 .text.ADC_CommonInit
                0x08005430       0x50 ..\obj\stm32f4xx_adc.o
                0x08005430                ADC_CommonInit
 .text.ADC_Cmd  0x08005480       0x38 ..\obj\stm32f4xx_adc.o
                0x08005480                ADC_Cmd
 .text.ADC_TempSensorVrefintCmd
                0x080054b8       0x38 ..\obj\stm32f4xx_adc.o
                0x080054b8                ADC_TempSensorVrefintCmd
 .text.ADC_RegularChannelConfig
                0x080054f0      0x194 ..\obj\stm32f4xx_adc.o
                0x080054f0                ADC_RegularChannelConfig
 .text.ADC_SoftwareStartConv
                0x08005684       0x20 ..\obj\stm32f4xx_adc.o
                0x08005684                ADC_SoftwareStartConv
 .text.ADC_GetConversionValue
                0x080056a4       0x1c ..\obj\stm32f4xx_adc.o
                0x080056a4                ADC_GetConversionValue
 .text.lcd_writenibble
                0x080056c0       0x74 ..\obj\hd44780.o
                0x080056c0                lcd_writenibble
 .text.LCD_ReadNibble
                0x08005734       0x88 ..\obj\hd44780.o
                0x08005734                LCD_ReadNibble
 .text.LCD_ReadStatus
                0x080057bc       0x88 ..\obj\hd44780.o
                0x080057bc                LCD_ReadStatus
 .text.LCDSendByte
                0x08005844       0x54 ..\obj\hd44780.o
                0x08005844                LCDSendByte
 .text.LCDAddress
                0x08005898       0x48 ..\obj\hd44780.o
                0x08005898                LCDAddress
 .text.LCDOutString
                0x080058e0       0x28 ..\obj\hd44780.o
                0x080058e0                LCDOutString
 .text.LCDXY    0x08005908       0x6c ..\obj\hd44780.o
                0x08005908                LCDXY
 .text.LCDInit  0x08005974       0xdc ..\obj\hd44780.o
                0x08005974                LCDInit
 .text.LCDClear
                0x08005a50        0xc ..\obj\hd44780.o
                0x08005a50                LCDClear
 .text.LCDOutFloat
                0x08005a5c      0x1cc ..\obj\hd44780.o
                0x08005a5c                LCDOutFloat
 .text.LCDOutUFloat
                0x08005c28      0x1a4 ..\obj\hd44780.o
                0x08005c28                LCDOutUFloat
 .text.LCDOutint32
                0x08005dcc      0x11c ..\obj\hd44780.o
                0x08005dcc                LCDOutint32
 .text.LCDOutint16
                0x08005ee8      0x12c ..\obj\hd44780.o
                0x08005ee8                LCDOutint16
 .text.GPIO_Init
                0x08006014      0x11c ..\obj\stm32f4xx_gpio.o
                0x08006014                GPIO_Init
 .text.GPIO_ReadInputDataBit
                0x08006130       0x34 ..\obj\stm32f4xx_gpio.o
                0x08006130                GPIO_ReadInputDataBit
 .text.GPIO_SetBits
                0x08006164       0x1c ..\obj\stm32f4xx_gpio.o
                0x08006164                GPIO_SetBits
 .text.GPIO_ResetBits
                0x08006180       0x1c ..\obj\stm32f4xx_gpio.o
                0x08006180                GPIO_ResetBits
 .text.GPIO_WriteBit
                0x0800619c       0x30 ..\obj\stm32f4xx_gpio.o
                0x0800619c                GPIO_WriteBit
 .text.GPIO_ToggleBits
                0x080061cc       0x24 ..\obj\stm32f4xx_gpio.o
                0x080061cc                GPIO_ToggleBits
 .text.GPIO_PinAFConfig
                0x080061f0       0x90 ..\obj\stm32f4xx_gpio.o
                0x080061f0                GPIO_PinAFConfig
 .text.FLASH_SetLatency
                0x08006280       0x20 ..\obj\stm32f4xx_flash.o
                0x08006280                FLASH_SetLatency
 .text.FLASH_PrefetchBufferCmd
                0x080062a0       0x38 ..\obj\stm32f4xx_flash.o
                0x080062a0                FLASH_PrefetchBufferCmd
 .text._sbrk    0x080062d8       0x40 ..\obj\syscalls.o
                0x080062d8                _sbrk
 .text.EXTI_Init
                0x08006318       0xe4 ..\obj\stm32f4xx_exti.o
                0x08006318                EXTI_Init
 .text.EXTI_GetITStatus
                0x080063fc       0x48 ..\obj\stm32f4xx_exti.o
                0x080063fc                EXTI_GetITStatus
 .text.EXTI_ClearITPendingBit
                0x08006444       0x1c ..\obj\stm32f4xx_exti.o
                0x08006444                EXTI_ClearITPendingBit
 .text.NVIC_Init
                0x08006460       0xc0 ..\obj\misc.o
                0x08006460                NVIC_Init
 .text.TIM_TimeBaseInit
                0x08006520       0xd4 ..\obj\stm32f4xx_tim.o
                0x08006520                TIM_TimeBaseInit
 .text.TIM_Cmd  0x080065f4       0x40 ..\obj\stm32f4xx_tim.o
                0x080065f4                TIM_Cmd
 .text.TIM_OC1Init
                0x08006634       0xf4 ..\obj\stm32f4xx_tim.o
                0x08006634                TIM_OC1Init
 .text.TIM_OC2Init
                0x08006728      0x110 ..\obj\stm32f4xx_tim.o
                0x08006728                TIM_OC2Init
 .text.TIM_OC3Init
                0x08006838      0x10c ..\obj\stm32f4xx_tim.o
                0x08006838                TIM_OC3Init
 .text.TIM_OC4Init
                0x08006944       0xcc ..\obj\stm32f4xx_tim.o
                0x08006944                TIM_OC4Init
 .text.TIM_OC1PreloadConfig
                0x08006a10       0x38 ..\obj\stm32f4xx_tim.o
                0x08006a10                TIM_OC1PreloadConfig
 .text.TIM_OC2PreloadConfig
                0x08006a48       0x3c ..\obj\stm32f4xx_tim.o
                0x08006a48                TIM_OC2PreloadConfig
 .text.TIM_OC3PreloadConfig
                0x08006a84       0x38 ..\obj\stm32f4xx_tim.o
                0x08006a84                TIM_OC3PreloadConfig
 .text.TIM_OC4PreloadConfig
                0x08006abc       0x3c ..\obj\stm32f4xx_tim.o
                0x08006abc                TIM_OC4PreloadConfig
 .text.TIM_CtrlPWMOutputs
                0x08006af8       0x4c ..\obj\stm32f4xx_tim.o
                0x08006af8                TIM_CtrlPWMOutputs
 .text.TIM_ITConfig
                0x08006b44       0x48 ..\obj\stm32f4xx_tim.o
                0x08006b44                TIM_ITConfig
 .text.TIM_GetITStatus
                0x08006b8c       0x54 ..\obj\stm32f4xx_tim.o
                0x08006b8c                TIM_GetITStatus
 .text.TIM_ClearITPendingBit
                0x08006be0       0x20 ..\obj\stm32f4xx_tim.o
                0x08006be0                TIM_ClearITPendingBit
 .text.cos      0x08006c00       0xa8 c:/program files (x86)/gnu tools arm embedded/4.9 2015q2/bin/../lib/gcc/arm-none-eabi/4.9.3/../../../../arm-none-eabi/lib/armv7e-m/fpu\libm.a(lib_a-s_cos.o)
                0x08006c00                cos
 .text.sin      0x08006ca8       0xa8 c:/program files (x86)/gnu tools arm embedded/4.9 2015q2/bin/../lib/gcc/arm-none-eabi/4.9.3/../../../../arm-none-eabi/lib/armv7e-m/fpu\libm.a(lib_a-s_sin.o)
                0x08006ca8                sin
 .text.cosf     0x08006d50       0x78 c:/program files (x86)/gnu tools arm embedded/4.9 2015q2/bin/../lib/gcc/arm-none-eabi/4.9.3/../../../../arm-none-eabi/lib/armv7e-m/fpu\libm.a(lib_a-sf_cos.o)
                0x08006d50                cosf
 .text.sinf     0x08006dc8       0x7c c:/program files (x86)/gnu tools arm embedded/4.9 2015q2/bin/../lib/gcc/arm-none-eabi/4.9.3/../../../../arm-none-eabi/lib/armv7e-m/fpu\libm.a(lib_a-sf_sin.o)
                0x08006dc8                sinf
 .text.sqrt     0x08006e44       0xbc c:/program files (x86)/gnu tools arm embedded/4.9 2015q2/bin/../lib/gcc/arm-none-eabi/4.9.3/../../../../arm-none-eabi/lib/armv7e-m/fpu\libm.a(lib_a-w_sqrt.o)
                0x08006e44                sqrt
 .text.__ieee754_rem_pio2
                0x08006f00      0x44c c:/program files (x86)/gnu tools arm embedded/4.9 2015q2/bin/../lib/gcc/arm-none-eabi/4.9.3/../../../../arm-none-eabi/lib/armv7e-m/fpu\libm.a(lib_a-e_rem_pio2.o)
                0x08006f00                __ieee754_rem_pio2
 .text.__ieee754_sqrt
                0x0800734c      0x1a8 c:/program files (x86)/gnu tools arm embedded/4.9 2015q2/bin/../lib/gcc/arm-none-eabi/4.9.3/../../../../arm-none-eabi/lib/armv7e-m/fpu\libm.a(lib_a-e_sqrt.o)
                0x0800734c                __ieee754_sqrt
 .text.__ieee754_rem_pio2f
                0x080074f4      0x290 c:/program files (x86)/gnu tools arm embedded/4.9 2015q2/bin/../lib/gcc/arm-none-eabi/4.9.3/../../../../arm-none-eabi/lib/armv7e-m/fpu\libm.a(lib_a-ef_rem_pio2.o)
                0x080074f4                __ieee754_rem_pio2f
 *fill*         0x08007784        0x4 
 .text.__kernel_cos
                0x08007788      0x27c c:/program files (x86)/gnu tools arm embedded/4.9 2015q2/bin/../lib/gcc/arm-none-eabi/4.9.3/../../../../arm-none-eabi/lib/armv7e-m/fpu\libm.a(lib_a-k_cos.o)
                0x08007788                __kernel_cos
 *fill*         0x08007a04        0x4 
 .text.__kernel_rem_pio2
                0x08007a08      0x7f4 c:/program files (x86)/gnu tools arm embedded/4.9 2015q2/bin/../lib/gcc/arm-none-eabi/4.9.3/../../../../arm-none-eabi/lib/armv7e-m/fpu\libm.a(lib_a-k_rem_pio2.o)
                0x08007a08                __kernel_rem_pio2
 *fill*         0x080081fc        0x4 
 .text.__kernel_sin
                0x08008200      0x18c c:/program files (x86)/gnu tools arm embedded/4.9 2015q2/bin/../lib/gcc/arm-none-eabi/4.9.3/../../../../arm-none-eabi/lib/armv7e-m/fpu\libm.a(lib_a-k_sin.o)
                0x08008200                __kernel_sin
 .text.__kernel_cosf
                0x0800838c      0x104 c:/program files (x86)/gnu tools arm embedded/4.9 2015q2/bin/../lib/gcc/arm-none-eabi/4.9.3/../../../../arm-none-eabi/lib/armv7e-m/fpu\libm.a(lib_a-kf_cos.o)
                0x0800838c                __kernel_cosf
 .text.__kernel_rem_pio2f
                0x08008490      0x5e4 c:/program files (x86)/gnu tools arm embedded/4.9 2015q2/bin/../lib/gcc/arm-none-eabi/4.9.3/../../../../arm-none-eabi/lib/armv7e-m/fpu\libm.a(lib_a-kf_rem_pio2.o)
                0x08008490                __kernel_rem_pio2f
 .text.__kernel_sinf
                0x08008a74       0x90 c:/program files (x86)/gnu tools arm embedded/4.9 2015q2/bin/../lib/gcc/arm-none-eabi/4.9.3/../../../../arm-none-eabi/lib/armv7e-m/fpu\libm.a(lib_a-kf_sin.o)
                0x08008a74                __kernel_sinf
 .text.fabs     0x08008b04       0x10 c:/program files (x86)/gnu tools arm embedded/4.9 2015q2/bin/../lib/gcc/arm-none-eabi/4.9.3/../../../../arm-none-eabi/lib/armv7e-m/fpu\libm.a(lib_a-s_fabs.o)
                0x08008b04                fabs
 *fill*         0x08008b14        0x4 
 .text.floor    0x08008b18      0x120 c:/program files (x86)/gnu tools arm embedded/4.9 2015q2/bin/../lib/gcc/arm-none-eabi/4.9.3/../../../../arm-none-eabi/lib/armv7e-m/fpu\libm.a(lib_a-s_floor.o)
                0x08008b18                floor
 .text.__fpclassifyd
                0x08008c38       0x5c c:/program files (x86)/gnu tools arm embedded/4.9 2015q2/bin/../lib/gcc/arm-none-eabi/4.9.3/../../../../arm-none-eabi/lib/armv7e-m/fpu\libm.a(lib_a-s_fpclassify.o)
                0x08008c38                __fpclassifyd
 .text.matherr  0x08008c94        0x4 c:/program files (x86)/gnu tools arm embedded/4.9 2015q2/bin/../lib/gcc/arm-none-eabi/4.9.3/../../../../arm-none-eabi/lib/armv7e-m/fpu\libm.a(lib_a-s_matherr.o)
                0x08008c94                matherr
 .text.scalbn   0x08008c98      0x104 c:/program files (x86)/gnu tools arm embedded/4.9 2015q2/bin/../lib/gcc/arm-none-eabi/4.9.3/../../../../arm-none-eabi/lib/armv7e-m/fpu\libm.a(lib_a-s_scalbn.o)
                0x08008c98                scalbn
 .text.fabsf    0x08008d9c       0x10 c:/program files (x86)/gnu tools arm embedded/4.9 2015q2/bin/../lib/gcc/arm-none-eabi/4.9.3/../../../../arm-none-eabi/lib/armv7e-m/fpu\libm.a(lib_a-sf_fabs.o)
                0x08008d9c                fabsf
 .text.floorf   0x08008dac       0x90 c:/program files (x86)/gnu tools arm embedded/4.9 2015q2/bin/../lib/gcc/arm-none-eabi/4.9.3/../../../../arm-none-eabi/lib/armv7e-m/fpu\libm.a(lib_a-sf_floor.o)
                0x08008dac                floorf
 .text.scalbnf  0x08008e3c       0xd0 c:/program files (x86)/gnu tools arm embedded/4.9 2015q2/bin/../lib/gcc/arm-none-eabi/4.9.3/../../../../arm-none-eabi/lib/armv7e-m/fpu\libm.a(lib_a-sf_scalbn.o)
                0x08008e3c                scalbnf
 .text.copysign
                0x08008f0c       0x1c c:/program files (x86)/gnu tools arm embedded/4.9 2015q2/bin/../lib/gcc/arm-none-eabi/4.9.3/../../../../arm-none-eabi/lib/armv7e-m/fpu\libm.a(lib_a-s_copysign.o)
                0x08008f0c                copysign
 .text.copysignf
                0x08008f28       0x18 c:/program files (x86)/gnu tools arm embedded/4.9 2015q2/bin/../lib/gcc/arm-none-eabi/4.9.3/../../../../arm-none-eabi/lib/armv7e-m/fpu\libm.a(lib_a-sf_copysign.o)
                0x08008f28                copysignf
 .text          0x08008f40      0x370 c:/program files (x86)/gnu tools arm embedded/4.9 2015q2/bin/../lib/gcc/arm-none-eabi/4.9.3/armv7e-m/fpu\libgcc.a(_arm_addsubdf3.o)
                0x08008f40                __aeabi_drsub
                0x08008f48                __aeabi_dsub
                0x08008f48                __subdf3
                0x08008f4c                __aeabi_dadd
                0x08008f4c                __adddf3
                0x080091c4                __floatunsidf
                0x080091c4                __aeabi_ui2d
                0x080091e4                __floatsidf
                0x080091e4                __aeabi_i2d
                0x08009208                __aeabi_f2d
                0x08009208                __extendsfdf2
                0x08009244                __floatundidf
                0x08009244                __aeabi_ul2d
                0x08009254                __floatdidf
                0x08009254                __aeabi_l2d
 .text          0x080092b0      0x424 c:/program files (x86)/gnu tools arm embedded/4.9 2015q2/bin/../lib/gcc/arm-none-eabi/4.9.3/armv7e-m/fpu\libgcc.a(_arm_muldivdf3.o)
                0x080092b0                __aeabi_dmul
                0x080092b0                __muldf3
                0x08009504                __divdf3
                0x08009504                __aeabi_ddiv
 .text          0x080096d4      0x110 c:/program files (x86)/gnu tools arm embedded/4.9 2015q2/bin/../lib/gcc/arm-none-eabi/4.9.3/armv7e-m/fpu\libgcc.a(_arm_cmpdf2.o)
                0x080096d4                __gtdf2
                0x080096d4                __gedf2
                0x080096dc                __ltdf2
                0x080096dc                __ledf2
                0x080096e4                __nedf2
                0x080096e4                __eqdf2
                0x080096e4                __cmpdf2
                0x08009760                __aeabi_cdrcmple
                0x08009770                __aeabi_cdcmpeq
                0x08009770                __aeabi_cdcmple
                0x08009780                __aeabi_dcmpeq
                0x08009794                __aeabi_dcmplt
                0x080097a8                __aeabi_dcmple
                0x080097bc                __aeabi_dcmpge
                0x080097d0                __aeabi_dcmpgt
 .text          0x080097e4       0x50 c:/program files (x86)/gnu tools arm embedded/4.9 2015q2/bin/../lib/gcc/arm-none-eabi/4.9.3/armv7e-m/fpu\libgcc.a(_arm_fixdfsi.o)
                0x080097e4                __aeabi_d2iz
                0x080097e4                __fixdfsi
 .text          0x08009834       0x40 c:/program files (x86)/gnu tools arm embedded/4.9 2015q2/bin/../lib/gcc/arm-none-eabi/4.9.3/armv7e-m/fpu\libgcc.a(_arm_fixunsdfsi.o)
                0x08009834                __aeabi_d2uiz
                0x08009834                __fixunsdfsi
 .text          0x08009874       0xa0 c:/program files (x86)/gnu tools arm embedded/4.9 2015q2/bin/../lib/gcc/arm-none-eabi/4.9.3/armv7e-m/fpu\libgcc.a(_arm_truncdfsf2.o)
                0x08009874                __truncdfsf2
                0x08009874                __aeabi_d2f
 .text.__errno  0x08009914        0xc c:/program files (x86)/gnu tools arm embedded/4.9 2015q2/bin/../lib/gcc/arm-none-eabi/4.9.3/../../../../arm-none-eabi/lib/armv7e-m/fpu\libc.a(lib_a-errno.o)
                0x08009914                __errno
 .text.malloc   0x08009920       0x10 c:/program files (x86)/gnu tools arm embedded/4.9 2015q2/bin/../lib/gcc/arm-none-eabi/4.9.3/../../../../arm-none-eabi/lib/armv7e-m/fpu\libc.a(lib_a-malloc.o)
                0x08009920                malloc
 .text._malloc_r
                0x08009930      0x524 c:/program files (x86)/gnu tools arm embedded/4.9 2015q2/bin/../lib/gcc/arm-none-eabi/4.9.3/../../../../arm-none-eabi/lib/armv7e-m/fpu\libc.a(lib_a-mallocr.o)
                0x08009930                _malloc_r
 .text          0x08009e54      0x134 c:/program files (x86)/gnu tools arm embedded/4.9 2015q2/bin/../lib/gcc/arm-none-eabi/4.9.3/../../../../arm-none-eabi/lib/armv7e-m/fpu\libc.a(lib_a-memcpy.o)
                0x08009e54                memcpy
 .text.__malloc_lock
                0x08009f88        0x4 c:/program files (x86)/gnu tools arm embedded/4.9 2015q2/bin/../lib/gcc/arm-none-eabi/4.9.3/../../../../arm-none-eabi/lib/armv7e-m/fpu\libc.a(lib_a-mlock.o)
                0x08009f88                __malloc_lock
 .text.__malloc_unlock
                0x08009f8c        0x4 c:/program files (x86)/gnu tools arm embedded/4.9 2015q2/bin/../lib/gcc/arm-none-eabi/4.9.3/../../../../arm-none-eabi/lib/armv7e-m/fpu\libc.a(lib_a-mlock.o)
                0x08009f8c                __malloc_unlock
 .text._sbrk_r  0x08009f90       0x24 c:/program files (x86)/gnu tools arm embedded/4.9 2015q2/bin/../lib/gcc/arm-none-eabi/4.9.3/../../../../arm-none-eabi/lib/armv7e-m/fpu\libc.a(lib_a-sbrkr.o)
                0x08009f90                _sbrk_r
 .text._malloc_trim_r
                0x08009fb4       0x9c c:/program files (x86)/gnu tools arm embedded/4.9 2015q2/bin/../lib/gcc/arm-none-eabi/4.9.3/../../../../arm-none-eabi/lib/armv7e-m/fpu\libc.a(lib_a-freer.o)
                0x08009fb4                _malloc_trim_r
 .text._free_r  0x0800a050      0x1b0 c:/program files (x86)/gnu tools arm embedded/4.9 2015q2/bin/../lib/gcc/arm-none-eabi/4.9.3/../../../../arm-none-eabi/lib/armv7e-m/fpu\libc.a(lib_a-freer.o)
                0x0800a050                _free_r
 *(.init)
 *(.fini)
 *crtbegin.o(.ctors)
 *crtbegin?.o(.ctors)
 *(EXCLUDE_FILE(*crtend.o *crtend?.o) .ctors)
 *(SORT(.ctors.*))
 *(.ctors)
 *crtbegin.o(.dtors)
 *crtbegin?.o(.dtors)
 *(EXCLUDE_FILE(*crtend.o *crtend?.o) .dtors)
 *(SORT(.dtors.*))
 *(.dtors)
 *(.rodata*)
 .rodata        0x0800a200      0x1ed ..\obj\main.o
 *fill*         0x0800a3ed        0x3 
 .rodata.str1.4
                0x0800a3f0        0x5 c:/program files (x86)/gnu tools arm embedded/4.9 2015q2/bin/../lib/gcc/arm-none-eabi/4.9.3/../../../../arm-none-eabi/lib/armv7e-m/fpu\libm.a(lib_a-w_sqrt.o)
 *fill*         0x0800a3f5        0x3 
 .rodata.npio2_hw
                0x0800a3f8       0x80 c:/program files (x86)/gnu tools arm embedded/4.9 2015q2/bin/../lib/gcc/arm-none-eabi/4.9.3/../../../../arm-none-eabi/lib/armv7e-m/fpu\libm.a(lib_a-e_rem_pio2.o)
 .rodata.two_over_pi
                0x0800a478      0x108 c:/program files (x86)/gnu tools arm embedded/4.9 2015q2/bin/../lib/gcc/arm-none-eabi/4.9.3/../../../../arm-none-eabi/lib/armv7e-m/fpu\libm.a(lib_a-e_rem_pio2.o)
 .rodata.npio2_hw
                0x0800a580       0x80 c:/program files (x86)/gnu tools arm embedded/4.9 2015q2/bin/../lib/gcc/arm-none-eabi/4.9.3/../../../../arm-none-eabi/lib/armv7e-m/fpu\libm.a(lib_a-ef_rem_pio2.o)
 .rodata.two_over_pi
                0x0800a600      0x318 c:/program files (x86)/gnu tools arm embedded/4.9 2015q2/bin/../lib/gcc/arm-none-eabi/4.9.3/../../../../arm-none-eabi/lib/armv7e-m/fpu\libm.a(lib_a-ef_rem_pio2.o)
 .rodata.init_jk
                0x0800a918       0x10 c:/program files (x86)/gnu tools arm embedded/4.9 2015q2/bin/../lib/gcc/arm-none-eabi/4.9.3/../../../../arm-none-eabi/lib/armv7e-m/fpu\libm.a(lib_a-k_rem_pio2.o)
 .rodata.PIo2   0x0800a928       0x40 c:/program files (x86)/gnu tools arm embedded/4.9 2015q2/bin/../lib/gcc/arm-none-eabi/4.9.3/../../../../arm-none-eabi/lib/armv7e-m/fpu\libm.a(lib_a-k_rem_pio2.o)
 .rodata.init_jk
                0x0800a968        0xc c:/program files (x86)/gnu tools arm embedded/4.9 2015q2/bin/../lib/gcc/arm-none-eabi/4.9.3/../../../../arm-none-eabi/lib/armv7e-m/fpu\libm.a(lib_a-kf_rem_pio2.o)
 .rodata.PIo2   0x0800a974       0x2c c:/program files (x86)/gnu tools arm embedded/4.9 2015q2/bin/../lib/gcc/arm-none-eabi/4.9.3/../../../../arm-none-eabi/lib/armv7e-m/fpu\libm.a(lib_a-kf_rem_pio2.o)
 .rodata.str1.4
                0x0800a9a0        0x4 c:/program files (x86)/gnu tools arm embedded/4.9 2015q2/bin/../lib/gcc/arm-none-eabi/4.9.3/../../../../arm-none-eabi/lib/armv7e-m/fpu\libc.a(lib_a-impure.o)
                                  0x2 (size before relaxing)
 *(.eh_fram e*)

.glue_7         0x0800a9a4        0x0
 .glue_7        0x00000000        0x0 linker stubs

.glue_7t        0x0800a9a4        0x0
 .glue_7t       0x00000000        0x0 linker stubs

.vfp11_veneer   0x0800a9a4        0x0
 .vfp11_veneer  0x00000000        0x0 linker stubs

.v4_bx          0x0800a9a4        0x0
 .v4_bx         0x00000000        0x0 linker stubs

.iplt           0x0800a9a4        0x0
 .iplt          0x00000000        0x0 ..\obj\stm32f4xx_syscfg.o

.rel.dyn        0x0800a9a4        0x0
 .rel.iplt      0x00000000        0x0 ..\obj\stm32f4xx_syscfg.o

.ARM.extab
 *(.ARM.extab* .gnu.linkonce.armextab.*)
                0x0800a9a4                __exidx_start = .

.ARM.exidx
 *(.ARM.exidx* .gnu.linkonce.armexidx.*)
                0x0800a9a4                __exidx_end = .
                0x0800a9a4                __etext = .
                0x0800a9a4                _sidata = __etext

.data           0x20000000      0x8dc load address 0x0800a9a4
                0x20000000                __data_start__ = .
                0x20000000                _sdata = __data_start__
 *(vtable)
 *(.data*)
 .data          0x20000000       0x8c ..\obj\main.o
                0x20000000                ileKrokow
                0x20000004                LengthArray
                0x20000014                maxIteration
                0x20000018                gmm
                0x2000001c                stopCondition
                0x20000020                hh
                0x20000024                krok_poz
                0x20000028                values
 .data          0x2000008c       0x10 ..\obj\stm32f4xx_rcc.o
 .data.__fdlib_version
                0x2000009c        0x1 c:/program files (x86)/gnu tools arm embedded/4.9 2015q2/bin/../lib/gcc/arm-none-eabi/4.9.3/../../../../arm-none-eabi/lib/armv7e-m/fpu\libm.a(lib_a-s_lib_ver.o)
                0x2000009c                __fdlib_version
 *fill*         0x2000009d        0x3 
 .data.impure_data
                0x200000a0      0x428 c:/program files (x86)/gnu tools arm embedded/4.9 2015q2/bin/../lib/gcc/arm-none-eabi/4.9.3/../../../../arm-none-eabi/lib/armv7e-m/fpu\libc.a(lib_a-impure.o)
 .data._impure_ptr
                0x200004c8        0x4 c:/program files (x86)/gnu tools arm embedded/4.9 2015q2/bin/../lib/gcc/arm-none-eabi/4.9.3/../../../../arm-none-eabi/lib/armv7e-m/fpu\libc.a(lib_a-impure.o)
                0x200004c8                _impure_ptr
 .data.__malloc_av_
                0x200004cc      0x408 c:/program files (x86)/gnu tools arm embedded/4.9 2015q2/bin/../lib/gcc/arm-none-eabi/4.9.3/../../../../arm-none-eabi/lib/armv7e-m/fpu\libc.a(lib_a-mallocr.o)
                0x200004cc                __malloc_av_
 .data.__malloc_trim_threshold
                0x200008d4        0x4 c:/program files (x86)/gnu tools arm embedded/4.9 2015q2/bin/../lib/gcc/arm-none-eabi/4.9.3/../../../../arm-none-eabi/lib/armv7e-m/fpu\libc.a(lib_a-mallocr.o)
                0x200008d4                __malloc_trim_threshold
 .data.__malloc_sbrk_base
                0x200008d8        0x4 c:/program files (x86)/gnu tools arm embedded/4.9 2015q2/bin/../lib/gcc/arm-none-eabi/4.9.3/../../../../arm-none-eabi/lib/armv7e-m/fpu\libc.a(lib_a-mallocr.o)
                0x200008d8                __malloc_sbrk_base
                0x200008dc                . = ALIGN (0x4)
                0x200008dc                PROVIDE (__preinit_array_start, .)
 *(.preinit_array)
                0x200008dc                PROVIDE (__preinit_array_end, .)
                0x200008dc                . = ALIGN (0x4)
                0x200008dc                PROVIDE (__init_array_start, .)
 *(SORT(.init_array.*))
 *(.init_array)
                0x200008dc                PROVIDE (__init_array_end, .)
                0x200008dc                . = ALIGN (0x4)
                0x200008dc                PROVIDE (__fini_array_start, .)
 *(SORT(.fini_array.*))
 *(.fini_array)
                0x200008dc                PROVIDE (__fini_array_end, .)
 *(.jcr*)
                0x200008dc                . = ALIGN (0x4)
                0x200008dc                __data_end__ = .
                0x200008dc                _edata = __data_end__

.igot.plt       0x200008dc        0x0 load address 0x0800b280
 .igot.plt      0x00000000        0x0 ..\obj\stm32f4xx_syscfg.o

.bss            0x200008dc      0x1a0 load address 0x0800b280
                0x200008dc                . = ALIGN (0x4)
                0x200008dc                __bss_start__ = .
                0x200008dc                _sbss = __bss_start__
 *(.bss*)
 .bss           0x200008dc       0x30 ..\obj\main.o
                0x200008dc                timerL
                0x200008de                timerH
                0x200008e0                lastLewy
                0x200008e4                lastPrawy
                0x200008e8                krok
                0x200008ec                zerowa
                0x200008f0                mMicroKrok
                0x200008f4                mKrokPoz
                0x200008f8                mKrok
                0x200008fc                steper_speed
                0x20000900                steper_dir
 .bss           0x2000090c        0x4 ..\obj\syscalls.o
 .bss.__malloc_max_total_mem
                0x20000910        0x4 c:/program files (x86)/gnu tools arm embedded/4.9 2015q2/bin/../lib/gcc/arm-none-eabi/4.9.3/../../../../arm-none-eabi/lib/armv7e-m/fpu\libc.a(lib_a-mallocr.o)
                0x20000910                __malloc_max_total_mem
 .bss.__malloc_max_sbrked_mem
                0x20000914        0x4 c:/program files (x86)/gnu tools arm embedded/4.9 2015q2/bin/../lib/gcc/arm-none-eabi/4.9.3/../../../../arm-none-eabi/lib/armv7e-m/fpu\libc.a(lib_a-mallocr.o)
                0x20000914                __malloc_max_sbrked_mem
 .bss.__malloc_top_pad
                0x20000918        0x4 c:/program files (x86)/gnu tools arm embedded/4.9 2015q2/bin/../lib/gcc/arm-none-eabi/4.9.3/../../../../arm-none-eabi/lib/armv7e-m/fpu\libc.a(lib_a-mallocr.o)
                0x20000918                __malloc_top_pad
 .bss.__malloc_current_mallinfo
                0x2000091c       0x28 c:/program files (x86)/gnu tools arm embedded/4.9 2015q2/bin/../lib/gcc/arm-none-eabi/4.9.3/../../../../arm-none-eabi/lib/armv7e-m/fpu\libc.a(lib_a-mallocr.o)
                0x2000091c                __malloc_current_mallinfo
 *(COMMON)
 COMMON         0x20000944      0x12c ..\obj\main.o
                0x20000944                t
                0x20000948                tmp_q1
                0x20000954                fm_q0
                0x20000958                fm_E
                0x2000095c                fm_J
                0x20000960                droidQ
                0x200009a8                tmp_E
                0x200009b4                fm_q
                0x200009b8                fm_h
                0x200009bc                fm_J1I
                0x200009c0                fm_J1
                0x200009c4                tmp_J1
                0x200009d0                tmp_J1DetTmp
                0x200009dc                fm_yd
                0x200009e0                tmp_J1InvTmp
                0x200009ec                tmp_JSH
                0x200009f8                tmp_y
                0x20000a04                fm_q1
                0x20000a08                tmp_q
                0x20000a14                tmp_h
                0x20000a20                tmp_q0
                0x20000a2c                tmp_J1I
                0x20000a38                fm_y
                0x20000a3c                fm_JT
                0x20000a40                fm_JSH
                0x20000a44                tmp_yd
                0x20000a50                tmp_JT
                0x20000a5c                tmp_J
                0x20000a68                fm_J1DetTmp
                0x20000a6c                fm_J1InvTmp
 COMMON         0x20000a70        0x8 ..\obj\hd44780.o
                0x20000a70                GPIO_InitStructure
 COMMON         0x20000a78        0x4 c:/program files (x86)/gnu tools arm embedded/4.9 2015q2/bin/../lib/gcc/arm-none-eabi/4.9.3/../../../../arm-none-eabi/lib/armv7e-m/fpu\libc.a(lib_a-reent.o)
                0x20000a78                errno
                0x20000a7c                . = ALIGN (0x4)
                0x20000a7c                __bss_end__ = .
                0x20000a7c                _ebss = __bss_end__

.heap           0x20000a7c        0x0
                0x20000a7c                __end__ = .
                0x20000a7c                _end = __end__
                0x20000a7c                end = __end__
 *(.heap*)
                0x20000a7c                __HeapLimit = .

.co_stack       0x20000a7c      0x804 load address 0x0800b420
                0x20000a80                . = ALIGN (0x8)
 *fill*         0x20000a7c        0x4 
 *(.co_stack .co_stack.*)
 .co_stack      0x20000a80      0x800 ..\obj\startup_stm32f4xx.o
                0x20000a80                pulStack
                0x20020000                __StackTop = (ORIGIN (ram) + 0x20000)
                0x2001f7fc                __StackLimit = (__StackTop - SIZEOF (.co_stack))
                0x20020000                PROVIDE (__stack, __StackTop)
                0x00000001                ASSERT ((__StackLimit >= __HeapLimit), region ram  overflowed with stack)
LOAD ..\obj\stm32f4xx_syscfg.o
LOAD ..\obj\stm32f4xx_usart.o
LOAD ..\obj\stm32f4xx_pwr.o
LOAD ..\obj\stm32f4xx_dac.o
LOAD ..\obj\startup_stm32f4xx.o
LOAD ..\obj\main.o
LOAD ..\obj\stm32f4xx_rcc.o
LOAD ..\obj\stm32f4xx_adc.o
LOAD ..\obj\hd44780.o
LOAD ..\obj\stm32f4xx_gpio.o
LOAD ..\obj\stm32f4xx_flash.o
LOAD ..\obj\system_stm32f4xx.o
LOAD ..\obj\syscalls.o
LOAD ..\obj\stm32f4xx_dma.o
LOAD ..\obj\stm32f4_discovery_callbacks.o
LOAD ..\obj\stm32f4xx_spi.o
LOAD ..\obj\stm32f4xx_i2c.o
LOAD ..\obj\stm32f4xx_exti.o
LOAD ..\obj\misc.o
LOAD ..\obj\stm32f4xx_tim.o
LOAD ..\..\..\STM32F4-Discovery\libpdmfilter_gcc.a
LOAD c:/program files (x86)/gnu tools arm embedded/4.9 2015q2/bin/../lib/gcc/arm-none-eabi/4.9.3/../../../../arm-none-eabi/lib/armv7e-m/fpu\libm.a
LOAD c:/program files (x86)/gnu tools arm embedded/4.9 2015q2/bin/../lib/gcc/arm-none-eabi/4.9.3/armv7e-m/fpu\libgcc.a
LOAD c:/program files (x86)/gnu tools arm embedded/4.9 2015q2/bin/../lib/gcc/arm-none-eabi/4.9.3/../../../../arm-none-eabi/lib/armv7e-m/fpu\libc.a
START GROUP
LOAD c:/program files (x86)/gnu tools arm embedded/4.9 2015q2/bin/../lib/gcc/arm-none-eabi/4.9.3/armv7e-m/fpu\libgcc.a
LOAD c:/program files (x86)/gnu tools arm embedded/4.9 2015q2/bin/../lib/gcc/arm-none-eabi/4.9.3/../../../../arm-none-eabi/lib/armv7e-m/fpu\libg.a
LOAD c:/program files (x86)/gnu tools arm embedded/4.9 2015q2/bin/../lib/gcc/arm-none-eabi/4.9.3/../../../../arm-none-eabi/lib/armv7e-m/fpu\libc.a
END GROUP
OUTPUT(f4test.elf elf32-littlearm)

.debug_info     0x00000000     0x98ea
 .debug_info    0x00000000      0x26c ..\obj\stm32f4xx_syscfg.o
 .debug_info    0x0000026c      0x9c2 ..\obj\stm32f4xx_usart.o
 .debug_info    0x00000c2e       0xed ..\obj\startup_stm32f4xx.o
 .debug_info    0x00000d1b     0x3315 ..\obj\main.o
 .debug_info    0x00004030      0xc4d ..\obj\stm32f4xx_rcc.o
 .debug_info    0x00004c7d      0xc38 ..\obj\stm32f4xx_adc.o
 .debug_info    0x000058b5      0xa45 ..\obj\hd44780.o
 .debug_info    0x000062fa      0x602 ..\obj\stm32f4xx_gpio.o
 .debug_info    0x000068fc      0x71b ..\obj\stm32f4xx_flash.o
 .debug_info    0x00007017      0x3ee ..\obj\syscalls.o
 .debug_info    0x00007405      0x347 ..\obj\stm32f4xx_exti.o
 .debug_info    0x0000774c      0x53d ..\obj\misc.o
 .debug_info    0x00007c89     0x1c61 ..\obj\stm32f4xx_tim.o

.debug_abbrev   0x00000000     0x1536
 .debug_abbrev  0x00000000      0x131 ..\obj\stm32f4xx_syscfg.o
 .debug_abbrev  0x00000131      0x155 ..\obj\stm32f4xx_usart.o
 .debug_abbrev  0x00000286       0xb0 ..\obj\startup_stm32f4xx.o
 .debug_abbrev  0x00000336      0x3f8 ..\obj\main.o
 .debug_abbrev  0x0000072e      0x1e3 ..\obj\stm32f4xx_rcc.o
 .debug_abbrev  0x00000911      0x196 ..\obj\stm32f4xx_adc.o
 .debug_abbrev  0x00000aa7      0x1eb ..\obj\hd44780.o
 .debug_abbrev  0x00000c92      0x1a3 ..\obj\stm32f4xx_gpio.o
 .debug_abbrev  0x00000e35      0x1ae ..\obj\stm32f4xx_flash.o
 .debug_abbrev  0x00000fe3       0xe2 ..\obj\syscalls.o
 .debug_abbrev  0x000010c5      0x1a5 ..\obj\stm32f4xx_exti.o
 .debug_abbrev  0x0000126a      0x145 ..\obj\misc.o
 .debug_abbrev  0x000013af      0x187 ..\obj\stm32f4xx_tim.o

.debug_aranges  0x00000000      0xdd0
 .debug_aranges
                0x00000000       0x48 ..\obj\stm32f4xx_syscfg.o
 .debug_aranges
                0x00000048      0x100 ..\obj\stm32f4xx_usart.o
 .debug_aranges
                0x00000148       0x28 ..\obj\startup_stm32f4xx.o
 .debug_aranges
                0x00000170      0x358 ..\obj\main.o
 .debug_aranges
                0x000004c8      0x178 ..\obj\stm32f4xx_rcc.o
 .debug_aranges
                0x00000640      0x148 ..\obj\stm32f4xx_adc.o
 .debug_aranges
                0x00000788       0xc8 ..\obj\hd44780.o
 .debug_aranges
                0x00000850       0x88 ..\obj\stm32f4xx_gpio.o
 .debug_aranges
                0x000008d8      0x108 ..\obj\stm32f4xx_flash.o
 .debug_aranges
                0x000009e0       0x60 ..\obj\syscalls.o
 .debug_aranges
                0x00000a40       0x58 ..\obj\stm32f4xx_exti.o
 .debug_aranges
                0x00000a98       0x40 ..\obj\misc.o
 .debug_aranges
                0x00000ad8      0x2f8 ..\obj\stm32f4xx_tim.o

.debug_ranges   0x00000000      0xd00
 .debug_ranges  0x00000000       0x38 ..\obj\stm32f4xx_syscfg.o
 .debug_ranges  0x00000038       0xf0 ..\obj\stm32f4xx_usart.o
 .debug_ranges  0x00000128       0x18 ..\obj\startup_stm32f4xx.o
 .debug_ranges  0x00000140      0x348 ..\obj\main.o
 .debug_ranges  0x00000488      0x168 ..\obj\stm32f4xx_rcc.o
 .debug_ranges  0x000005f0      0x138 ..\obj\stm32f4xx_adc.o
 .debug_ranges  0x00000728       0xb8 ..\obj\hd44780.o
 .debug_ranges  0x000007e0       0x78 ..\obj\stm32f4xx_gpio.o
 .debug_ranges  0x00000858       0xf8 ..\obj\stm32f4xx_flash.o
 .debug_ranges  0x00000950       0x50 ..\obj\syscalls.o
 .debug_ranges  0x000009a0       0x48 ..\obj\stm32f4xx_exti.o
 .debug_ranges  0x000009e8       0x30 ..\obj\misc.o
 .debug_ranges  0x00000a18      0x2e8 ..\obj\stm32f4xx_tim.o

.debug_line     0x00000000     0x483e
 .debug_line    0x00000000      0x213 ..\obj\stm32f4xx_syscfg.o
 .debug_line    0x00000213      0x496 ..\obj\stm32f4xx_usart.o
 .debug_line    0x000006a9       0x9a ..\obj\startup_stm32f4xx.o
 .debug_line    0x00000743     0x1662 ..\obj\main.o
 .debug_line    0x00001da5      0x595 ..\obj\stm32f4xx_rcc.o
 .debug_line    0x0000233a      0x546 ..\obj\stm32f4xx_adc.o
 .debug_line    0x00002880      0x771 ..\obj\hd44780.o
 .debug_line    0x00002ff1      0x337 ..\obj\stm32f4xx_gpio.o
 .debug_line    0x00003328      0x47b ..\obj\stm32f4xx_flash.o
 .debug_line    0x000037a3      0x16b ..\obj\syscalls.o
 .debug_line    0x0000390e      0x299 ..\obj\stm32f4xx_exti.o
 .debug_line    0x00003ba7      0x239 ..\obj\misc.o
 .debug_line    0x00003de0      0xa5e ..\obj\stm32f4xx_tim.o

.debug_str      0x00000000     0x3c2b
 .debug_str     0x00000000      0x2ba ..\obj\stm32f4xx_syscfg.o
                                0x318 (size before relaxing)
 .debug_str     0x000002ba      0x4d9 ..\obj\stm32f4xx_usart.o
                                0x6b3 (size before relaxing)
 .debug_str     0x00000793       0xa8 ..\obj\startup_stm32f4xx.o
                                0x16b (size before relaxing)
 .debug_str     0x0000083b     0x1512 ..\obj\main.o
                               0x17f1 (size before relaxing)
 .debug_str     0x00001d4d      0x5c1 ..\obj\stm32f4xx_rcc.o
                                0x874 (size before relaxing)
 .debug_str     0x0000230e      0x4ef ..\obj\stm32f4xx_adc.o
                                0x828 (size before relaxing)
 .debug_str     0x000027fd      0x1b2 ..\obj\hd44780.o
                                0x522 (size before relaxing)
 .debug_str     0x000029af      0x17e ..\obj\stm32f4xx_gpio.o
                                0x4c7 (size before relaxing)
 .debug_str     0x00002b2d      0x3c3 ..\obj\stm32f4xx_flash.o
                                0x5b6 (size before relaxing)
 .debug_str     0x00002ef0      0x15b ..\obj\syscalls.o
                                0x2ed (size before relaxing)
 .debug_str     0x0000304b       0xf8 ..\obj\stm32f4xx_exti.o
                                0x37d (size before relaxing)
 .debug_str     0x00003143       0xf2 ..\obj\misc.o
                                0x3f2 (size before relaxing)
 .debug_str     0x00003235      0x9f6 ..\obj\stm32f4xx_tim.o
                                0xdf4 (size before relaxing)

.comment        0x00000000       0x70
 .comment       0x00000000       0x70 ..\obj\stm32f4xx_syscfg.o
                                 0x71 (size before relaxing)
 .comment       0x00000000       0x71 ..\obj\stm32f4xx_usart.o
 .comment       0x00000000       0x71 ..\obj\startup_stm32f4xx.o
 .comment       0x00000000       0x71 ..\obj\main.o
 .comment       0x00000000       0x71 ..\obj\stm32f4xx_rcc.o
 .comment       0x00000000       0x71 ..\obj\stm32f4xx_adc.o
 .comment       0x00000000       0x71 ..\obj\hd44780.o
 .comment       0x00000000       0x71 ..\obj\stm32f4xx_gpio.o
 .comment       0x00000000       0x71 ..\obj\stm32f4xx_flash.o
 .comment       0x00000000       0x71 ..\obj\syscalls.o
 .comment       0x00000000       0x71 ..\obj\stm32f4xx_exti.o
 .comment       0x00000000       0x71 ..\obj\misc.o
 .comment       0x00000000       0x71 ..\obj\stm32f4xx_tim.o

.ARM.attributes
                0x00000000       0x37
 .ARM.attributes
                0x00000000       0x39 ..\obj\stm32f4xx_syscfg.o
 .ARM.attributes
                0x00000039       0x39 ..\obj\stm32f4xx_usart.o
 .ARM.attributes
                0x00000072       0x39 ..\obj\startup_stm32f4xx.o
 .ARM.attributes
                0x000000ab       0x39 ..\obj\main.o
 .ARM.attributes
                0x000000e4       0x39 ..\obj\stm32f4xx_rcc.o
 .ARM.attributes
                0x0000011d       0x39 ..\obj\stm32f4xx_adc.o
 .ARM.attributes
                0x00000156       0x39 ..\obj\hd44780.o
 .ARM.attributes
                0x0000018f       0x39 ..\obj\stm32f4xx_gpio.o
 .ARM.attributes
                0x000001c8       0x39 ..\obj\stm32f4xx_flash.o
 .ARM.attributes
                0x00000201       0x39 ..\obj\syscalls.o
 .ARM.attributes
                0x0000023a       0x39 ..\obj\stm32f4xx_exti.o
 .ARM.attributes
                0x00000273       0x39 ..\obj\misc.o
 .ARM.attributes
                0x000002ac       0x39 ..\obj\stm32f4xx_tim.o
 .ARM.attributes
                0x000002e5       0x34 c:/program files (x86)/gnu tools arm embedded/4.9 2015q2/bin/../lib/gcc/arm-none-eabi/4.9.3/../../../../arm-none-eabi/lib/armv7e-m/fpu\libm.a(lib_a-s_cos.o)
 .ARM.attributes
                0x00000319       0x34 c:/program files (x86)/gnu tools arm embedded/4.9 2015q2/bin/../lib/gcc/arm-none-eabi/4.9.3/../../../../arm-none-eabi/lib/armv7e-m/fpu\libm.a(lib_a-s_sin.o)
 .ARM.attributes
                0x0000034d       0x34 c:/program files (x86)/gnu tools arm embedded/4.9 2015q2/bin/../lib/gcc/arm-none-eabi/4.9.3/../../../../arm-none-eabi/lib/armv7e-m/fpu\libm.a(lib_a-sf_cos.o)
 .ARM.attributes
                0x00000381       0x34 c:/program files (x86)/gnu tools arm embedded/4.9 2015q2/bin/../lib/gcc/arm-none-eabi/4.9.3/../../../../arm-none-eabi/lib/armv7e-m/fpu\libm.a(lib_a-sf_sin.o)
 .ARM.attributes
                0x000003b5       0x34 c:/program files (x86)/gnu tools arm embedded/4.9 2015q2/bin/../lib/gcc/arm-none-eabi/4.9.3/../../../../arm-none-eabi/lib/armv7e-m/fpu\libm.a(lib_a-w_sqrt.o)
 .ARM.attributes
                0x000003e9       0x34 c:/program files (x86)/gnu tools arm embedded/4.9 2015q2/bin/../lib/gcc/arm-none-eabi/4.9.3/../../../../arm-none-eabi/lib/armv7e-m/fpu\libm.a(lib_a-e_rem_pio2.o)
 .ARM.attributes
                0x0000041d       0x34 c:/program files (x86)/gnu tools arm embedded/4.9 2015q2/bin/../lib/gcc/arm-none-eabi/4.9.3/../../../../arm-none-eabi/lib/armv7e-m/fpu\libm.a(lib_a-e_sqrt.o)
 .ARM.attributes
                0x00000451       0x34 c:/program files (x86)/gnu tools arm embedded/4.9 2015q2/bin/../lib/gcc/arm-none-eabi/4.9.3/../../../../arm-none-eabi/lib/armv7e-m/fpu\libm.a(lib_a-ef_rem_pio2.o)
 .ARM.attributes
                0x00000485       0x34 c:/program files (x86)/gnu tools arm embedded/4.9 2015q2/bin/../lib/gcc/arm-none-eabi/4.9.3/../../../../arm-none-eabi/lib/armv7e-m/fpu\libm.a(lib_a-k_cos.o)
 .ARM.attributes
                0x000004b9       0x34 c:/program files (x86)/gnu tools arm embedded/4.9 2015q2/bin/../lib/gcc/arm-none-eabi/4.9.3/../../../../arm-none-eabi/lib/armv7e-m/fpu\libm.a(lib_a-k_rem_pio2.o)
 .ARM.attributes
                0x000004ed       0x34 c:/program files (x86)/gnu tools arm embedded/4.9 2015q2/bin/../lib/gcc/arm-none-eabi/4.9.3/../../../../arm-none-eabi/lib/armv7e-m/fpu\libm.a(lib_a-k_sin.o)
 .ARM.attributes
                0x00000521       0x34 c:/program files (x86)/gnu tools arm embedded/4.9 2015q2/bin/../lib/gcc/arm-none-eabi/4.9.3/../../../../arm-none-eabi/lib/armv7e-m/fpu\libm.a(lib_a-kf_cos.o)
 .ARM.attributes
                0x00000555       0x34 c:/program files (x86)/gnu tools arm embedded/4.9 2015q2/bin/../lib/gcc/arm-none-eabi/4.9.3/../../../../arm-none-eabi/lib/armv7e-m/fpu\libm.a(lib_a-kf_rem_pio2.o)
 .ARM.attributes
                0x00000589       0x34 c:/program files (x86)/gnu tools arm embedded/4.9 2015q2/bin/../lib/gcc/arm-none-eabi/4.9.3/../../../../arm-none-eabi/lib/armv7e-m/fpu\libm.a(lib_a-kf_sin.o)
 .ARM.attributes
                0x000005bd       0x34 c:/program files (x86)/gnu tools arm embedded/4.9 2015q2/bin/../lib/gcc/arm-none-eabi/4.9.3/../../../../arm-none-eabi/lib/armv7e-m/fpu\libm.a(lib_a-s_fabs.o)
 .ARM.attributes
                0x000005f1       0x34 c:/program files (x86)/gnu tools arm embedded/4.9 2015q2/bin/../lib/gcc/arm-none-eabi/4.9.3/../../../../arm-none-eabi/lib/armv7e-m/fpu\libm.a(lib_a-s_floor.o)
 .ARM.attributes
                0x00000625       0x34 c:/program files (x86)/gnu tools arm embedded/4.9 2015q2/bin/../lib/gcc/arm-none-eabi/4.9.3/../../../../arm-none-eabi/lib/armv7e-m/fpu\libm.a(lib_a-s_fpclassify.o)
 .ARM.attributes
                0x00000659       0x34 c:/program files (x86)/gnu tools arm embedded/4.9 2015q2/bin/../lib/gcc/arm-none-eabi/4.9.3/../../../../arm-none-eabi/lib/armv7e-m/fpu\libm.a(lib_a-s_lib_ver.o)
 .ARM.attributes
                0x0000068d       0x34 c:/program files (x86)/gnu tools arm embedded/4.9 2015q2/bin/../lib/gcc/arm-none-eabi/4.9.3/../../../../arm-none-eabi/lib/armv7e-m/fpu\libm.a(lib_a-s_matherr.o)
 .ARM.attributes
                0x000006c1       0x34 c:/program files (x86)/gnu tools arm embedded/4.9 2015q2/bin/../lib/gcc/arm-none-eabi/4.9.3/../../../../arm-none-eabi/lib/armv7e-m/fpu\libm.a(lib_a-s_scalbn.o)
 .ARM.attributes
                0x000006f5       0x34 c:/program files (x86)/gnu tools arm embedded/4.9 2015q2/bin/../lib/gcc/arm-none-eabi/4.9.3/../../../../arm-none-eabi/lib/armv7e-m/fpu\libm.a(lib_a-sf_fabs.o)
 .ARM.attributes
                0x00000729       0x34 c:/program files (x86)/gnu tools arm embedded/4.9 2015q2/bin/../lib/gcc/arm-none-eabi/4.9.3/../../../../arm-none-eabi/lib/armv7e-m/fpu\libm.a(lib_a-sf_floor.o)
 .ARM.attributes
                0x0000075d       0x34 c:/program files (x86)/gnu tools arm embedded/4.9 2015q2/bin/../lib/gcc/arm-none-eabi/4.9.3/../../../../arm-none-eabi/lib/armv7e-m/fpu\libm.a(lib_a-sf_scalbn.o)
 .ARM.attributes
                0x00000791       0x34 c:/program files (x86)/gnu tools arm embedded/4.9 2015q2/bin/../lib/gcc/arm-none-eabi/4.9.3/../../../../arm-none-eabi/lib/armv7e-m/fpu\libm.a(lib_a-s_copysign.o)
 .ARM.attributes
                0x000007c5       0x34 c:/program files (x86)/gnu tools arm embedded/4.9 2015q2/bin/../lib/gcc/arm-none-eabi/4.9.3/../../../../arm-none-eabi/lib/armv7e-m/fpu\libm.a(lib_a-sf_copysign.o)
 .ARM.attributes
                0x000007f9       0x22 c:/program files (x86)/gnu tools arm embedded/4.9 2015q2/bin/../lib/gcc/arm-none-eabi/4.9.3/armv7e-m/fpu\libgcc.a(_arm_addsubdf3.o)
 .ARM.attributes
                0x0000081b       0x22 c:/program files (x86)/gnu tools arm embedded/4.9 2015q2/bin/../lib/gcc/arm-none-eabi/4.9.3/armv7e-m/fpu\libgcc.a(_arm_muldivdf3.o)
 .ARM.attributes
                0x0000083d       0x22 c:/program files (x86)/gnu tools arm embedded/4.9 2015q2/bin/../lib/gcc/arm-none-eabi/4.9.3/armv7e-m/fpu\libgcc.a(_arm_cmpdf2.o)
 .ARM.attributes
                0x0000085f       0x22 c:/program files (x86)/gnu tools arm embedded/4.9 2015q2/bin/../lib/gcc/arm-none-eabi/4.9.3/armv7e-m/fpu\libgcc.a(_arm_fixdfsi.o)
 .ARM.attributes
                0x00000881       0x22 c:/program files (x86)/gnu tools arm embedded/4.9 2015q2/bin/../lib/gcc/arm-none-eabi/4.9.3/armv7e-m/fpu\libgcc.a(_arm_fixunsdfsi.o)
 .ARM.attributes
                0x000008a3       0x22 c:/program files (x86)/gnu tools arm embedded/4.9 2015q2/bin/../lib/gcc/arm-none-eabi/4.9.3/armv7e-m/fpu\libgcc.a(_arm_truncdfsf2.o)
 .ARM.attributes
                0x000008c5       0x34 c:/program files (x86)/gnu tools arm embedded/4.9 2015q2/bin/../lib/gcc/arm-none-eabi/4.9.3/../../../../arm-none-eabi/lib/armv7e-m/fpu\libc.a(lib_a-errno.o)
 .ARM.attributes
                0x000008f9       0x34 c:/program files (x86)/gnu tools arm embedded/4.9 2015q2/bin/../lib/gcc/arm-none-eabi/4.9.3/../../../../arm-none-eabi/lib/armv7e-m/fpu\libc.a(lib_a-impure.o)
 .ARM.attributes
                0x0000092d       0x34 c:/program files (x86)/gnu tools arm embedded/4.9 2015q2/bin/../lib/gcc/arm-none-eabi/4.9.3/../../../../arm-none-eabi/lib/armv7e-m/fpu\libc.a(lib_a-malloc.o)
 .ARM.attributes
                0x00000961       0x34 c:/program files (x86)/gnu tools arm embedded/4.9 2015q2/bin/../lib/gcc/arm-none-eabi/4.9.3/../../../../arm-none-eabi/lib/armv7e-m/fpu\libc.a(lib_a-mallocr.o)
 .ARM.attributes
                0x00000995       0x20 c:/program files (x86)/gnu tools arm embedded/4.9 2015q2/bin/../lib/gcc/arm-none-eabi/4.9.3/../../../../arm-none-eabi/lib/armv7e-m/fpu\libc.a(lib_a-memcpy.o)
 .ARM.attributes
                0x000009b5       0x34 c:/program files (x86)/gnu tools arm embedded/4.9 2015q2/bin/../lib/gcc/arm-none-eabi/4.9.3/../../../../arm-none-eabi/lib/armv7e-m/fpu\libc.a(lib_a-mlock.o)
 .ARM.attributes
                0x000009e9       0x34 c:/program files (x86)/gnu tools arm embedded/4.9 2015q2/bin/../lib/gcc/arm-none-eabi/4.9.3/../../../../arm-none-eabi/lib/armv7e-m/fpu\libc.a(lib_a-sbrkr.o)
 .ARM.attributes
                0x00000a1d       0x34 c:/program files (x86)/gnu tools arm embedded/4.9 2015q2/bin/../lib/gcc/arm-none-eabi/4.9.3/../../../../arm-none-eabi/lib/armv7e-m/fpu\libc.a(lib_a-freer.o)
 .ARM.attributes
                0x00000a51       0x34 c:/program files (x86)/gnu tools arm embedded/4.9 2015q2/bin/../lib/gcc/arm-none-eabi/4.9.3/../../../../arm-none-eabi/lib/armv7e-m/fpu\libc.a(lib_a-reent.o)

.debug_frame    0x00000000     0x4478
 .debug_frame   0x00000000       0xf4 ..\obj\stm32f4xx_syscfg.o
 .debug_frame   0x000000f4      0x490 ..\obj\stm32f4xx_usart.o
 .debug_frame   0x00000584       0x4c ..\obj\startup_stm32f4xx.o
 .debug_frame   0x000005d0      0xf58 ..\obj\main.o
 .debug_frame   0x00001528      0x6d4 ..\obj\stm32f4xx_rcc.o
 .debug_frame   0x00001bfc      0x5ec ..\obj\stm32f4xx_adc.o
 .debug_frame   0x000021e8      0x310 ..\obj\hd44780.o
 .debug_frame   0x000024f8      0x23c ..\obj\stm32f4xx_gpio.o
 .debug_frame   0x00002734      0x44c ..\obj\stm32f4xx_flash.o
 .debug_frame   0x00002b80      0x168 ..\obj\syscalls.o
 .debug_frame   0x00002ce8      0x148 ..\obj\stm32f4xx_exti.o
 .debug_frame   0x00002e30       0xd8 ..\obj\misc.o
 .debug_frame   0x00002f08      0xe54 ..\obj\stm32f4xx_tim.o
 .debug_frame   0x00003d5c       0x3c c:/program files (x86)/gnu tools arm embedded/4.9 2015q2/bin/../lib/gcc/arm-none-eabi/4.9.3/../../../../arm-none-eabi/lib/armv7e-m/fpu\libm.a(lib_a-s_cos.o)
 .debug_frame   0x00003d98       0x3c c:/program files (x86)/gnu tools arm embedded/4.9 2015q2/bin/../lib/gcc/arm-none-eabi/4.9.3/../../../../arm-none-eabi/lib/armv7e-m/fpu\libm.a(lib_a-s_sin.o)
 .debug_frame   0x00003dd4       0x34 c:/program files (x86)/gnu tools arm embedded/4.9 2015q2/bin/../lib/gcc/arm-none-eabi/4.9.3/../../../../arm-none-eabi/lib/armv7e-m/fpu\libm.a(lib_a-sf_cos.o)
 .debug_frame   0x00003e08       0x34 c:/program files (x86)/gnu tools arm embedded/4.9 2015q2/bin/../lib/gcc/arm-none-eabi/4.9.3/../../../../arm-none-eabi/lib/armv7e-m/fpu\libm.a(lib_a-sf_sin.o)
 .debug_frame   0x00003e3c       0x60 c:/program files (x86)/gnu tools arm embedded/4.9 2015q2/bin/../lib/gcc/arm-none-eabi/4.9.3/../../../../arm-none-eabi/lib/armv7e-m/fpu\libm.a(lib_a-w_sqrt.o)
 .debug_frame   0x00003e9c       0x48 c:/program files (x86)/gnu tools arm embedded/4.9 2015q2/bin/../lib/gcc/arm-none-eabi/4.9.3/../../../../arm-none-eabi/lib/armv7e-m/fpu\libm.a(lib_a-e_rem_pio2.o)
 .debug_frame   0x00003ee4       0x30 c:/program files (x86)/gnu tools arm embedded/4.9 2015q2/bin/../lib/gcc/arm-none-eabi/4.9.3/../../../../arm-none-eabi/lib/armv7e-m/fpu\libm.a(lib_a-e_sqrt.o)
 .debug_frame   0x00003f14       0x3c c:/program files (x86)/gnu tools arm embedded/4.9 2015q2/bin/../lib/gcc/arm-none-eabi/4.9.3/../../../../arm-none-eabi/lib/armv7e-m/fpu\libm.a(lib_a-ef_rem_pio2.o)
 .debug_frame   0x00003f50       0x68 c:/program files (x86)/gnu tools arm embedded/4.9 2015q2/bin/../lib/gcc/arm-none-eabi/4.9.3/../../../../arm-none-eabi/lib/armv7e-m/fpu\libm.a(lib_a-k_cos.o)
 .debug_frame   0x00003fb8       0x54 c:/program files (x86)/gnu tools arm embedded/4.9 2015q2/bin/../lib/gcc/arm-none-eabi/4.9.3/../../../../arm-none-eabi/lib/armv7e-m/fpu\libm.a(lib_a-k_rem_pio2.o)
 .debug_frame   0x0000400c       0x68 c:/program files (x86)/gnu tools arm embedded/4.9 2015q2/bin/../lib/gcc/arm-none-eabi/4.9.3/../../../../arm-none-eabi/lib/armv7e-m/fpu\libm.a(lib_a-k_sin.o)
 .debug_frame   0x00004074       0x20 c:/program files (x86)/gnu tools arm embedded/4.9 2015q2/bin/../lib/gcc/arm-none-eabi/4.9.3/../../../../arm-none-eabi/lib/armv7e-m/fpu\libm.a(lib_a-kf_cos.o)
 .debug_frame   0x00004094       0x5c c:/program files (x86)/gnu tools arm embedded/4.9 2015q2/bin/../lib/gcc/arm-none-eabi/4.9.3/../../../../arm-none-eabi/lib/armv7e-m/fpu\libm.a(lib_a-kf_rem_pio2.o)
 .debug_frame   0x000040f0       0x20 c:/program files (x86)/gnu tools arm embedded/4.9 2015q2/bin/../lib/gcc/arm-none-eabi/4.9.3/../../../../arm-none-eabi/lib/armv7e-m/fpu\libm.a(lib_a-kf_sin.o)
 .debug_frame   0x00004110       0x20 c:/program files (x86)/gnu tools arm embedded/4.9 2015q2/bin/../lib/gcc/arm-none-eabi/4.9.3/../../../../arm-none-eabi/lib/armv7e-m/fpu\libm.a(lib_a-s_fabs.o)
 .debug_frame   0x00004130       0x34 c:/program files (x86)/gnu tools arm embedded/4.9 2015q2/bin/../lib/gcc/arm-none-eabi/4.9.3/../../../../arm-none-eabi/lib/armv7e-m/fpu\libm.a(lib_a-s_floor.o)
 .debug_frame   0x00004164       0x34 c:/program files (x86)/gnu tools arm embedded/4.9 2015q2/bin/../lib/gcc/arm-none-eabi/4.9.3/../../../../arm-none-eabi/lib/armv7e-m/fpu\libm.a(lib_a-s_fpclassify.o)
 .debug_frame   0x00004198       0x20 c:/program files (x86)/gnu tools arm embedded/4.9 2015q2/bin/../lib/gcc/arm-none-eabi/4.9.3/../../../../arm-none-eabi/lib/armv7e-m/fpu\libm.a(lib_a-s_matherr.o)
 .debug_frame   0x000041b8       0x2c c:/program files (x86)/gnu tools arm embedded/4.9 2015q2/bin/../lib/gcc/arm-none-eabi/4.9.3/../../../../arm-none-eabi/lib/armv7e-m/fpu\libm.a(lib_a-s_scalbn.o)
 .debug_frame   0x000041e4       0x20 c:/program files (x86)/gnu tools arm embedded/4.9 2015q2/bin/../lib/gcc/arm-none-eabi/4.9.3/../../../../arm-none-eabi/lib/armv7e-m/fpu\libm.a(lib_a-sf_fabs.o)
 .debug_frame   0x00004204       0x20 c:/program files (x86)/gnu tools arm embedded/4.9 2015q2/bin/../lib/gcc/arm-none-eabi/4.9.3/../../../../arm-none-eabi/lib/armv7e-m/fpu\libm.a(lib_a-sf_floor.o)
 .debug_frame   0x00004224       0x44 c:/program files (x86)/gnu tools arm embedded/4.9 2015q2/bin/../lib/gcc/arm-none-eabi/4.9.3/../../../../arm-none-eabi/lib/armv7e-m/fpu\libm.a(lib_a-sf_scalbn.o)
 .debug_frame   0x00004268       0x20 c:/program files (x86)/gnu tools arm embedded/4.9 2015q2/bin/../lib/gcc/arm-none-eabi/4.9.3/../../../../arm-none-eabi/lib/armv7e-m/fpu\libm.a(lib_a-s_copysign.o)
 .debug_frame   0x00004288       0x20 c:/program files (x86)/gnu tools arm embedded/4.9 2015q2/bin/../lib/gcc/arm-none-eabi/4.9.3/../../../../arm-none-eabi/lib/armv7e-m/fpu\libm.a(lib_a-sf_copysign.o)
 .debug_frame   0x000042a8       0x20 c:/program files (x86)/gnu tools arm embedded/4.9 2015q2/bin/../lib/gcc/arm-none-eabi/4.9.3/../../../../arm-none-eabi/lib/armv7e-m/fpu\libc.a(lib_a-errno.o)
 .debug_frame   0x000042c8       0x30 c:/program files (x86)/gnu tools arm embedded/4.9 2015q2/bin/../lib/gcc/arm-none-eabi/4.9.3/../../../../arm-none-eabi/lib/armv7e-m/fpu\libc.a(lib_a-malloc.o)
 .debug_frame   0x000042f8       0x58 c:/program files (x86)/gnu tools arm embedded/4.9 2015q2/bin/../lib/gcc/arm-none-eabi/4.9.3/../../../../arm-none-eabi/lib/armv7e-m/fpu\libc.a(lib_a-mallocr.o)
 .debug_frame   0x00004350       0x30 c:/program files (x86)/gnu tools arm embedded/4.9 2015q2/bin/../lib/gcc/arm-none-eabi/4.9.3/../../../../arm-none-eabi/lib/armv7e-m/fpu\libc.a(lib_a-mlock.o)
 .debug_frame   0x00004380       0x2c c:/program files (x86)/gnu tools arm embedded/4.9 2015q2/bin/../lib/gcc/arm-none-eabi/4.9.3/../../../../arm-none-eabi/lib/armv7e-m/fpu\libc.a(lib_a-sbrkr.o)
 .debug_frame   0x000043ac       0x74 c:/program files (x86)/gnu tools arm embedded/4.9 2015q2/bin/../lib/gcc/arm-none-eabi/4.9.3/../../../../arm-none-eabi/lib/armv7e-m/fpu\libc.a(lib_a-freer.o)
 .debug_frame   0x00004420       0x58 c:/program files (x86)/gnu tools arm embedded/4.9 2015q2/bin/../lib/gcc/arm-none-eabi/4.9.3/../../../../arm-none-eabi/lib/armv7e-m/fpu\libc.a(lib_a-reent.o)
